:1000000066EF00F0030E075E09E3EA6A070EE96E89
:10001000EF5004E001D000D0EF2EFDD71200EA6AC5
:10002000070EE96EEF500DE0060E016E006A002E1D
:10003000FED7012EFBD77B0E006E002EFED7EF2ED3
:10004000F3D71200056A046A0450310811E3818273
:10005000040E066EC70E076ED5DF062EFBD7819203
:10006000130E076EDCDFC80E076ECCDF042AECD758
:10007000080E066EFA0E076ED2DF062EFBD7046A54
:100080000450310818E38182010E076EC8DF020EAA
:10009000066EF90E076EB6DF062EFBD78192120EA2
:1000A000076EBDDF020E066EF90E076EABDF062E81
:1000B000FBD7042AE5D7080E066EFA0E076EAFDFEF
:1000C000062EFBD7052ABFD771EF00F0F86AD09E45
:1000D000C150C00B0F09C16E070EB46EC00E936EF7
:0600E000B1D7FFD70300B9
:020000040030CA
:0E0000003FC0381E0087A1000FC00FE00F4068
:00000001FF
;PIC18F4550
;CRC=1E2C  CREATED="26-jun-17 16:39"
