:04000000E7EF12F024
:08000800046ED8CF05F0E0CF33
:1000100006F00001E9CF0CF0EACF07F0E1CF08F0DD
:10002000E2CF09F0D9CF0AF0DACF0BF0F3CF12F01C
:10003000F4CF13F0FACF14F000C00EF001C00FF0AF
:1000400002C010F003C011F0F2AA2AEF00F0F2B4DF
:100050004BEF00F00EC000F00FC001F010C002F036
:1000600011C003F00CC0E9FF07C0EAFF078E08C00B
:10007000E1FF09C0E2FF0AC0D9FF0BC0DAFF12C0DE
:10008000F3FF13C0F4FF14C0FAFF045006C0E0FFF2
:1000900005C0D8FF1000D650D7CF03F0830FAE6F46
:1000A000000ED720D76EAEC0D6FF542AD8B4552A3A
:1000B000F2942AEF00F04D4558454E444F00434F0F
:1000C0004E46494755524143414F0000494E435522
:1000D0004241444F52410000434F4E46494755521A
:1000E0004143414F00005345542054454D503A2060
:1000F000252E31662020202020202000434F4E4610
:10010000494755524143414F000053455420554DF6
:10011000493A20252E316620202020202000464903
:100120004D2044410000434F4E46494755524143FC
:10013000414F00005345542054454D503A2020254E
:100140002E316620202020202020200053455420DE
:10015000554D493A202020252E3166202020202090
:1001600020200000502F564F4C5441522041200077
:10017000434F4E46494755524143414F000050526C
:10018000455353494F4E45204F200000424F542EB7
:1001900020434F4E46494755524143414F004F552A
:1001A000205052455353494F4E450000424F544151
:1001B0004F20494E494349415200434F4E4649471B
:1001C00055524143414F0000494E43554241444F2F
:1001D00052410000494E4349414E444F20412000C6
:1001E000494E43554241444F52410000494E435508
:1001F0004241444F524100004445204F564F530066
:10020000415045525445204F20424F54414F000029
:10021000434F4E46494755524143414F00004150DC
:1002200045525445204F20424F54414F0000494E03
:1002300049204F5520434F4E46494700414A5553A8
:1002400054414E444F00504152414D454E54524F3F
:10025000532E2E2E0000554D49444144453A30302E
:1002600030303020000054454D502E2025660000CF
:10027000444553454A4120504152415220412000BB
:10028000494E4355424143414F3F0000414755527B
:100290004144452E2E2E0000494E435542414341D4
:1002A0004F00494E4355424143414F00494E54454A
:1002B00052524F4D5049444100005345542054453B
:1002C0004D503A2020252E3166202020202020204D
:1002D000200053455420554D493A202020252E31E9
:1002E0006620202020202020000084906FC083FF03
:1002F000848200D000D000008492420E006E002E56
:10030000FED700001200EA6A700EE96EEF500DE0B1
:10031000060E016E006A002EFED7012EFBD77B0E63
:10032000006E002EFED7EF2EF3D71200010E6F6F76
:10033000DCDF020E706FE7DF1200300E6F6FD5DF6B
:10034000040E706FE0DF300E6F6FCFDFA60E006E11
:10035000002EFED70000300E6F6FC7DF380E6F6FB4
:10036000C4DFE4DF0C0E6F6FC0DF060E6F6FBDDF02
:100370006DEF13F084807BC083FF848200D000D0B7
:1003800000008492420E006E002EFED70000120084
:100390000900F5520CE0F6CF6FF0F7CF70F0F5CF13
:1003A0007BF0E8DF6FC0F6FF70C0F7FFF1D71200F7
:1003B0008E0E006E9FC001F09EC002F0036A0152D3
:1003C00009E102C001F0026A080E005E015202E17A
:1003D000006A08D0D89001BE04D00236013600066B
:1003E000F9D7019E12009A51D8B471D0006E9E5177
:1003F000D8B46DD0002604E3810E002668E204D054
:100400007F0E005E64E363E09BC0A2F09F51A21BDD
:100410009B8F9F8F9D51A103F4CFA4F09C51A0030B
:10042000F4CF03F0F3CFA3F0A103F350A427F450CB
:10043000A323000E03229D51A003F350A427F450E0
:10044000A323000E026A032202229B51A103F35050
:10045000A327F4500322000E02229B51A003F35065
:100460000326F4500222000E016A01229D519F03CF
:10047000F350A327F4500322000E022201229C51C4
:100480009F03F3500326F4500222000E01229B51D9
:100490009F03F3500226F4500122002A01BE05D02A
:1004A000A3370336023601360006000EA3AF0AD08A
:1004B000032A02220122015005E1025003E1035008
:1004C00001E1002AA2BF018EA2AF019E04D0006A02
:1004D000016A026A036A12009351D8B4A5D09F6FD3
:1004E0009751D8B4A1D09F5F05E37F0E9F27D8B066
:1004F0009BD006D0810E9F5FD8A096D0D8B494D060
:100500009FC000F0016A026A036A9E6B94C09DF06E
:100510009D8F95C09CF096C09BF0190E9F6F9A51CD
:100520009B5F0DE2010E9C5F0AE29D5F08E29E5F09
:1005300006E29E2B9D2B9C2B9A519B2728D09951EC
:100540009C5F12E2010E9D5F0FE29E5F0DE29E2B0B
:100550009D2B99519C279A519B2719E39C2B17E1BE
:100560009D2B15E19E2B13D0985180099D5F0EE2C3
:10057000010E9E5F0BE29E2B985180099D27995199
:100580009C27E9E39D2BE7E19E2BE5D703809F2F76
:1005900001D00BD0D8909B379C379D379E37D89091
:1005A000033602360136A037BAD7A0A106D0D890BC
:1005B000013202320332A03302D0000635E0A0BF80
:1005C0001ED0D8909B379C379D379E379A519B5FA2
:1005D00007E2010E9C5F04E29D5F02E29E5F1AE368
:1005E00099519C5F05E2010E9D5F02E29E5F12E35E
:1005F000985180099D5F03E2010E9E5F0BE3032A81
:1006000009E1022A07E1012A05E1002A0DE0013291
:100610000232033294C09FF098519F1B9FAF02D0CB
:10062000018E06D0019E04D0006A016A026A036A44
:100630001200800ED8B2A31BA86BA96B9FC0A7F0B5
:10064000A351A71B9E51D8B4DCD0A66F006EA25157
:10065000D8B4E0D0A65FD8B481D03DE3A3C0ACF05D
:10066000AC8FA4C0ABF0A5C0AAF0A96BD890AC33F6
:10067000AB33AA33A933A62FF8D7A7AF03D0A881ED
:10068000DDD0A891A691A889EA6AA10EE96EE9D009
:10069000A899A7BF0AD0A6A113D0AC33AB33AA3315
:1006A000A933002AD8B4C5D00BD0ACBF0CD0D89099
:1006B000A937AA37AB37AC370006D8B4BAD0F5D7CC
:1006C000A88D6BD0A89D9FC0A7F09FAF02D0AC8F24
:1006D000A9D0AC9FA7D0A2C0A6F0A2C000F09E51A6
:1006E000A65F9FC0ACF0AC8FA0C0ABF0A1C0AAF0D9
:1006F000A96BD890AC33AB33AA33A933A62FF8D764
:10070000A7AF03D0A8839AD0A893A691A88BEA6A32
:10071000A50EE96EA6D0A89BA7BF0AD0A6A113D0AC
:10072000AC33AB33AA33A933002AD8B482D00BD070
:10073000ACBF0CD0D890A937AA37AB37AC3700067E
:10074000D8B477D0F5D7A88F28D0A89FA3C0A7F09A
:10075000A3AF02D0AC8F66D0AC9F64D0A3C0ACF086
:10076000AC8FA4C0ABF0A5C0AAF0A7AF04D0AC9FDB
:10077000A88564D0A895A96BA691EA6AA10EE96E36
:1007800070D0A7BF1CD09FC0A7F0A6A106D0AC33E5
:10079000AB33AA33A933002A4CE0A9AF0BD0AA2B64
:1007A00009E1AB2B07E1AC2B05E1AC33AB33AA334A
:1007B000002A3FE0A8BD86D7A8BFC7D71CD0800EAF
:1007C000AC1BACAF04D03AD0A3C0A7F00AD09FC0F6
:1007D000A7F0AC5306E1AB5304E1AA5302E1006A6F
:1007E00021D0ACBF08D0D890A937AA37AB37AC37E7
:1007F000002EF7D71ED0A7AF02D0AC8F13D0AC9F7E
:1008000011D0A2C000F0A3C0ACF0A4C0ABF0A5C052
:10081000AAF008D09EC000F09FC0ACF0A0C0ABF022
:10082000A1C0AAF0ACC001F0ABC002F0AAC003F0B6
:1008300034D0006A016A026A036A2FD0A96BAA1F2A
:10084000AB1FAC1FA91FA92B05E1AA2B03E1AB2B02
:1008500001E1AC2BA8B115D7A8B356D7A8B58AD754
:10086000B3D7EF50AA2705E3AB2B03E1AC2BD8B4E9
:10087000A681ED52EF50AB2703E3AC2BD8B4A68191
:10088000ED52EF50EFBE01D0800AAC27D8B0A68160
:10089000A8B9FED6A8BB3FD774D712009BC0A2F060
:1008A0009F51A21BA2AF05D0D894D8909BBFD880EF
:1008B0002FD09BC0A2F09EC0A3F09A51A35F06E088
:1008C000A2AF26D0D850010AD86E22D09FC0A3F084
:1008D0009B51A35F06E0A2AF1BD0D850010AD86E8F
:1008E00017D0A0C0A3F09C51A35F06E0A2AF10D028
:1008F000D850010AD86E0CD0A1C0A3F09D51A35FBF
:1009000006E0A2AF05D0D850010AD86E01D0D89029
:1009100012008E0E006E91C001F090C002F0036ACA
:1009200091AF05D0011E021E022A01E1012A0152E7
:1009300009E102C001F0026A080E005E015202E104
:10094000006A0AD0D89001BE04D0023601360006F3
:10095000F9D791BF01D0019E12007DC081F07CC00B
:1009600080F07BC07FF07AC07EF081C09DF080C0B7
:100970009CF07FC09BF07EC09AF0A16BA06B9F6B38
:100980007F0E9E6F8BDFD8B47BD1906B7E0EE96EAD
:1009900090C0EAFF7E0EEF6ED88281C0A1F080C0C9
:1009A000A0F07FC09FF07EC09EF0A56BA46BA36BF0
:1009B0007F0EA26F3EDE03C092F002C091F001C034
:1009C00090F000C08FF0D89281C0A1F080C0A0F05C
:1009D0007FC09FF07EC09EF0A56BA46BA36B7F0EC3
:1009E000A26F27DE92C096F091C095F090C094F06F
:1009F0008FC093F003C09AF002C099F001C098F044
:100A000000C097F069DD03C081F002C080F001C032
:100A10007FF000C07EF081C09DF080C09CF07FC060
:100A20009BF07EC09AF081C0A1F080C0A0F07FC092
:100A30009FF07EC09EF0D7DC03C08DF002C08CF02A
:100A400001C08BF000C08AF0990E9D6F470E9C6F1D
:100A50008A0E9B6F7F0E9A6F8DC0A1F08CC0A0F0A4
:100A60008BC09FF08AC09EF0BEDC03C092F002C033
:100A700091F001C090F000C08FF0D89203C0A1F0B7
:100A800002C0A0F001C09FF000C09EF0A56BA46B57
:100A9000A36B800EA26FCDDD03C085F002C084F091
:100AA00001C083F000C082F04C0E9D6FF30E9C6F6E
:100AB0003A0E9B6F7B0E9A6F8DC0A1F08CC0A0F098
:100AC0008BC09FF08AC09EF08EDC03C092F002C003
:100AD00091F001C090F000C08FF0D89203C0A1F057
:100AE00002C0A0F001C09FF000C09EF02B0EA56FC9
:100AF0009D0EA46FDF0EA36F7E0EA26F9ADD03C062
:100B000089F002C088F001C087F000C086F089C07B
:100B10009DF088C09CF087C09BF086C09AF08DC085
:100B2000A1F08CC0A0F08BC09FF08AC09EF05BDC6F
:100B300003C092F002C091F001C090F000C08FF0AD
:100B4000D89203C0A1F002C0A0F001C09FF000C085
:100B50009EF0A56BA46BA36B7F0EA26F6ADD03C032
:100B600089F002C088F001C087F000C086F081C023
:100B70009DF080C09CF07FC09BF07EC09AF085C045
:100B8000A1F084C0A0F083C09FF082C09EF02BDC57
:100B900003C092F002C091F001C090F000C08FF04D
:100BA00003C096F002C095F001C094F000C093F02D
:100BB00089C09AF088C099F087C098F086C097F0F5
:100BC0008BDC03C085F002C084F001C083F000C05C
:100BD00082F0906B7A0EE96E90C0EAFF7E0EEF5CB9
:100BE0008E6F8EAF12D0000ED8808E55916B906FA5
:100BF00090BF91078EDE00C086F00150800A876F9B
:100C000002C088F003C089F00ED0916B8EC090F0C6
:100C100090BF91077EDE03C089F002C088F001C05A
:100C200087F000C086F089C09DF088C09CF087C026
:100C30009BF086C09AF0180EA16F720EA06F310E55
:100C40009F6F7E0E9E6FF3EC01F0D89285C0A1F0ED
:100C500084C0A0F083C09FF082C09EF003C0A5F0C6
:100C600002C0A4F001C0A3F000C0A2F0E2DC03C007
:100C700085F002C084F001C083F000C082F004D08F
:100C8000856B846B836B826B82C000F083C001F044
:100C900084C002F085C003F012008E0E006E9A51DF
:100CA000005E9BC002F09CC001F0028E005209E081
:100CB000D890025202E1015204E002320132002EC9
:100CC000F7D79BAF05D0011E021E012AD8B4022A15
:100CD000120099918DC092F08CC091F08BC090F071
:100CE0008AC08FF08DC09DF08CC09CF08BC09BF0B3
:100CF0008AC09AF0A16BA06B9F6B9E6BCFDD04E363
:100D000099819051800A906F92C09DF091C09CF0A3
:100D100090C09BF08FC09AF0A16BA06B9F6B8E0E62
:100D20009E6FBCDD01E218E192C09DF091C09CF085
:100D300090C09BF08FC09AF0B0DF02C09FF001C05E
:100D40009EF0D8EC01F003C096F002C095F001C00F
:100D500094F000C093F0C5D092C09DF091C09CF07B
:100D600090C09BF08FC09AF0800EA16F960EA06F7E
:100D7000180E9F6F960E9E6F91DDD8A0AAD092C0DC
:100D80009DF091C09CF090C09BF08FC09AF0A16B39
:100D9000A06B9F6B700E9E6FF3EC01F003C09DF093
:100DA00002C09CF001C09BF000C09AF076DF02C048
:100DB00098F001C097F092C09DF091C09CF090C057
:100DC0009BF08FC09AF0A16BA06B9F6B700E9E6F13
:100DD000F3EC01F003C09DF002C09CF001C09BF059
:100DE00000C09AF098C09FF097C09EF0D8EC01F038
:100DF000D8829DC0A1F09CC0A0F09BC09FF09AC07B
:100E00009EF003C0A5F002C0A4F001C0A3F000C092
:100E1000A2F00FDC9D6B9C6B9B6B8E0E9A6F03C0D8
:100E2000A1F002C0A0F001C09FF000C09EF0F3EC62
:100E300001F003C092F002C091F001C090F000C038
:100E40008FF098C09FF097C09EF0D8EC01F09D6B9A
:100E50009C6B9B6B8E0E9A6F03C0A1F002C0A0F03A
:100E600001C09FF000C09EF0F3EC01F003C096F0CB
:100E700002C095F001C094F000C093F092C09DF0C4
:100E800091C09CF090C09BF08FC09AF006DF02C02A
:100E90009FF001C09EF0D8EC01F0D89296C0A1F06E
:100EA00095C0A0F094C09FF093C09EF003C0A5F041
:100EB00002C0A4F001C0A3F000C0A2F019EC03F03E
:100EC00003C096F002C095F001C094F000C093F00A
:100ED00008D092C096F091C095F090C094F08FC069
:100EE00093F092C09DF091C09CF090C09BF08FC099
:100EF0009AF0D3DE02C09FF001C09EF0D8EC01F062
:100F0000D88292C0A1F091C0A0F090C09FF08FC095
:100F10009EF003C0A5F002C0A4F001C0A3F000C081
:100F2000A2F019EC03F003C092F002C091F001C0EE
:100F300090F000C08FF099A103D09451800A946F73
:100F400092C09DF091C09CF090C09BF08FC09AF031
:100F5000A16BA06B9F6B9E6BA1DC38E099A11AD0AE
:100F60008E5318E1D88296C0A1F095C0A0F094C02D
:100F70009FF093C09EF0A56BA46BA36B7F0EA26F36
:100F800019EC03F003C096F002C095F001C094F094
:100F900000C093F099B11AD08E2D18D0D89296C077
:100FA000A1F095C0A0F094C09FF093C09EF0A56BF7
:100FB000A46BA36B7F0EA26F19EC03F003C096F035
:100FC00002C095F001C094F000C093F08DC09DF078
:100FD0008CC09CF08BC09BF08AC09AF0A16BA06B78
:100FE0009F6B9E6B5BDC04E1966B956B946B936BD4
:100FF00093C000F094C001F095C002F096C003F0D9
:10100000120089C08DF088C08CF087C08BF086C03C
:101010008AF0010E8E6F5DDE75EF08F089C08DF0ED
:1010200088C08CF087C08BF086C08AF08E6B51DE52
:1010300099EF08F07DC09DF07CC09CF07BC09BF0D8
:101040007AC09AF0A16BA06B9F6B9E6B27DCD8B423
:101050009ED079C096F078C095F077C094F076C0B5
:1010600093F07DC09AF07CC099F07BC098F07AC074
:1010700097F06CEC02F003C085F002C084F001C070
:1010800083F000C082F003C09DF002C09CF001C05C
:101090009BF000C09AF0A16BA06B9F6B9E6B4EEC17
:1010A00004F024E379C096F078C095F077C094F00E
:1010B00076C093F07DC09AF07CC099F07BC098F028
:1010C0007AC097F06CEC02F003C085F002C084F0A7
:1010D00001C083F000C082F003C089F002C088F034
:1010E00001C087F000C086F08CD723D079C096F07D
:1010F00078C095F077C094F076C093F07DC09AF0F8
:101100007CC099F07BC098F07AC097F06CEC02F04C
:1011100003C085F002C084F001C083F000C082F0FB
:1011200003C089F002C088F001C087F000C086F0DB
:1011300075D703C081F002C080F001C07FF000C00D
:101140007EF081C09DF080C09CF07FC09BF07EC08F
:101150009AF07DC0A1F07CC0A0F07BC09FF07AC067
:101160009EF0F3EC01F0D88279C0A1F078C0A0F035
:1011700077C09FF076C09EF003C0A5F002C0A4F037
:1011800001C0A3F000C0A2F019EC03F000D01200DF
:101190007DC09DF07CC09CF07BC09BF07AC09AF033
:1011A0003B0EA16FAA0EA06F380E9F6F7F0E9E6F31
:1011B000F3EC01F003C09DF002C09CF001C09BF075
:1011C00000C09AF06ADD01C08AF08B917DC081F089
:1011D0007CC080F07BC07FF07AC07EF07DC09DF047
:1011E0007CC09CF07BC09BF07AC09AF0A16BA06B96
:1011F0009F6B9E6B4EEC04F005E38B818A6D7F51F3
:10120000800A7F6F856B846B836B826B8D6B820E24
:10121000E96E8DC0EAFF7F0E8A25EF6E81C09DF0DA
:1012200080C09CF07FC09BF07EC09AF03B0EA16F07
:10123000AA0EA06F380E9F6F7F0E9E6FF3EC01F029
:1012400003C08FF002C08EF001C08DF000C08CF0A2
:10125000916B8AC090F090BF910789EC04F0D8821E
:101260008FC0A1F08EC0A0F08DC09FF08CC09EF00A
:1012700003C0A5F002C0A4F001C0A3F000C0A2F01A
:1012800019EC03F003C081F002C080F001C07FF0D0
:1012900000C07EF07C0E9D6F880E9C6F590E9B6F78
:1012A000720E9A6F81C0A1F080C0A0F07FC09FF045
:1012B0007EC09EF0F3EC01F003C08FF002C08EF010
:1012C00001C08DF000C08CF0D89203C0A1F002C024
:1012D000A0F001C09FF000C09EF0E00EA56F970E39
:1012E000A46F260EA36F750EA26F19EC03F003C056
:1012F00089F002C088F001C087F000C086F089C084
:101300009DF088C09CF087C09BF086C09AF081C099
:10131000A1F080C0A0F07FC09FF07EC09EF0F3ECF3
:1013200001F003C08FF002C08EF001C08DF000C04C
:101330008CF0D89203C0A1F002C0A0F001C09FF0D1
:1013400000C09EF0C40EA56F1D0EA46F1E0EA36FED
:10135000780EA26F19EC03F003C089F002C088F088
:1013600001C087F000C086F089C09DF088C09CF065
:1013700087C09BF086C09AF081C0A1F080C0A0F029
:101380007FC09FF07EC09EF0F3EC01F003C08FF0B1
:1013900002C08EF001C08DF000C08CF0D89203C066
:1013A000A1F002C0A0F001C09FF000C09EF05E0E50
:1013B000A56F500EA46F630EA36F7A0EA26F19EC87
:1013C00003F003C089F002C088F001C087F000C0BC
:1013D00086F089C09DF088C09CF087C09BF086C0D5
:1013E0009AF081C0A1F080C0A0F07FC09FF07EC0C5
:1013F0009EF0F3EC01F003C08FF002C08EF001C04C
:101400008DF000C08CF0D89203C0A1F002C0A0F013
:1014100001C09FF000C09EF01A0EA56FFE0EA46FD3
:10142000750EA36F7C0EA26F19EC03F003C089F058
:1014300002C088F001C087F000C086F089C09DF02E
:1014400088C09CF087C09BF086C09AF081C0A1F054
:1014500080C0A0F07FC09FF07EC09EF0F3EC01F052
:1014600003C08FF002C08EF001C08DF000C08CF080
:10147000D89203C0A1F002C0A0F001C09FF000C04C
:101480009EF0180EA56F720EA46F310EA36F7E0E24
:10149000A26F19EC03F003C089F002C088F001C00C
:1014A00087F000C086F081C09DF080C09CF07FC0B6
:1014B0009BF07EC09AF089C0A1F088C0A0F087C0E0
:1014C0009FF086C09EF0F3EC01F0D892A16BA06B68
:1014D0009F6B7F0E9E6F03C0A5F002C0A4F001C0F9
:1014E000A3F000C0A2F019EC03F085C09DF084C009
:1014F0009CF083C09BF082C09AF003C0A1F002C0B0
:10150000A0F001C09FF000C09EF0F3EC01F003C01A
:1015100085F002C084F001C083F000C082F08BA18E
:1015200017D0966B956B946B7F0E936F85C09AF076
:1015300084C099F083C098F082C097F06CEC02F000
:1015400003C085F002C084F001C083F000C082F0C7
:1015500082C000F083C001F084C002F085C003F0B7
:10156000120071C09DF070C09CF06FC09BF06EC007
:101570009AF0A16BA06B9F6B9E6B4EEC04F0D8A011
:10158000CBD075C079F074C078F073C077F072C0BA
:1015900076F07D6B7C6B7B6B7F0E7A6F4BDD03C0CF
:1015A00079F002C078F001C077F000C076F003C097
:1015B0009DF002C09CF001C09BF000C09AF0A16BAE
:1015C000A06B9F6B9E6B4EEC04F0D8A4A5D075C0A9
:1015D00079F074C078F073C077F072C076F07D6BEC
:1015E0007C6B7B6B800E7A6F25DD03C079F002C0C7
:1015F00078F001C077F000C076F003C09DF002C023
:101600009CF001C09BF000C09AF0A16BA06B9F6B97
:101610009E6B4EEC04F03FE16EC076F06F51800A95
:10162000776F70C078F071C079F071C07DF070C0D4
:101630007CF07B6F6EC07AF0ADEC04F003C079F003
:1016400002C078F001C077F000C076F003C09DF0D2
:1016500002C09CF001C09BF000C09AF075C0A1F0E0
:1016600074C0A0F073C09FF072C09EF0F3EC01F064
:1016700003C079F002C078F001C077F000C076F0C6
:1016800003C07DF002C07CF001C07BF000C07AF0A6
:101690007FDDD0D040D06EC076F06F51800A776F7A
:1016A00070C078F071C079F071C07DF070C07CF0CE
:1016B0007B6F6EC07AF0ADEC04F003C079F002C02D
:1016C00078F001C077F000C076F003C09DF002C052
:1016D0009CF001C09BF000C09AF075C0A1F074C0EE
:1016E000A0F073C09FF072C09EF0F3EC01F003C055
:1016F00079F002C078F001C077F000C076F003C046
:101700007DF002C07CF001C07BF000C07AF040DDCB
:10171000800E011A8FD08ED071C09DF070C09CF0E9
:101720006FC09BF06EC09AF0A16BA06B9F6B9E6B1D
:101730004EEC04F02BE375C079F074C078F073C000
:1017400077F072C076F07D6B7C6B7B6B7F0E7A6F6F
:1017500071DC03C079F002C078F001C077F000C0FE
:1017600076F003C09DF002C09CF001C09BF000C069
:101770009AF0A16BA06B9F6B9E6B4EEC04F006E0A1
:10178000006A016A026A036A55D054D071C09DF0A4
:1017900070C09CF06FC09BF06EC09AF0A16BA06B04
:1017A0009F6B9E6B4EEC04F010E175C09DF074C011
:1017B0009CF073C09BF072C09AF0A16BA06B9F6B02
:1017C0009E6B4EEC04F001E235E171C07DF070C01B
:1017D0007CF06FC07BF06EC07AF0ADEC04F003C01B
:1017E00079F002C078F001C077F000C076F003C055
:1017F0009DF002C09CF001C09BF000C09AF075C043
:10180000A1F074C0A0F073C09FF072C09EF0F3EC22
:1018100001F003C079F002C078F001C077F000C099
:1018200076F003C07DF002C07CF001C07BF000C008
:101830007AF0AEDCEEEF0CF0000E016EC250C30B7E
:101840000110C26E100E006E002EFED70000C28284
:10185000C2A201D0FDD7C2B2FED7C4CF03F0C3CF1E
:101860009EF0C4CF9FF0D8EC01F003C031F002C06D
:1018700030F001C02FF000C02EF031C09DF030C01C
:101880009CF02FC09BF02EC09AF0A16BA06B200E95
:101890009F6F810E9E6FF3EC01F003C031F002C028
:1018A00030F001C02FF000C02EF031C096F030C0F3
:1018B00095F02FC094F02EC093F09A6BC00E996FE4
:1018C0007F0E986F880E976F6CEC02F003C031F0BA
:1018D00002C030F001C02FF000C02EF0966B500E09
:1018E000956F430E946F8E0E936F31C09AF030C097
:1018F00099F02FC098F02EC097F06CEC02F003C066
:1019000035F002C034F001C033F000C032F0D882AC
:1019100035C0A1F034C0A0F033C09FF032C09EF0BB
:10192000A56B400EA46F1C0EA36F8C0EA26F19EC5A
:1019300003F003C035F002C034F001C033F000C042
:1019400032F035C07DF034C07CF033C07BF032C063
:101950007AF0ADEC04F003C039F002C038F001C0F9
:1019600037F000C036F039C09DF038C09CF037C069
:101970009BF036C09AF04EC0A1F04DC0A0F04CC014
:101980009FF04BC09EF0F3EC01F003C039F002C0B1
:1019900038F001C037F000C036F035C07DF034C0FB
:1019A0007CF033C07BF032C07AF0ADEC04F003C0C1
:1019B0003DF002C03CF001C03BF000C03AF03DC039
:1019C00071F03CC070F03BC06FF03AC06EF0756BC8
:1019D000746B400E736F800E726FC3D503C03DF001
:1019E00002C03CF001C03BF000C03AF03DC09DF0A9
:1019F0003CC09CF03BC09BF03AC09AF052C0A1F0B2
:101A000051C0A0F050C09FF04FC09EF0F3EC01F029
:101A100003C03DF002C03CF001C03BF000C03AF012
:101A2000D8924AC0A1F049C0A0F048C09FF047C07A
:101A30009EF039C0A5F038C0A4F037C0A3F036C07E
:101A4000A2F019EC03F003C071F002C070F001C005
:101A50006FF000C06EF0D89203C0A1F002C0A0F0F9
:101A600001C09FF000C09EF03DC0A5F03CC0A4F0B6
:101A70003BC0A3F03AC0A2F019EC03F003C041F060
:101A800002C040F001C03FF000C03EF0966B956B85
:101A9000946B7F0E936F41C09AF040C099F03FC0A5
:101AA00098F03EC097F06CEC02F003C041F002C029
:101AB00040F001C03FF000C03EF0D88241C0A1F02C
:101AC00040C0A0F03FC09FF03EC09EF0330EA56F17
:101AD000930EA46F080EA36F870EA26F19EC03F08C
:101AE00003C041F002C040F001C03FF000C03EF032
:101AF0003EC000F03FC001F040C002F041C003F022
:101B0000F8EF13F0869F069E190E706F83EC01F0BC
:101B1000068E310E006E002EFED700D0868F14EF99
:101B20000EF0420E006E002EFED7000006BE10D052
:101B3000840E006E002EFED700D0000006AE08D046
:101B4000520E006E002EFED700D00000010E016E76
:101B500015EF0EF0706B2AA000D06E6B6E51070867
:101B600042E36F6B06BE0AD06F2B6F51640802E22E
:101B70002A8004D000D000D00000F4D7310E006ECF
:101B8000002EFED700D006BE11D0070ED8806E55AD
:101B9000716F010E006E7151016E04E0D890003635
:101BA000012EFCD70050FF0A70171BD0070ED880FB
:101BB0006E55716F010E006E7151016E04E0D89088
:101BC0000036012EFCD70050701306AE0AD06F2BE2
:101BD0006F51640802E22A8004D000D000D00000D7
:101BE000F4D76E2BBBD770C001F012006F51016AA1
:101BF0006E5D03E26EC000F00CD0006A080E706FDC
:101C00006E3700366F51005CD8B0006E0136702F11
:101C1000F7D71200040E6E6FFA0E706F83EC01F0AE
:101C20006E2FFAD72A906ED77CD7015225E092DF2B
:101C300001C02BF08FDF01C02CF08CDF01C02DF034
:101C40002C502B242D5C18E12BC06EF00A0E6F6F08
:101C5000CDDF300E0124236E2BC06EF00A0E6F6FA5
:101C6000C5DF300E0024246E2CC06EF00A0E6F6F9C
:101C7000BDDF300E0124266E1C0E016E000E026EBA
:101C800002EF14F0030E705F09E3EA6A700EE96E6A
:101C9000EF5004E001D000D0EF2EFDD7120096ECFB
:101CA00001F0830E6F6F75EC01F0B60EF66E000E4C
:101CB000F76EC8EC01F06E6B6E51310812E381864D
:101CC000040E6F6FC70E706FDDDF6F2FFBD781962D
:101CD000130E706F83EC01F0C80E706FD3DF6E2BA4
:101CE000EBD7080E6F6FFA0E706F83EC01F06F2F59
:101CF000FAD76E6B6E5131081AE38186010E706F50
:101D000083EC01F0020E6F6FF90E706FBBDF6F2F67
:101D1000FBD78196120E706F83EC01F0020E6F6F8D
:101D2000F90E706FAFDF6F2FFBD76E2BE3D7080E66
:101D30006F6FFA0E706F83EC01F06F2FFAD709EF17
:101D400014F00900F6CF6FF0F7CF70F0F5CF7BF00D
:101D5000BAEC01F06FC0F6FF70C0F7FF6E2FF1D73D
:101D600012007B51B6087B6F036A7CC07FF07C8FCA
:101D7000D8907C337D337E3303320232013200321D
:101D80007B2FF6D77FAF0BD0001E011E021E031E55
:101D9000002AD8B4012AD8B4022AD8B4032A40EFC2
:101DA0000FF0D8B203D0EA6A830EE96E006A016AC6
:101DB000026A036A836B846B856B866B8251811127
:101DC00080117F112CE0200E876FD8907B377C37F5
:101DD0007D377E3783378437853786378251865DF6
:101DE00008E18151855D05E18051845D02E17F510B
:101DF000835D0FE37F51835F8051D8A0803D845F76
:101E00008151D8A0813D855F8251D8A0823D865FF7
:101E1000D8800036013602360336872FD6D783C0E6
:101E2000EFFF84C0ECFF85C0ECFF86C0ECFF120022
:101E3000E950736F7251756F1AE071C09DF070C0F8
:101E40009CF06FC09BF06EC09AF0A16BA06B200E4F
:101E50009F6F820E9E6FF3EC01F003C071F002C021
:101E600070F001C06FF000C06EF0752FE6D771C042
:101E70007EF070C07DF06FC07CF06EC07BF071D7DB
:101E800003C071F002C070F001C06FF000C06EF0CE
:101E900071AF0DD07307738B6E1F6F1F701F711F93
:101EA0006E2BD8B46F2BD8B4702BD8B4712B3B0EDB
:101EB0007A6F9A0E796FCA0E786F776B0A0E756F0C
:101EC0007251D8B4732BD882EA6A6E0EE96E71C073
:101ED0007EF070C07DF06FC07CF06EC07BF07AC089
:101EE00082F079C081F078C080F077C07FF059DF50
:101EF000015000520FE17229755D0CE073510CE046
:101F00000F0B755D01E03BE273BF39D073BD04D0A8
:101F1000200E30D0200E731773AB0DD0739B72510F
:101F2000D8A473070050736F2D0E7B6FBAEC01F0CD
:101F30007351006E736B7251755D0BE10050736FDE
:101F40002E0E7B6FBAEC01F07351006E200E7317EA
:101F5000000E300E73AB0ED0739B7251D8A4730772
:101F60000050736F2D0E7B6FBAEC01F07351006E51
:101F7000736B300E002600C07BF0BAEC01F0D892F3
:101F80007AC07EF079C07DF078C07CF077C07BF0BD
:101F9000826B816B806B0A0E7F6F03DF03C07AF068
:101FA00002C079F001C078F000C077F0752F8BD7B0
:101FB0001200080E016EC250C30B0110C26E100E4B
:101FC000006E002EFED70000C282C2A201D0FDD753
:101FD000C2B2FED7C3CF5AF0C4CF5BF05BC09FF054
:101FE0005AC09EF0D8EC01F003C065F002C064F066
:101FF00001C063F000C062F065C09DF064C09CF059
:1020000063C09BF062C09AF0A16BA06B9F6B7E0EC9
:102010009E6FF3EC01F003C071F002C070F001C0DC
:102020006FF000C06EF003C096F002C095F001C0E2
:1020300094F000C093F0140E9A6FAE0E996F230EB9
:10204000986F820E976F6CEC02F003C065F002C0CF
:1020500064F001C063F000C062F0D89265C0A1F0E6
:1020600064C0A0F063C09FF062C09EF0CD0EA56F6B
:10207000CC0EA46F4C0EA36F7D0EA26F19EC03F073
:1020800003C071F002C070F001C06FF000C06EF0CC
:1020900003C09DF002C09CF001C09BF000C09AF00C
:1020A000A16BA06B9F6B800E9E6FF3EC01F003C0E1
:1020B0009DF002C09CF001C09BF000C09AF04DEC76
:1020C00006F09F6B01C09EF0D8EC01F003C071F0E8
:1020D00002C070F001C06FF000C06EF003C09DF050
:1020E00002C09CF001C09BF000C09AF0A16BA06BF5
:1020F0009F6B7E0E9E6FF3EC01F003C065F002C093
:1021000064F001C063F000C062F05AEF11F0080EF5
:10211000016EC250C30B0110C26E100E006E002E75
:10212000FED70000C282C2A201D0FDD7C2B2FED744
:10213000C3CF5AF0C4CF5BF05BC09FF05AC09EF093
:10214000D8EC01F003C065F002C064F001C063F098
:1021500000C062F065C09DF064C09CF063C09BF05D
:1021600062C09AF0A16BA06B200E9F6F820E9E6FD3
:10217000F3EC01F003C071F002C070F001C06FF029
:1021800000C06EF003C096F002C095F001C094F05C
:1021900000C093F09A0E9A6F990E996F4C0E986F3B
:1021A000850E976F6CEC02F003C065F002C064F01E
:1021B00001C063F000C062F0D89265C0A1F064C0B5
:1021C000A0F063C09FF062C09EF0CD0EA56FCC0E54
:1021D000A46F4C0EA36F7D0EA26F19EC03F003C029
:1021E00071F002C070F001C06FF000C06EF003C06B
:1021F0009DF002C09CF001C09BF000C09AF0A16B62
:10220000A06B9F6B800E9E6FF3EC01F003C09DF0FE
:1022100002C09CF001C09BF000C09AF04DEC06F0AB
:102220009F6B01C09EF0D8EC01F003C071F002C0BA
:1022300070F001C06FF000C06EF003C09DF002C0EE
:102240009CF001C09BF000C09AF0A16BA06B9F6B4B
:102250007E0E9E6FF3EC01F003C065F002C064F0E7
:1022600001C063F000C062F099EF11F0612B96ECB1
:1022700001F06151070801E1616B612D18D0BE0EBC
:10228000F66E000EF76EC8EC01F0C00E6F6F75ECC5
:1022900001F0CC0EF66E000EF76EC8EC01F00C0EDD
:1022A0006E6FFA0E706F83EC01F06E2FFAD7612D0E
:1022B0008CD17FD6D80EF66E000EF76EC8EC01F00A
:1022C000C00E6F6F75EC01F0E60EF66E000EF76E45
:1022D0000A0E6E6F36DD890EE96E65C071F064C05E
:1022E00070F063C06FF062C06EF0010E726FA0DD1F
:1022F000F40EF66E000EF76E070E6E6F22DD020E04
:102300006E6FC80E706F83EC01F06E2FFAD781B834
:102310000CD096EC01F065C069F064C068F063C051
:1023200067F062C066F0020E616F615102083DE124
:10233000EED6FC0EF66E000EF76EC8EC01F0C00E85
:102340006F6F75EC01F00A0EF66E010EF76E090E56
:102350006E6FF7DC890EE96E65C071F064C070F0D5
:1023600063C06FF062C06EF0010E726F61DD170E18
:10237000F66E010EF76E060E6E6FE3DC020E6E6FE8
:10238000C80E706F83EC01F06E2FFAD781B80CD0B5
:1023900096EC01F065C06DF064C06CF063C06BF04A
:1023A00062C06AF0040E616FC0D761510408D8A4FE
:1023B0000BD1582A582C67D096EC01F0800E6F6F25
:1023C00075EC01F01E0EF66E010EF76EC8EC01F012
:1023D000C00E6F6F75EC01F0260EF66E010EF76EF3
:1023E000C8EC01F0040E6E6FFA0E706F83EC01F012
:1023F0006E2FFAD796EC01F0800E6F6F75EC01F03E
:10240000340EF66E010EF76E0B0E6E6F9ADC890EAF
:10241000E96E69C071F068C070F067C06FF066C0A7
:102420006EF0010E726F04DD430EF66E010EF76E54
:10243000080E6E6F86DCC00E6F6F75EC01F04C0EEF
:10244000F66E010EF76E0B0E6E6F7BDC890EE96E79
:102450006DC071F06CC070F06BC06FF06AC06EF050
:10246000010E726FE5DC5B0EF66E010EF76E070E65
:102470006E6F67DC0C0E6E6FFA0E706F83EC01F0FE
:102480006E2FFAD7582A96EC01F0800E6F6F75EC1C
:1024900001F0640EF66E010EF76EC8EC01F0C00E8E
:1024A0006F6F75EC01F0700EF66E010EF76EC8ECF2
:1024B00001F0040E6E6FFA0E706F83EC01F06E2F58
:1024C000FAD796EC01F0800E6F6F75EC01F07E0E7E
:1024D000F66E010EF76EC8EC01F0C00E6F6F75EC72
:1024E00001F08C0EF66E010EF76EC8EC01F0040ED2
:1024F0006E6FFA0E706F83EC01F06E2FFAD796ECC8
:1025000001F0800E6F6F75EC01F09E0EF66E010EFD
:10251000F76EC8EC01F0C00E6F6F75EC01F0AC0EF9
:10252000F66E010EF76EC8EC01F0040E6E6FFA0E37
:10253000706F83EC01F06E2FFAD796EC01F081B842
:102540001DD096EC01F0010E616F586ABA0EF66E5E
:10255000010EF76EC8EC01F0C00E6F6F75EC01F064
:10256000C80EF66E010EF76EC8EC01F00C0E6E6F21
:10257000FA0E706F83EC01F06E2FFAD781B223D080
:1025800096EC01F0800E6F6F75EC01F0D40EF66ED4
:10259000010EF76EC8EC01F0C00E6F6F75EC01F024
:1025A000E00EF66E010EF76EC8EC01F0100E6E6FC5
:1025B000FA0E706F83EC01F06E2FFAD7586A616BD8
:1025C0006085010E536EF1D672D640EF15F0F86AB1
:1025D000D09E078E316A306A2F6A2E6A356A346A55
:1025E000336A326A396A386A376A366A3D6A3C6ADF
:1025F0003B6A3A6A416A406A3F6A3E6A456A446A8F
:10260000436A426A930E4A6E260E496E140E486E55
:10261000750E476E0E0E4E6E430E4D6E750E4C6E61
:10262000720E4B6EDC0E526E540E516E3E0E506E9C
:10263000670E4F6E536A556A546A566A576A586AEB
:10264000596A010E5D6E900E5C6E010E5F6E900E0B
:102650005E6E606B616B696B686B676B666B6D6BF5
:102660006C6B6B6B6A6BC150C00B0F09C16E070EB0
:10267000B46E166A176A520E1C6E480E1D6EA00EBE
:102680001E6E1F6E206E3D0E216EA00E226E300E4D
:10269000236E246E2E0E256E300E266EA00E276E33
:1026A000250E286E296A0F0E926E920E936E000E02
:1026B000946E956E040E966E806A816A826A836A51
:1026C000846AC050C00B0209C06EC08EC280C15067
:1026D000C00B0C09C16E9DEF01F0800E6F6F75ECA1
:1026E00001F0EC0EF66E010EF76EC8EC01F0C00EB4
:1026F0006F6F75EC01F0F80EF66E010EF76EC8EC18
:1027000001F00C0E6E6FFA0E706F83EC01F06E2FFD
:10271000FAD7800E6F6F75EC01F0000EF66E020EA8
:10272000F76EC8EC01F0C00E6F6F75EC01F0100E83
:10273000F66E020EF76EC8EC01F00C0E6E6FFA0E1C
:10274000706F83EC01F06E2FFAD7C50ED56ED76A85
:10275000830ED66EC00EF212F28A532C17D096EC6E
:1027600001F0800E6F6F75EC01F01E0EF66E020E1A
:10277000F76EC8EC01F0C00E6F6F75EC01F02E0E15
:10278000F66E020EF76EC8EC01F0536A60A569D1CF
:1027900081B262D160B35FD15E5202E15F5205E067
:1027A0005E50D8B45F065E0656D196EC01F0800EFE
:1027B0006F6F75EC01F03C0EF66E020EF76EC8EC12
:1027C00001F0C00E6F6F75EC01F0460EF66E020E52
:1027D000F76EC8EC01F0080E6E6FFA0E706F83ECA6
:1027E00001F06E2FFAD7592A592C34D11CEF0CF076
:1027F00003C045F002C044F001C043F000C042F005
:102800000AEF0EF001C046F05650030803E14FEF07
:102810000EF0566A575224E1800E6F6F75EC01F08E
:10282000560EF66E020EF76EC8EC01F0C00E6F6F1A
:1028300075EC01F0660EF66E020EF76E060E6E6F08
:10284000A1EC0EF0890EE96E45C071F044C070F045
:1028500043C06FF042C06EF0020E726F18EC0FF0C2
:10286000572C1CD0800E6F6F75EC01F0700EF66E59
:10287000020EF76EC8EC01F0C00E6F6F75EC01F040
:10288000800EF66E020EF76EC8EC01F0020E6E6F4F
:10289000FA0E706F83EC01F06E2FFAD745C09DF0F1
:1028A00044C09CF043C09BF042C09AF069C0A1F0C4
:1028B00068C0A0F067C09FF066C09EF04EEC04F0C8
:1028C00001E202E18290818469C09DF068C09CF0C1
:1028D00067C09BF066C09AF045C0A1F044C0A0F06C
:1028E00043C09FF042C09EF04EEC04F002E38280B1
:1028F0008194020E6E6FFA0E706F83EC01F06E2FF2
:10290000FAD781B214D0575212E196EC01F08C0E36
:10291000F66E020EF76EC8EC01F0040E6E6FFA0E42
:10292000706F83EC01F06E2FFAD7010E576E81B2F3
:102930001FD0572C1DD096EC01F04F0E7B6FBAECD8
:1029400001F04B0E7B6FBAEC01F0C00E6F6F75ECAF
:1029500001F0980EF66E020EF76EC8EC01F0040E50
:102960006E6FFA0E706F83EC01F06E2FFAD7576A14
:1029700081B822D0572C20D08290819496EC01F01F
:10298000A20EF66E020EF76EC8EC01F0C00E6F6F6D
:1029900075EC01F0AC0EF66E020EF76EC8EC01F0AD
:1029A000040E6E6FFA0E706F83EC01F06E2FFAD783
:1029B000576A596A010E536E81B84BD0800E6F6F03
:1029C00075EC01F0BA0EF66E020EF76E0B0E6E6F1E
:1029D000A1EC0EF0890EE96E69C071F068C070F06C
:1029E00067C06FF066C06EF0010E726F18EC0FF0EA
:1029F000C90EF66E020EF76E080E6E6FA1EC0EF0A9
:102A0000C00E6F6F75EC01F0D20EF66E020EF76E0F
:102A10000B0E6E6FA1EC0EF0890EE96E6DC071F0B9
:102A20006CC070F06BC06FF06AC06EF0010E726F18
:102A300018EC0FF0E10EF66E020EF76E070E6E6FD9
:102A4000A1EC0EF0640E706F83EC01F096EC01F0D7
:102A5000B3D7CAD6608305D0010E5F6E900E5E6E4E
:102A6000609381B80FD060B10CD05C5202E15D522E
:102A700005E05C50D8B45D065C0603D036EF11F07B
:102A8000608105D0010E5D6E900E5C6E609165D622
:022A9000030041
:020000040030CA
:0E0000003FCC381E0087A1000FC00FE00F405C
:00000001FF
;PIC18F4550
;CRC=2F9C  CREATED="29-jun-17 15:27"
