:1000000024EF0CF06F6C6100849022C083FF848227
:10001000020E006E002EFED700D000008492840EE7
:10002000006E002EFED700D000001200EA6A230EF8
:10003000E96EEF500EE00C0E016E006A002EFED746
:10004000012EFBD7F70E006E002EFED700D0EF2E4C
:10005000F2D71200020E225E0BE3EA6A220EE96E6C
:10006000EF5006E0020E006E002EFED7EF2EFAD7FC
:100070004DEF00F0010E226EC7DF020E236ED6DFB9
:100080001200300E226EC0DF040E236ECFDF300E62
:10009000226EBADF640E226EDDD7300E226EB4DF20
:1000A000380E226EB1DFE6DF0C0E226EADDF060EDB
:1000B000226EAADF5DEF0CF08E0E006E53C001F0D1
:1000C00052C002F0036A015209E102C001F0026A63
:1000D000080E005E015202E1006A08D0D89001BE0D
:1000E00004D0023601360006F9D7019E12004E50A8
:1000F000D8B471D0006E5250D8B46DD0002604E34D
:10010000810E002668E204D07F0E005E64E363E0A7
:100110004FC056F05350561A4F8E538E51505502C1
:10012000F4CF58F050505402F4CF03F0F3CF57F00F
:100130005502F3505826F4505722000E0322515016
:100140005402F3505826F4505722000E026A03223C
:1001500002224F505502F3505726F4500322000E4E
:1001600002224F505402F3500326F4500222000E94
:10017000016A012251505302F3505726F4500322D2
:10018000000E0222012250505302F3500326F45075
:100190000222000E01224F505302F3500226F45067
:1001A0000122002A01BE05D0573603360236013639
:1001B0000006000E57AE0AD0032A02220122015087
:1001C00005E1025003E1035001E1002A56BE018E11
:1001D00056AE019E04D0006A016A026A036A1200E8
:1001E0004750D8B4A5D0536E4B50D8B4A1D0535E6D
:1001F00005E37F0E5326D8B09BD006D0810E535E08
:10020000D8A096D0D8B494D053C000F0016A026A46
:10021000036A526A48C051F0518E49C050F04AC03A
:100220004FF0190E536E4E504F5E0DE2010E505EB0
:100230000AE2515E08E2525E06E2522A512A502A30
:100240004E504F2628D04D50505E12E2010E515EA6
:100250000FE2525E0DE2522A512A4D5050264E5066
:100260004F2619E3502A17E1512A15E1522A13D0DB
:100270004C508009515E0EE2010E525E0BE2522A92
:100280004C50800951264D505026E9E3512AE7E1B0
:10029000522AE5D70380532E01D00BD0D8904F3689
:1002A000503651365236D89003360236013654361F
:1002B000BAD754A006D0D890013202320332543259
:1002C00002D0000635E054BE1ED0D8904F365036CE
:1002D000513652364E504F5E07E2010E505E04E238
:1002E000515E02E2525E1AE34D50505E05E2010E8D
:1002F000515E02E2525E12E34C508009515E03E20D
:10030000010E525E0BE3032A09E1022A07E1012AEA
:1003100005E1002A0DE001320232033248C053F0F9
:100320004C50531A53AE02D0018E06D0019E04D019
:10033000006A016A026A036A1200800ED8B2571A74
:100340005C6A5D6A53C05BF057505B1A5250D8B478
:10035000DCD05A6E006E5650D8B4E0D05A5ED8B495
:1003600081D03DE357C060F0608F58C05FF059C046
:100370005EF05D6AD89060335F325E325D325A2E35
:10038000F8D75BAE03D05C80DDD05C905A905C887F
:10039000EA6A550EE96EE9D05C985BBE0AD05AA0B5
:1003A00013D060335F325E325D32002AD8B4C5D0DC
:1003B0000BD060BF0CD0D8905D365E365F366037AC
:1003C0000006D8B4BAD0F5D75C8C6BD05C9C53C017
:1003D0005BF053AE02D0608FA9D0609FA7D056C00B
:1003E0005AF056C000F052505A5E53C060F0608F11
:1003F00054C05FF055C05EF05D6AD89060335F32E4
:100400005E325D325A2EF8D75BAE03D05C829AD052
:100410005C925A905C8AEA6A590EE96EA6D05C9AA0
:100420005BBE0AD05AA013D060335F325E325D32B9
:10043000002AD8B482D00BD060BF0CD0D8905D36E3
:100440005E365F3660370006D8B477D0F5D75C8E5D
:1004500028D05C9E57C05BF057AE02D0608F66D04C
:10046000609F64D057C060F0608F58C05FF059C083
:100470005EF05BAE04D0609F5C8464D05C945D6A87
:100480005A90EA6A550EE96E70D05BBE1CD053C01C
:100490005BF05AA006D060335F325E325D32002AD4
:1004A0004CE05DAE0BD05E2A09E15F2A07E1602BCC
:1004B00005E160335F325E32002A3FE05CBC86D7E4
:1004C0005CBEC7D71CD0800E601B60AF04D03AD092
:1004D00057C05BF00AD053C05BF0605306E15F5237
:1004E00004E15E5202E1006A21D060BF08D0D890DA
:1004F0005D365E365F366037002EF7D71ED05BAEB6
:1005000002D0608F13D0609F11D056C000F057C04A
:1005100060F058C05FF059C05EF008D052C000F0E3
:1005200053C060F054C05FF055C05EF060C001F091
:100530005FC002F05EC003F034D0006A016A026A54
:10054000036A2FD05D6A5E1E5F1E601F5D1E5D2AFE
:1005500005E15E2A03E15F2A01E1602B5CB015D75B
:100560005CB256D75CB48AD7B3D7EF505E2605E3AA
:100570005F2A03E1602BD8B45A80ED52EF505F261A
:1005800003E3602BD8B45A80ED52EF50EFBE01D098
:10059000800A6027D8B05A805CB8FED65CBA3FD7D4
:1005A00074D712004FC056F05350561A56AE05D0AD
:1005B000D894D8904FBED8802FD04FC056F052C09C
:1005C00057F04E50575E06E056AE26D0D850010A7E
:1005D000D86E22D053C057F04F50575E06E056AE4B
:1005E0001BD0D850010AD86E17D054C057F05050C5
:1005F000575E06E056AE10D0D850010AD86E0CD027
:1006000055C057F05150575E06E056AE05D0D85051
:10061000010AD86E01D0D89012008E0E006E45C02F
:1006200001F044C002F0036A45AE05D0011E021E6F
:10063000022A01E1012A015209E102C001F0026A25
:10064000080E005E015202E1006A0AD0D89001BE95
:1006500004D0023601360006F9D745BE01D0019E0E
:10066000120031C035F030C034F02FC033F02EC04E
:1006700032F035C051F034C050F033C04FF032C0CA
:100680004EF0556A546A536A7F0E526E8BDFD8B4AF
:100690007BD1446A320EE96E44C0EAFF7E0EEF6EF3
:1006A000D88235C055F034C054F033C053F032C056
:1006B00052F0596A586A576A7F0E566E3EDE03C082
:1006C00046F002C045F001C044F000C043F0D892AB
:1006D00035C055F034C054F033C053F032C052F03E
:1006E000596A586A576A7F0E566E27DE46C04AF02E
:1006F00045C049F044C048F043C047F003C04EF045
:1007000002C04DF001C04CF000C04BF069DD03C0E9
:1007100035F002C034F001C033F000C032F035C013
:1007200051F034C050F033C04FF032C04EF035C0FD
:1007300055F034C054F033C053F032C052F0D7DC1F
:1007400003C041F002C040F001C03FF000C03EF0E5
:10075000990E516E470E506E8A0E4F6E7F0E4E6E82
:1007600041C055F040C054F03FC053F03EC052F07D
:10077000BEDC03C046F002C045F001C044F000C03A
:1007800043F0D89203C055F002C054F001C053F0BA
:1007900000C052F0596A586A576A800E566ECDDD15
:1007A00003C039F002C038F001C037F000C036F0A5
:1007B0004C0E516EF30E506E3A0E4F6E7B0E4E6E17
:1007C00041C055F040C054F03FC053F03EC052F01D
:1007D0008EDC03C046F002C045F001C044F000C00A
:1007E00043F0D89203C055F002C054F001C053F05A
:1007F00000C052F02B0E596E9D0E586EDF0E576ED4
:100800007E0E566E9ADD03C03DF002C03CF001C082
:100810003BF000C03AF03DC051F03CC050F03BC04E
:100820004FF03AC04EF041C055F040C054F03FC0C8
:1008300053F03EC052F05BDC03C046F002C045F00E
:1008400001C044F000C043F0D89203C055F002C08C
:1008500054F001C053F000C052F0596A586A576A08
:100860007F0E566E6ADD03C03DF002C03CF001C051
:100870003BF000C03AF035C051F034C050F033C006
:100880004FF032C04EF039C055F038C054F037C088
:1008900053F036C052F02BDC03C046F002C045F0E6
:1008A00001C044F000C043F003C04AF002C049F068
:1008B00001C048F000C047F03DC04EF03CC04DF0D4
:1008C0003BC04CF03AC04BF08BDC03C039F002C0A7
:1008D00038F001C037F000C036F0446A2E0EE96EE1
:1008E00044C0EAFF7E0EEF5C426E42AE12D0000EB4
:1008F000D8804254456A446E44BE45068EDE00C030
:100900003AF00150800A3B6E02C03CF003C03DF05B
:100910000ED0456A42C044F044BE45067EDE03C0A8
:100920003DF002C03CF001C03BF000C03AF03DC0D9
:1009300051F03CC050F03BC04FF03AC04EF0180EA2
:10094000556E720E546E310E536E7E0E526E77ECF3
:1009500000F0D89239C055F038C054F037C053F089
:1009600036C052F003C059F002C058F001C057F031
:1009700000C056F0E2DC03C039F002C038F001C01C
:1009800037F000C036F004D0396A386A376A366A00
:1009900036C000F037C001F038C002F039C003F0B3
:1009A00012008E0E006E4E50005E4FC002F050C01E
:1009B00001F0028E005209E0D890025202E1015289
:1009C00004E002320132002EF7D74FAE05D0011EEF
:1009D000021E012AD8B4022A12004D9041C046F0EE
:1009E00040C045F03FC044F03EC043F041C051F02C
:1009F00040C050F03FC04FF03EC04EF0556A546AC0
:100A0000536A526ACFDD04E34D804450800A446E3D
:100A100046C051F045C050F044C04FF043C04EF0C6
:100A2000556A546A536A8E0E526EBCDD01E218E1BB
:100A300046C051F045C050F044C04FF043C04EF0A6
:100A4000B0DF02C053F001C052F05CEC00F003C014
:100A50004AF002C049F001C048F000C047F0C5D0DC
:100A600046C051F045C050F044C04FF043C04EF076
:100A7000800E556E960E546E180E536E960E526E74
:100A800091DDD8A0AAD046C051F045C050F044C076
:100A90004FF043C04EF0556A546A536A700E526E5E
:100AA00077EC00F003C051F002C050F001C04FF0ED
:100AB00000C04EF076DF02C04CF001C04BF046C0E3
:100AC00051F045C050F044C04FF043C04EF0556A5D
:100AD000546A536A700E526E77EC00F003C051F006
:100AE00002C050F001C04FF000C04EF04CC053F0B7
:100AF0004BC052F05CEC00F0D88251C055F050C0B1
:100B000054F04FC053F04EC052F003C059F002C031
:100B100058F001C057F000C056F00FDC516A506A1F
:100B20004F6A8E0E4E6E03C055F002C054F001C0E5
:100B300053F000C052F077EC00F003C046F002C062
:100B400045F001C044F000C043F04CC053F04BC02E
:100B500052F05CEC00F0516A506A4F6A8E0E4E6E95
:100B600003C055F002C054F001C053F000C052F071
:100B700077EC00F003C04AF002C049F001C048F031
:100B800000C047F046C051F045C050F044C04FF09F
:100B900043C04EF006DF02C053F001C052F05CECDF
:100BA00000F0D8924AC055F049C054F048C053F004
:100BB00047C052F003C059F002C058F001C057F0CE
:100BC00000C056F09DEC01F003C04AF002C049F0AD
:100BD00001C048F000C047F008D046C04AF045C008
:100BE00049F044C048F043C047F046C051F045C00A
:100BF00050F044C04FF043C04EF0D3DE02C053F07B
:100C000001C052F05CEC00F0D88246C055F045C0FF
:100C100054F044C053F043C052F003C059F002C036
:100C200058F001C057F000C056F09DEC01F003C031
:100C300046F002C045F001C044F000C043F04DA0B2
:100C400003D04850800A486E46C051F045C050F06D
:100C500044C04FF043C04EF0556A546A536A526A1A
:100C6000A1DC38E04DA01AD0425218E1D8824AC027
:100C700055F049C054F048C053F047C052F0596A8B
:100C8000586A576A7F0E566E9DEC01F003C04AF019
:100C900002C049F001C048F000C047F04DB01AD082
:100CA000422C18D0D8924AC055F049C054F048C0E0
:100CB00053F047C052F0596A586A576A7F0E566E11
:100CC0009DEC01F003C04AF002C049F001C048F0B9
:100CD00000C047F041C051F040C050F03FC04FF05D
:100CE0003EC04EF0556A546A536A526A5BDC04E1B6
:100CF0004A6A496A486A476A47C000F048C001F03A
:100D000049C002F04AC003F012003DC041F03CC0AF
:100D100040F03BC03FF03AC03EF0010E426E5DDE57
:100D2000F9EF06F03DC041F03CC040F03BC03FF061
:100D30003AC03EF0426A51DE1DEF07F031C051F07B
:100D400030C050F02FC04FF02EC04EF0556A546A9C
:100D5000536A526A27DCD8B49ED02DC04AF02CC00A
:100D600049F02BC048F02AC047F031C04EF030C0E7
:100D70004DF02FC04CF02EC04BF0F0EC00F003C053
:100D800039F002C038F001C037F000C036F003C0BF
:100D900051F002C050F001C04FF000C04EF0556A53
:100DA000546A536A526AD2EC02F024E32DC04AF02E
:100DB0002CC049F02BC048F02AC047F031C04EF09B
:100DC00030C04DF02FC04CF02EC04BF0F0EC00F0D6
:100DD00003C039F002C038F001C037F000C036F06F
:100DE00003C03DF002C03CF001C03BF000C03AF04F
:100DF0008CD723D02DC04AF02CC049F02BC048F02E
:100E00002AC047F031C04EF030C04DF02FC04CF03A
:100E10002EC04BF0F0EC00F003C039F002C038F007
:100E200001C037F000C036F003C03DF002C03CF016
:100E300001C03BF000C03AF075D703C035F002C0E6
:100E400034F001C033F000C032F035C051F034C08E
:100E500050F033C04FF032C04EF031C055F030C0CA
:100E600054F02FC053F02EC052F077EC00F0D8822F
:100E70002DC055F02CC054F02BC053F02AC052F0B6
:100E800003C059F002C058F001C057F000C056F03E
:100E90009DEC01F000D0120031C051F030C050F094
:100EA0002FC04FF02EC04EF03B0E556EAA0E546E62
:100EB000380E536E7F0E526E77EC00F003C051F087
:100EC00002C050F001C04FF000C04EF06ADD01C01A
:100ED0003EF03F9031C035F030C034F02FC033F0D9
:100EE0002EC032F031C051F030C050F02FC04FF062
:100EF0002EC04EF0556A546A536A526AD2EC02F020
:100F000005E33F803E6C3350800A336E396A386A9D
:100F1000376A366A416A360EE96E41C0EAFF7F0ED3
:100F20003E24EF6E35C051F034C050F033C04FF066
:100F300032C04EF03B0E556EAA0E546E380E536EF4
:100F40007F0E526E77EC00F003C043F002C042F017
:100F500001C041F000C040F0456A3EC044F044BECC
:100F600045060DEC03F0D88243C055F042C054F062
:100F700041C053F040C052F003C059F002C058F0D5
:100F800001C057F000C056F09DEC01F003C035F0F1
:100F900002C034F001C033F000C032F07C0E516E5C
:100FA000880E506E590E4F6E720E4E6E35C055F053
:100FB00034C054F033C053F032C052F077EC00F03C
:100FC00003C043F002C042F001C041F000C040F055
:100FD000D89203C055F002C054F001C053F000C0D5
:100FE00052F0E00E596E970E586E260E576E750E23
:100FF000566E9DEC01F003C03DF002C03CF001C014
:101000003BF000C03AF03DC051F03CC050F03BC056
:101010004FF03AC04EF035C055F034C054F033C0F4
:1010200053F032C052F077EC00F003C043F002C03E
:1010300042F001C041F000C040F0D89203C055F02A
:1010400002C054F001C053F000C052F0C40E596EFB
:101050001D0E586E1E0E576E780E566E9DEC01F0EA
:1010600003C03DF002C03CF001C03BF000C03AF0CC
:101070003DC051F03CC050F03BC04FF03AC04EF084
:1010800035C055F034C054F033C053F032C052F084
:1010900077EC00F003C043F002C042F001C041F021
:1010A00000C040F0D89203C055F002C054F001C017
:1010B00053F000C052F05E0E596E500E586E630E23
:1010C000576E7A0E566E9DEC01F003C03DF002C0E3
:1010D0003CF001C03BF000C03AF03DC051F03CC0D4
:1010E00050F03BC04FF03AC04EF035C055F034C020
:1010F00054F033C053F032C052F077EC00F003C02C
:1011000043F002C042F001C041F000C040F0D8926C
:1011100003C055F002C054F001C053F000C052F0BB
:101120001A0E596EFE0E586E750E576E7C0E566E68
:101130009DEC01F003C03DF002C03CF001C03BF06B
:1011400000C03AF03DC051F03CC050F03BC04FF001
:101150003AC04EF035C055F034C054F033C053F0AF
:1011600032C052F077EC00F003C043F002C042F00E
:1011700001C041F000C040F0D89203C055F002C059
:1011800054F001C053F000C052F0180E596E720EA8
:10119000586E310E576E7E0E566E9DEC01F003C0F8
:1011A0003DF002C03CF001C03BF000C03AF035C059
:1011B00051F034C050F033C04FF032C04EF03DC05B
:1011C00055F03CC054F03BC053F03AC052F077ECBD
:1011D00000F0D892556A546A536A7F0E526E03C06B
:1011E00059F002C058F001C057F000C056F09DEC15
:1011F00001F039C051F038C050F037C04FF036C060
:101200004EF003C055F002C054F001C053F000C0CE
:1012100052F077EC00F003C039F002C038F001C0A2
:1012200037F000C036F03FA017D04A6A496A486AD2
:101230007F0E476E39C04EF038C04DF037C04CF0CD
:1012400036C04BF0F0EC00F003C039F002C038F0CB
:1012500001C037F000C036F036C000F037C001F0F2
:1012600038C002F039C003F0120025C051F024C08C
:1012700050F023C04FF022C04EF0556A546A536AB2
:10128000526AD2EC02F0D8A0CBD029C02DF028C0F1
:101290002CF027C02BF026C02AF0316A306A2F6A62
:1012A0007F0E2E6E4BDD03C02DF002C02CF001C06E
:1012B0002BF000C02AF003C051F002C050F001C072
:1012C0004FF000C04EF0556A546A536A526AD2EC2D
:1012D00002F0D8A4A5D029C02DF028C02CF027C03A
:1012E0002BF026C02AF0316A306A2F6A800E2E6EEB
:1012F00025DD03C02DF002C02CF001C02BF000C092
:101300002AF003C051F002C050F001C04FF000C0FD
:101310004EF0556A546A536A526AD2EC02F03FE1C9
:1013200022C02AF02350800A2B6E24C02CF025C046
:101330002DF025C031F024C030F02F6E22C02EF0E9
:1013400031EC03F003C02DF002C02CF001C02BF0F3
:1013500000C02AF003C051F002C050F001C04FF0AD
:1013600000C04EF029C055F028C054F027C053F0FB
:1013700026C052F077EC00F003C02DF002C02CF034
:1013800001C02BF000C02AF003C031F002C030F0E1
:1013900001C02FF000C02EF07FDDD0D040D022C0A1
:1013A0002AF02350800A2B6E24C02CF025C02DF08B
:1013B00025C031F024C030F02F6E22C02EF031EC69
:1013C00003F003C02DF002C02CF001C02BF000C0D0
:1013D0002AF003C051F002C050F001C04FF000C02D
:1013E0004EF029C055F028C054F027C053F026C055
:1013F00052F077EC00F003C02DF002C02CF001C0D9
:101400002BF000C02AF003C031F002C030F001C060
:101410002FF000C02EF040DD800E011A8FD08ED04C
:1014200025C051F024C050F023C04FF022C04EF030
:10143000556A546A536A526AD2EC02F02BE329C00F
:101440002DF028C02CF027C02BF026C02AF0316ADE
:10145000306A2F6A7F0E2E6E71DC03C02DF002C041
:101460002CF001C02BF000C02AF003C051F002C0E4
:1014700050F001C04FF000C04EF0556A546A536AF4
:10148000526AD2EC02F006E0006A016A026A036A5C
:1014900055D054D025C051F024C050F023C04FF097
:1014A00022C04EF0556A546A536A526AD2EC02F076
:1014B00010E129C051F028C050F027C04FF026C0DD
:1014C0004EF0556A546A536A526AD2EC02F001E255
:1014D00035E125C031F024C030F023C02FF022C008
:1014E0002EF031EC03F003C02DF002C02CF001C04F
:1014F0002BF000C02AF003C051F002C050F001C030
:101500004FF000C04EF029C055F028C054F027C05D
:1015100053F026C052F077EC00F003C02DF002C06B
:101520002CF001C02BF000C02AF003C031F002C043
:1015300030F001C02FF000C02EF0AEDC6CEF0BF0ED
:10154000000E016EC250C30B0110C26E200E006E61
:10155000002EFED700D00000C282C2B2FED7C45017
:10156000536A526E5CEC00F003C00DF002C00CF048
:1015700001C00BF000C00AF00DC051F00CC050F0DB
:101580000BC04FF00AC04EF0556A546A200E536EDD
:10159000810E526E77EC00F003C00DF002C00CF02B
:1015A00001C00BF000C00AF00DC04AF00CC049F0B9
:1015B0000BC048F00AC047F04E6AC00E4D6E7F0E59
:1015C0004C6E880E4B6EF0EC00F003C00DF002C0C4
:1015D0000CF001C00BF000C00AF04A6AE80E496E38
:1015E000486A8E0E476E0DC04EF00CC04DF00BC019
:1015F0004CF00AC04BF0F0EC00F003C011F002C058
:1016000010F001C00FF000C00EF0D88211C055F0EC
:1016100010C054F00FC053F00EC052F0596A400E83
:10162000586E1C0E576E8C0E566E9DEC01F003C06A
:1016300011F002C010F001C00FF000C00EF011C098
:1016400031F010C030F00FC02FF00EC02EF031EC92
:1016500003F003C015F002C014F001C013F000C085
:1016600012F015C051F014C050F013C04FF012C06A
:101670004EF00E0E556E430E546E750E536E720E76
:10168000526E77EC00F003C015F002C014F001C0F8
:1016900013F000C012F011C031F010C030F00FC0D4
:1016A0002FF00EC02EF031EC03F003C019F002C091
:1016B00018F001C017F000C016F019C025F018C0CE
:1016C00024F017C023F016C022F0296A286A400EC1
:1016D000276E800E266EC9D503C019F002C018F01F
:1016E00001C017F000C016F019C051F018C050F03A
:1016F00017C04FF016C04EF0DC0E556E540E546EEF
:101700003E0E536E670E526E77EC00F003C019F078
:1017100002C018F001C017F000C016F0D892930E66
:10172000556E260E546E140E536E750E526E15C005
:1017300059F014C058F013C057F012C056F09DEC89
:1017400001F003C025F002C024F001C023F000C066
:1017500022F0D89203C055F002C054F001C053F0FB
:1017600000C052F019C059F018C058F017C057F017
:1017700016C056F09DEC01F003C01DF002C01CF035
:1017800001C01BF000C01AF04A6A496A486A7F0E1D
:10179000476E1DC04EF01CC04DF01BC04CF01AC06F
:1017A0004BF0F0EC00F003C01DF002C01CF001C0D3
:1017B0001BF000C01AF0D8821DC055F01CC054F0B8
:1017C0001BC053F01AC052F0330E596E930E586E70
:1017D000080E576E870E566E9DEC01F003C01DF08B
:1017E00002C01CF001C01BF000C01AF01AC000F0CB
:1017F0001BC001F01CC002F01DC003F05EEF0CF036
:10180000848024C083FF8482020E006E002EFED7E7
:1018100000D000008492840E006E002EFED700D00F
:1018200000001DEF0CF00900F5520CE0F6CF22F09D
:10183000F7CF23F0F5CF24F0E3D722C0F6FF23C083
:10184000F7FFF1D76FEF0CF0F86AD09E0D6A0C6AC3
:101850000B6A0A6A116A106A0F6A0E6A156A146ABC
:10186000136A126A196A186A176A166A1D6A1C6A6C
:101870001B6A1A6AC150C00B0F09C16E070EB46E05
:10188000046A056AC050C00B0709C06EC09EC280C2
:10189000C150C00B0B09C16E0F0E926EC00E936E3D
:1018A000FF0E946E000E956E040E966E806A816A2D
:1018B000826A836A846A41EF00F042D603C021F055
:1018C00002C020F001C01FF000C01EF0830E226E87
:1018D00004EC00F0040EF66E000EF76EA4D7040EB2
:1018E000226EFA0E236E16EC00F0222EFAD73AEC96
:1018F00000F0040E226EFA0E236E16EC00F0222E7B
:10190000FAD721C051F020C050F01FC04FF01EC0C8
:101910004EF0556A546A180E536E840E526ED2EC15
:1019200002F001E202E1819E8184516A506A180E40
:101930004F6E840E4E6E21C055F020C054F01FC073
:1019400053F01EC052F0D2EC02F002E3818E81947B
:10195000080E226EFA0E236E16EC00F0222EFAD735
:04196000ACD70300FD
:020000040030CA
:0E0000003FC0381E0087A1000FC00FE00F4068
:00000001FF
;PIC18F4550
;CRC=0D55  CREATED="21-jun-17 19:52"
