:04000000F0EF0BF022
:08000800046ED8CF05F0E0CF33
:1000100006F00001E9CF0CF0EACF07F0E1CF08F0DD
:10002000E2CF09F0D9CF0AF0DACF0BF0F3CF12F01C
:10003000F4CF13F0FACF14F000C00EF001C00FF0AF
:1000400002C010F003C011F0F2AA2AEF00F0F2B4DF
:1000500095EF0AF09DA030EF00F09EB0EDEF0BF0B1
:100060000EC000F00FC001F010C002F011C003F08C
:100070000CC0E9FF07C0EAFF078E08C0E1FF09C016
:10008000E2FF0AC0D9FF0BC0DAFF12C0F3FF13C0B2
:10009000F4FF14C0FAFF045006C0E0FF05C0D8FF0B
:1000A00010008E0E006E61C001F060C002F0036AA5
:1000B000015209E102C001F0026A080E005E01521D
:1000C00002E1006A08D0D89001BE04D002360136A1
:1000D0000006F9D7019E12005C50D8B471D0006EB2
:1000E0006051D8B46DD0002604E3810E002668E28A
:1000F00004D07F0E005E64E363E05DC064F0615194
:10010000641B5D8E618F5F506303F4CF66F05E50B9
:100110006203F4CF03F0F3CF65F06303F350662777
:10012000F4506523000E03225F506203F3506627EC
:10013000F4506523000E026A032202225D5063031D
:10014000F3506527F4500322000E02225D50620333
:10015000F3500326F4500222000E016A01225F5080
:100160006103F3506527F4500322000E022201229E
:100170005E506103F3500326F4500222000E012268
:100180005D506103F3500226F4500122002A01BEA3
:1001900005D065370336023601360006000E65AF1E
:1001A0000AD0032A02220122015005E1025003E194
:1001B000035001E1002A64BF018E64AF019E04D0A8
:1001C000006A016A026A036A12005550D8B4A5D0C9
:1001D000616F5950D8B4A1D0615F05E37F0E6127EC
:1001E000D8B09BD006D0810E615FD8A096D0D8B48D
:1001F00094D061C000F0016A026A036A606B56C065
:100200005FF05F8E57C05EF058C05DF0190E616FF1
:100210005C505D5E0DE2010E5E5E0AE25F5E08E22A
:10022000605F06E2602B5F2A5E2A5C505D2628D064
:100230005B505E5E12E2010E5F5E0FE2605F0DE2F8
:10024000602B5F2A5B505E265C505D2619E35E2AB8
:1002500017E15F2A15E1602B13D05A5080095F5EC9
:100260000EE2010E605F0BE2602B5A5080095F26A0
:100270005B505E26E9E35F2AE7E1602BE5D7038068
:10028000612F01D00BD0D8905D365E365F36603777
:10029000D8900336023601366237BAD762A106D04B
:1002A000D890013202320332623302D0000635E0C8
:1002B00062BF1ED0D8905D365E365F3660375C50C8
:1002C0005D5E07E2010E5E5E04E25F5E02E2605F79
:1002D0001AE35B505E5E05E2010E5F5E02E2605F64
:1002E00012E35A5080095F5E03E2010E605F0BE388
:1002F000032A09E1022A07E1012A05E1002A0DE0AB
:1003000001320232033256C061F05A50611B61AFB4
:1003100002D0018E06D0019E04D0006A016A026AF2
:10032000036A1200800ED8B2651B6A6B6B6B61C0EA
:1003300069F06551691B6051D8B4DCD0686F006EFC
:100340006451D8B4E0D0685FD8B481D03DE365C0D3
:100350006EF06E8F66C06DF067C06CF06B6BD890FE
:100360006E336D336C336B33682FF8D769AF03D0BE
:100370006A81DDD06A9168916A89EA6A630EE96EE2
:10038000E9D06A9969BF0AD068A113D06E336D3382
:100390006C336B33002AD8B4C5D00BD06EBF0CD0F1
:1003A000D8906B376C376D376E370006D8B4BAD03B
:1003B000F5D76A8D6BD06A9D61C069F061AF02D0DC
:1003C0006E8FA9D06E9FA7D064C068F064C000F0A3
:1003D0006051685F61C06EF06E8F62C06DF063C087
:1003E0006CF06B6BD8906E336D336C336B33682F5E
:1003F000F8D769AF03D06A839AD06A9368916A8B01
:10040000EA6A670EE96EA6D06A9B69BF0AD068A146
:1004100013D06E336D336C336B33002AD8B482D073
:100420000BD06EBF0CD0D8906B376C376D376E37F2
:100430000006D8B477D0F5D76A8F28D06A9F65C0F8
:1004400069F065AF02D06E8F66D06E9F64D065C0D4
:100450006EF06E8F66C06DF067C06CF069AF04D04F
:100460006E9F6A8564D06A956B6B6891EA6A630EC9
:10047000E96E70D069BF1CD061C069F068A106D078
:100480006E336D336C336B33002A4CE06BAF0BD0A3
:100490006C2B09E16D2B07E16E2B05E16E336D339B
:1004A0006C33002A3FE06ABD86D76ABFC7D71CD02D
:1004B000800E6E1B6EAF04D03AD065C069F00AD0D2
:1004C00061C069F06E5306E16D5304E16C5302E1C3
:1004D000006A21D06EBF08D0D8906B376C376D376B
:1004E0006E37002EF7D71ED069AF02D06E8F13D0B3
:1004F0006E9F11D064C000F065C06EF066C06DF0F4
:1005000067C06CF008D060C000F061C06EF062C0DF
:100510006DF063C06CF06EC001F06DC002F06CC095
:1005200003F034D0006A016A026A036A2FD06B6B51
:100530006C1F6D1F6E1F6B1F6B2B05E16C2B03E196
:100540006D2B01E16E2B6AB115D76AB356D76AB528
:100550008AD7B3D7EF506C2705E36D2B03E16E2BE1
:10056000D8B46881ED52EF506D2703E36E2BD8B4F9
:100570006881ED52EF50EFBE01D0800A6E27D8B0EF
:1005800068816AB9FED66ABB3FD774D712005DC0D6
:1005900064F06151641B64AF05D0D894D8905DBEFF
:1005A000D8802FD05DC064F060C065F05C50655F9E
:1005B00006E064AF26D0D850010AD86E22D061C0C0
:1005C00065F05D50655F06E064AF1BD0D850010A4E
:1005D000D86E17D062C065F05E50655F06E064AF0C
:1005E00010D0D850010AD86E0CD063C065F05F50AF
:1005F000655F06E064AF05D0D850010AD86E01D01F
:10060000D89012008E0E006E53C001F052C002F05E
:10061000036A53AE05D0011E021E022A01E1012A1F
:10062000015209E102C001F0026A080E005E0152A7
:1006300002E1006A0AD0D89001BE04D00236013629
:100640000006F9D753BE01D0019E12003FC043F00F
:100650003EC042F03DC041F03CC040F043C05FF0BE
:1006600042C05EF041C05DF040C05CF0636B626B05
:10067000616B7F0E606F8BDFD8B47BD1526A400E06
:10068000E96E52C0EAFF7E0EEF6ED88243C063F07F
:1006900042C062F041C061F040C060F0676B666BC1
:1006A000656B7F0E646F3EDE03C054F002C053F0F2
:1006B00001C052F000C051F0D89243C063F042C074
:1006C00062F041C061F040C060F0676B666B656BC3
:1006D0007F0E646F27DE54C058F053C057F052C0ED
:1006E00056F051C055F003C05CF002C05BF001C091
:1006F0005AF000C059F069DD03C043F002C042F077
:1007000001C041F000C040F043C05FF042C05EF065
:1007100041C05DF040C05CF043C063F042C062F095
:1007200041C061F040C060F0D7DC03C04FF002C0B0
:100730004EF001C04DF000C04CF0990E5F6E470EB8
:100740005E6E8A0E5D6E7F0E5C6E4FC063F04EC0B3
:1007500062F04DC061F04CC060F0BEDC03C054F0EC
:1007600002C053F001C052F000C051F0D89203C053
:1007700063F002C062F001C061F000C060F0676B1E
:10078000666B656B800E646FCDDD03C047F002C001
:1007900046F001C045F000C044F04C0E5F6EF30E11
:1007A0005E6E3A0E5D6E7B0E5C6E4FC063F04EC0A7
:1007B00062F04DC061F04CC060F08EDC03C054F0BC
:1007C00002C053F001C052F000C051F0D89203C0F3
:1007D00063F002C062F001C061F000C060F02B0E57
:1007E000676F9D0E666FDF0E656F7E0E646F9ADD1C
:1007F00003C04BF002C04AF001C049F000C048F00D
:100800004BC05FF04AC05EF049C05DF048C05CF08C
:100810004FC063F04EC062F04DC061F04CC060F05C
:100820005BDC03C054F002C053F001C052F000C0C2
:1008300051F0D89203C063F002C062F001C061F0D1
:1008400000C060F0676B666B656B7F0E646F6ADD7E
:1008500003C04BF002C04AF001C049F000C048F0AC
:1008600043C05FF042C05EF041C05DF040C05CF04C
:1008700047C063F046C062F045C061F044C060F01C
:100880002BDC03C054F002C053F001C052F000C092
:1008900051F003C058F002C057F001C056F000C03C
:1008A00055F04BC05CF04AC05BF049C05AF048C0FC
:1008B00059F08BDC03C047F002C046F001C045F0A0
:1008C00000C044F0526A3C0EE96E52C0EAFF7E0E50
:1008D000EF5C506E50AE12D0000ED8805054536A68
:1008E000526E52BE53068EDE00C048F00150800AA0
:1008F000496E02C04AF003C04BF00ED0536A50C09C
:1009000052F052BE53067EDE03C04BF002C04AF0E6
:1009100001C049F000C048F04BC05FF04AC05EF033
:1009200049C05DF048C05CF0180E636F720E626FD4
:10093000310E616F7E0E606F6CEC00F0D89247C094
:1009400063F046C062F045C061F044C060F003C08F
:1009500067F002C066F001C065F000C064F0E2DC40
:1009600003C047F002C046F001C045F000C044F0AB
:1009700004D0476A466A456A446A44C000F045C0EC
:1009800001F046C002F047C003F012008E0E006E68
:100990005C50005E5DC002F05EC001F0028E00524D
:1009A00009E0D890025202E1015204E00232013221
:1009B000002EF7D75DAE05D0011E021E012AD8B465
:1009C000022A12005B904FC054F04EC053F04DC04D
:1009D00052F04CC051F04FC05FF04EC05EF04DC0C1
:1009E0005DF04CC05CF0636B626B616B606BCFDD84
:1009F00004E35B805250800A526E54C05FF053C0D3
:100A00005EF052C05DF051C05CF0636B626B616B75
:100A10008E0E606FBCDD01E218E154C05FF053C080
:100A20005EF052C05DF051C05CF0B0DF02C061F01A
:100A300001C060F051EC00F003C058F002C057F064
:100A400001C056F000C055F0C5D054C05FF053C08F
:100A50005EF052C05DF051C05CF0800E636F960E88
:100A6000626F180E616F960E606F91DDD8A0AAD0EC
:100A700054C05FF053C05EF052C05DF051C05CF0F6
:100A8000636B626B616B700E606F6CEC00F003C0A7
:100A90005FF002C05EF001C05DF000C05CF076DF88
:100AA00002C05AF001C059F054C05FF053C05EF06C
:100AB00052C05DF051C05CF0636B626B616B700E95
:100AC000606F6CEC00F003C05FF002C05EF001C02C
:100AD0005DF000C05CF05AC061F059C060F051ECAC
:100AE00000F0D8825FC063F05EC062F05DC061F06C
:100AF0005CC060F003C067F002C066F001C065F042
:100B000000C064F00FDC5F6A5E6A5D6A8E0E5C6E28
:100B100003C063F002C062F001C061F000C060F089
:100B20006CEC00F003C054F002C053F001C052F06E
:100B300000C051F05AC061F059C060F051EC00F0B3
:100B40005F6A5E6A5D6A8E0E5C6E03C063F002C00F
:100B500062F001C061F000C060F06CEC00F003C016
:100B600058F002C057F001C056F000C055F054C014
:100B70005FF053C05EF052C05DF051C05CF006DF24
:100B800002C061F001C060F051EC00F0D89258C092
:100B900063F057C062F056C061F055C060F003C00A
:100BA00067F002C066F001C065F000C064F092EC2E
:100BB00001F003C058F002C057F001C056F000C069
:100BC00055F008D054C058F053C057F052C056F0FA
:100BD00051C055F054C05FF053C05EF052C05DF09C
:100BE00051C05CF0D3DE02C061F001C060F051EC96
:100BF00000F0D88254C063F053C062F052C061F07C
:100C000051C060F003C067F002C066F001C065F03B
:100C100000C064F092EC01F003C054F002C053F045
:100C200001C052F000C051F05BA003D05650800AC2
:100C3000566E54C05FF053C05EF052C05DF051C0BC
:100C40005CF0636B626B616B606BA1DC38E05BA096
:100C50001AD0505218E1D88258C063F057C062F0E1
:100C600056C061F055C060F0676B666B656B7F0EB8
:100C7000646F92EC01F003C058F002C057F001C05D
:100C800056F000C055F05BB01AD0502C18D0D89256
:100C900058C063F057C062F056C061F055C060F0B4
:100CA000676B666B656B7F0E646F92EC01F003C03F
:100CB00058F002C057F001C056F000C055F04FC0C8
:100CC0005FF04EC05EF04DC05DF04CC05CF0636BF9
:100CD000626B616B606B5BDC04E1586A576A566A51
:100CE000556A55C000F056C001F057C002F058C018
:100CF00003F012004BC04FF04AC04EF049C04DF017
:100D000048C04CF0010E506E5DDEEEEF06F04BC0B9
:100D10004FF04AC04EF049C04DF048C04CF0506A08
:100D200051DE12EF07F03FC05FF03EC05EF03DC005
:100D30005DF03CC05CF0636B626B616B606B27DCE9
:100D4000D8B49ED03BC058F03AC057F039C056F0E6
:100D500038C055F03FC05CF03EC05BF03DC05AF07B
:100D60003CC059F0E5EC00F003C047F002C046F08B
:100D700001C045F000C044F003C05FF002C05EF067
:100D800001C05DF000C05CF0636B626B616B606B17
:100D9000C7EC02F024E33BC058F03AC057F039C02A
:100DA00056F038C055F03FC05CF03EC05BF03DC02F
:100DB0005AF03CC059F0E5EC00F003C047F002C027
:100DC00046F001C045F000C044F003C04BF002C043
:100DD0004AF001C049F000C048F08CD723D03BC096
:100DE00058F03AC057F039C056F038C055F03FC0FF
:100DF0005CF03EC05BF03DC05AF03CC059F0E5EC01
:100E000000F003C047F002C046F001C045F000C04A
:100E100044F003C04BF002C04AF001C049F000C0EA
:100E200048F075D703C043F002C042F001C041F062
:100E300000C040F043C05FF042C05EF041C05DF0D2
:100E400040C05CF03FC063F03EC062F03DC061F066
:100E50003CC060F06CEC00F0D8823BC063F03AC05C
:100E600062F039C061F038C060F003C067F002C0C2
:100E700066F001C065F000C064F092EC01F000D0B3
:100E800012003FC05FF03EC05EF03DC05DF03CC070
:100E90005CF03B0E636FAA0E626F380E616F7F0EBF
:100EA000606F6CEC00F003C05FF002C05EF001C048
:100EB0005DF000C05CF06ADD01C04CF04D903FC0B9
:100EC00043F03EC042F03DC041F03CC040F03FC066
:100ED0005FF03EC05EF03DC05DF03CC05CF0636B17
:100EE000626B616B606BC7EC02F005E34D804C6C8C
:100EF0004150800A416E476A466A456A446A4F6AB1
:100F0000440EE96E4FC0EAFF7F0E4C24EF6E43C0E3
:100F10005FF042C05EF041C05DF040C05CF03B0E4F
:100F2000636FAA0E626F380E616F7F0E606F6CEC9C
:100F300000F003C051F002C050F001C04FF000C0FB
:100F40004EF0536A4CC052F052BE530602EC03F00E
:100F5000D88251C063F050C062F04FC061F04EC003
:100F600060F003C067F002C066F001C065F000C029
:100F700064F092EC01F003C043F002C042F001C003
:100F800041F000C040F07C0E5F6E880E5E6E590E20
:100F90005D6E720E5C6E43C063F042C062F041C091
:100FA00061F040C060F06CEC00F003C051F002C092
:100FB00050F001C04FF000C04EF0D89203C063F073
:100FC00002C062F001C061F000C060F0E00E676F27
:100FD000970E666F260E656F750E646F92EC01F0CA
:100FE00003C04BF002C04AF001C049F000C048F015
:100FF0004BC05FF04AC05EF049C05DF048C05CF095
:1010000043C063F042C062F041C061F040C060F094
:101010006CEC00F003C051F002C050F001C04FF082
:1010200000C04EF0D89203C063F002C062F001C06D
:1010300061F000C060F0C40E676F1D0E666F1E0E7B
:10104000656F780E646F92EC01F003C04BF002C044
:101050004AF001C049F000C048F04BC05FF04AC000
:101060005EF049C05DF048C05CF043C063F042C030
:1010700062F041C061F040C060F06CEC00F003C071
:1010800051F002C050F001C04FF000C04EF0D892B5
:1010900003C063F002C062F001C061F000C060F004
:1010A0005E0E676F500E666F630E656F7A0E646F2B
:1010B00092EC01F003C04BF002C04AF001C049F0CD
:1010C00000C048F04BC05FF04AC05EF049C05DF020
:1010D00048C05CF043C063F042C062F041C061F0C0
:1010E00040C060F06CEC00F003C051F002C050F062
:1010F00001C04FF000C04EF0D89203C063F002C0B0
:1011000062F001C061F000C060F01A0E676FFE0E61
:10111000666F750E656F7C0E646F92EC01F003C014
:101120004BF002C04AF001C049F000C048F04BC08B
:101130005FF04AC05EF049C05DF048C05CF043C05B
:1011400063F042C062F041C061F040C060F06CECFE
:1011500000F003C051F002C050F001C04FF000C0D9
:101160004EF0D89203C063F002C062F001C061F09B
:1011700000C060F0180E676F720E666F310E656FFB
:101180007E0E646F92EC01F003C04BF002C04AF097
:1011900001C049F000C048F043C05FF042C05EF0BB
:1011A00041C05DF040C05CF04BC063F04AC062F0EB
:1011B00049C061F048C060F06CEC00F0D892636BFD
:1011C000626B616B7F0E606F03C067F002C066F0F8
:1011D00001C065F000C064F092EC01F047C05FF020
:1011E00046C05EF045C05DF044C05CF003C063F0F3
:1011F00002C062F001C061F000C060F06CEC00F071
:1012000003C047F002C046F001C045F000C044F002
:101210004DA017D0586A576A566A7F0E556E47C060
:101220005CF046C05BF045C05AF044C059F0E5ECB4
:1012300000F003C047F002C046F001C045F000C016
:1012400044F044C000F045C001F046C002F047C081
:1012500003F0120033C05FF032C05EF031C05DF0C9
:1012600030C05CF0636B626B616B606BC7EC02F06B
:10127000D8A0CBD037C03BF036C03AF035C039F0FB
:1012800034C038F03F6A3E6A3D6A7F0E3C6E4BDDEB
:1012900003C03BF002C03AF001C039F000C038F0A2
:1012A00003C05FF002C05EF001C05DF000C05CF002
:1012B000636B626B616B606BC7EC02F0D8A4A5D066
:1012C00037C03BF036C03AF035C039F034C038F0A2
:1012D0003F6A3E6A3D6A800E3C6E25DD03C03BF0EE
:1012E00002C03AF001C039F000C038F003C05FF02E
:1012F00002C05EF001C05DF000C05CF0636B626B29
:10130000616B606BC7EC02F03FE130C038F03150E8
:10131000800A396E32C03AF033C03BF033C03FF040
:1013200032C03EF03D6E30C03CF026EC03F003C00E
:101330003BF002C03AF001C039F000C038F003C001
:101340005FF002C05EF001C05DF000C05CF037C02D
:1013500063F036C062F035C061F034C060F06CEC10
:1013600000F003C03BF002C03AF001C039F000C009
:1013700038F003C03FF002C03EF001C03DF000C0B5
:101380003CF07FDDD0D040D030C038F03150800A02
:10139000396E32C03AF033C03BF033C03FF032C058
:1013A0003EF03D6E30C03CF026EC03F003C03BF055
:1013B00002C03AF001C039F000C038F003C05FF05D
:1013C00002C05EF001C05DF000C05CF037C063F0A9
:1013D00036C062F035C061F034C060F06CEC00F0F3
:1013E00003C03BF002C03AF001C039F000C038F051
:1013F00003C03FF002C03EF001C03DF000C03CF031
:1014000040DD800E011A8FD08ED033C05FF032C025
:101410005EF031C05DF030C05CF0636B626B616B9D
:10142000606BC7EC02F02BE337C03BF036C03AF0FC
:1014300035C039F034C038F03F6A3E6A3D6A7F0EED
:101440003C6E71DC03C03BF002C03AF001C039F0E1
:1014500000C038F003C05FF002C05EF001C05DF074
:1014600000C05CF0636B626B616B606BC7EC02F099
:1014700006E0006A016A026A036A55D054D033C09C
:101480005FF032C05EF031C05DF030C05CF0636B85
:10149000626B616B606BC7EC02F010E137C05FF00C
:1014A00036C05EF035C05DF034C05CF0636B626BDB
:1014B000616B606BC7EC02F001E235E133C03FF0D5
:1014C00032C03EF031C03DF030C03CF026EC03F0BD
:1014D00003C03BF002C03AF001C039F000C038F060
:1014E00003C05FF002C05EF001C05DF000C05CF0C0
:1014F00037C063F036C062F035C061F034C060F0D0
:101500006CEC00F003C03BF002C03AF001C039F0CF
:1015100000C038F003C03FF002C03EF001C03DF013
:1015200000C03CF0AEDC60EF0BF0000E016EC2506C
:10153000C30B0110C26E100E006E002EFED700000D
:10154000C282C2B2FED7C450616B606F51EC00F032
:1015500003C01FF002C01EF001C01DF000C01CF04F
:101560001FC05FF01EC05EF01DC05DF01CC05CF0CF
:10157000636B626B200E616F810E606F6CEC00F02C
:1015800003C01FF002C01EF001C01DF000C01CF01F
:101590001FC058F01EC057F01DC056F01CC055F0BB
:1015A0005C6AC00E5B6E7F0E5A6E880E596EE5EC5B
:1015B00000F003C01FF002C01EF001C01DF000C00B
:1015C0001CF0586AE80E576E566A8E0E556E1FC094
:1015D0005CF01EC05BF01DC05AF01CC059F0E5EC79
:1015E00000F003C023F002C022F001C021F000C0CF
:1015F00020F0D88223C063F022C062F021C061F0E5
:1016000020C060F0676B400E666F1C0E656F8C0E1D
:10161000646F92EC01F003C023F002C022F001C01D
:1016200021F000C020F023C03FF022C03EF021C0D6
:101630003DF020C03CF026EC03F003C027F002C0D0
:1016400026F001C025F000C024F027C05FF026C0BE
:101650005EF025C05DF024C05CF00E0E636F430E9B
:10166000626F750E616F720E606F6CEC00F003C0FC
:1016700027F002C026F001C025F000C024F023C0EE
:101680003FF022C03EF021C03DF020C03CF026ECEF
:1016900003F003C02BF002C02AF001C029F000C003
:1016A00028F02BC033F02AC032F029C031F028C016
:1016B00030F0376A366A400E356E800E346ECAD509
:1016C00003C02BF002C02AF001C029F000C028F0AE
:1016D0002BC05FF02AC05EF029C05DF028C05CF02E
:1016E000DC0E636F540E626F3E0E616F670E606FAB
:1016F0006CEC00F003C02BF002C02AF001C029F00E
:1017000000C028F0D892930E636F260E626F140EFD
:10171000616F750E606F27C067F026C066F025C048
:1017200065F024C064F092EC01F003C033F002C015
:1017300032F001C031F000C030F0D89203C063F045
:1017400002C062F001C061F000C060F02BC067F021
:101750002AC066F029C065F028C064F092EC01F060
:1017600003C02FF002C02EF001C02DF000C02CF0FD
:10177000586A576A566A7F0E556E2FC05CF02EC0AD
:101780005BF02DC05AF02CC059F0E5EC00F003C01E
:101790002FF002C02EF001C02DF000C02CF0D88236
:1017A0002FC063F02EC062F02DC061F02CC060F03D
:1017B000330E676F930E666F080E656F870E646F4A
:1017C00092EC01F003C02FF002C02EF001C02DF00A
:1017D00000C02CF0F29430EF00F09E9030EF00F05B
:1017E000F86AD09E078E1F6A1E6A1D6A1C6A236AE9
:1017F000226A216A206A276A266A256A246A2B6A75
:101800002A6A296A286A2F6A2E6A2D6A2C6AC150B0
:10181000C00B0F09C16E070EB46E166A176AC0506E
:10182000C00B0709C06EC09EC280C150C00B0B091F
:10183000C16EC00E936E936E000E956E040E966E82
:04184000FFD70300CB
:020000040030CA
:0E0000003FC0381E0087A1000FC00FE00F4068
:00000001FF
;PIC18F4550
;CRC=B2AC  CREATED="13-jun-17 16:49"
