:1000000012EF07F0434F4E46494755524143414F87
:100010000000494E43554241444F52410000434F76
:100020004E46494755524143414F000053455420E5
:1000300054454D503A20252E316620202020202086
:100040002000434F4E46494755524143414F00001F
:1000500053455420554D493A20252E316620202005
:10006000202020005345542054454D503A2020254F
:100070002E316620202020202020200053455420AF
:10008000554D493A202020252E3166202020202061
:100090002020000046494D2044410000434F4E4679
:1000A000494755524143414F0000417065727465A4
:1000B000206F20626F74616F0000494E49434941CF
:1000C0005200849016C083FF8482000084920C0E3C
:1000D000006E002EFED700D000001200EA6A170E54
:1000E000E96EEF500EE0010E016E006A002EFED7A1
:1000F000012EFBD74A0E006E002EFED700D0EF2E49
:10010000F2D71200010E166EDCDF020E176EE6DF6C
:100110001200300E166ED5DF040E176EDFDF300EC4
:10012000166ECFDF200E006E002EFED700D000002E
:10013000300E166EC6DF380E166EC3DFE3DF0C0E10
:10014000166EBFDF060E166EBCDF45EF07F084802B
:1001500023C083FF8482000084920C0E006E002E68
:10016000FED700D0000012000900F5520CE0F6CFD7
:1001700016F0F7CF17F0F5CF23F0E9DF16C0F6FF42
:1001800017C0F7FFF1D712008E0E006E17C001F0F6
:1001900016C002F0036A015209E102C001F0026ACE
:1001A000080E005E015202E1006A08D0D89001BE3C
:1001B00004D0023601360006F9D7019E1200235002
:1001C000D8B471D0006E2750D8B46DD0002604E3A7
:1001D000810E002668E204D07F0E005E64E363E0D7
:1001E00024C02BF028502B1A248E288E26502A0249
:1001F000F4CF2DF025502902F4CF03F0F3CF2CF0EB
:100200002A02F3502D26F4502C22000E03222650F1
:100210002902F3502D26F4502C22000E026A0322EC
:10022000022224502A02F3502C26F4500322000EFE
:10023000022224502902F3500326F4500222000E19
:10024000016A012226502802F3502C26F450032282
:10025000000E0222012225502802F3500326F450FA
:100260000222000E012224502802F3500226F450EC
:100270000122002A01BE05D02C3603360236013693
:100280000006000E2CAE0AD0032A022201220150E1
:1002900005E1025003E1035001E1002A2BBE018E6B
:1002A0002BAE019E04D0006A016A026A036A120042
:1002B0001A50D8B4A5D0266E1E50D8B4A1D0265E50
:1002C00005E37F0E2626D8B09BD006D0810E265E91
:1002D000D8A096D0D8B494D026C000F0016A026AA3
:1002E000036A256A1BC024F0248E1CC023F01DC0A5
:1002F00022F0190E266E2150225E0DE2010E235EC1
:100300000AE2245E08E2255E06E2252A242A232A40
:100310002150222628D02050235E12E2010E245EB6
:100320000FE2255E0DE2252A242A205023262150A3
:10033000222619E3232A17E1242A15E1252A13D0BE
:100340001F508009245E0EE2010E255E0BE2252A75
:100350001F508009242620502326E9E3242AE7E1C0
:10036000252AE5D70380262E01D00BD0D89022363F
:10037000233624362536D890033602360136273602
:10038000BAD727A006D0D8900132023203322732E2
:1003900002D0000635E027BE1ED0D8902236233684
:1003A000243625362150225E07E2010E235E04E248
:1003B000245E02E2255E1AE32050235E05E2010E70
:1003C000245E02E2255E12E31F508009245E03E2F0
:1003D000010E255E0BE3032A09E1022A07E1012A47
:1003E00005E1002A0DE00132023203321BC026F083
:1003F0001F50261A26AE02D0018E06D0019E04D0D0
:10040000006A016A026A036A1200800ED8B21B1ADF
:10041000206A216A17C01FF01B501F1A1650D8B44B
:10042000DCD01E6E006E1A50D8B4E0D01E5ED8B478
:1004300081D03DE31BC024F0248E1CC023F01DC0DE
:1004400022F0216AD89024322332223221321E2E09
:10045000F8D71FAE03D02080DDD020901E902088DA
:10046000EA6A190EE96EE9D020981FBE0AD01EA0D4
:1004700013D02432233222322132002AD8B4C5D0FC
:100480000BD024BE0CD0D890213622362336243609
:100490000006D8B4BAD0F5D7208C6BD0209C17C0FA
:1004A0001FF017AE02D0248EA9D0249EA7D01AC068
:1004B0001EF01AC000F016501E5E17C024F0248EE5
:1004C00018C023F019C022F0216AD89024322332B8
:1004D000223221321E2EF8D71FAE03D020829AD0AE
:1004E00020921E90208AEA6A1D0EE96EA6D0209AFC
:1004F0001FBE0AD01EA013D0243223322232213252
:10050000002AD8B482D00BD024BE0CD0D89021368B
:100510002236233624360006D8B477D0F5D7208E7D
:1005200028D0209E1BC01FF01BAE02D0248E66D0A8
:10053000249E64D01BC024F0248E1CC023F01DC058
:1005400022F01FAE04D0249E208464D02094216A1F
:100550001E90EA6A190EE96E70D01FBE1CD017C03B
:100560001FF01EA006D02432233222322132002A6C
:100570004CE021AE0BD0222A09E1232A07E1242AEC
:1005800005E1243223322232002A3FE020BC86D704
:1005900020BEC7D71CD0800E241A24AE04D03AD077
:1005A0001BC01FF00AD017C01FF0245206E12352CF
:1005B00004E1225202E1006A21D024BE08D0D89082
:1005C0002136223623362436002EF7D71ED01FAE12
:1005D00002D0248E13D0249E11D01AC000F01BC06C
:1005E00024F01CC023F01DC022F008D016C000F07B
:1005F00017C024F018C023F019C022F024C001F065
:1006000023C002F022C003F034D0006A016A026AFB
:10061000036A2FD0216A221E231E241E211E212A96
:1006200005E1222A03E1232A01E1242A20B015D77B
:1006300020B256D720B48AD7B3D7EF50222605E38D
:10064000232A03E1242AD8B41E80ED52EF5023263A
:1006500003E3242AD8B41E80ED52EF50EFBE01D040
:10066000800A2426D8B01E8020B8FED620BA3FD7F4
:1006700074D712008E0E006E1650005E17C002F086
:1006800018C001F0028E005209E0D890025202E137
:10069000015204E002320132002EF7D717AE05D026
:1006A000011E021E012AD8B4022A1200080E016E91
:1006B000C250C30B0110C26E020E006E002EFED798
:1006C00000D00000C2B2FED7C282C2B2FED7C3CFF2
:1006D00004F0C4CF05F005C017F004C016F054DDD7
:1006E00003C00DF002C00CF001C00BF000C00AF016
:1006F0000DC026F00CC025F00BC024F00AC023F07A
:100700002A6A296A286A7E0E276E59DD03C019F00D
:1007100002C018F001C017F000C016F003C01DF0B1
:1007200002C01CF001C01BF000C01AF0140E216EB4
:10073000AE0E206E230E1F6E820E1E6EB9DD03C03C
:100740000DF002C00CF001C00BF000C00AF0D8920E
:100750000DC019F00CC018F00BC017F00AC016F04D
:10076000CD0E1D6ECC0E1C6E4C0E1B6E7D0E1A6EC9
:100770004CDE03C019F002C018F001C017F000C031
:1007800016F003C026F002C025F001C024F000C01E
:1007900023F02A6A296A286A800E276E10DD03C0BA
:1007A00019F002C018F001C017F000C016F062DFA7
:1007B000176A01C016F0E8DC03C019F002C018F097
:1007C00001C017F000C016F003C026F002C025F0EB
:1007D00001C024F000C023F02A6A296A286A7E0E2C
:1007E000276EEDDC03C00DF002C00CF001C00BF071
:1007F00000C00AF003EF06F00900F6CF17F0F7CFBC
:1008000018F0F5CF23F0A3DC17C0F6FF18C0F7FFF0
:10081000162EF2D712002350B608236E036A24C0A6
:1008200027F0248ED8902432253226320332023229
:1008300001320032232EF6D727AE0BD0001E011E48
:10084000021E031E002AD8B4012AD8B4022AD8B442
:10085000032A99EF04F0D8B203D0EA6A2B0EE96EAE
:10086000006A016A026A036A2B6A2C6A2D6A2E6A80
:100870002A502910281027102CE0200E2F6ED89017
:1008800023362436253626362B362C362D362E3674
:100890002A502E5C08E129502D5C05E128502C5C83
:1008A00002E127502B5C0FE327502B5E2850D8A085
:1008B000283C2C5E2950D8A0293C2D5E2A50D8A077
:1008C0002A3C2E5ED88000360136023603362F2EA3
:1008D000D6D72BC0EFFF2CC0ECFF2DC0ECFF2EC0F5
:1008E000ECFF1200E9501B6E1A501D6E19E019C082
:1008F00026F018C025F017C024F016C023F02A6A8D
:10090000296A200E286E820E276E59DC03C019F06A
:1009100002C018F001C017F000C016F01D2EE7D776
:1009200019C026F018C025F017C024F016C023F017
:1009300072D703C019F002C018F001C017F000C050
:1009400016F019AE0DD01B061B8A161E171E181E98
:10095000191E162AD8B4172AD8B4182AD8B4192AB6
:100960003B0E226E9A0E216ECA0E206E1F6A0A0E70
:100970001D6E1A50D8B41B2AD882EA6A160EE96E88
:1009800019C026F018C025F017C024F016C023F0B7
:1009900022C02AF021C029F020C028F01FC027F073
:1009A0005ADF015000520FE11A281D5C0CE01B5069
:1009B0000CE00F0B1D5C01E03BE21BBE39D01BBC01
:1009C00004D0200E30D0200E1B161BAA0DD01B9A6F
:1009D0001A50D8A41B0600501B6E2D0E236EA7ECD8
:1009E00000F01B50006E1B6A1A501D5C0BE100509A
:1009F0001B6E2E0E236EA7EC00F01B50006E200E17
:100A00001B16000E300E1BAA0ED01B9A1A50D8A42B
:100A10001B0600501B6E2D0E236EA7EC00F01B5022
:100A2000006E1B6A300E002600C023F0A7EC00F019
:100A3000D89222C026F021C025F020C024F01FC08B
:100A400023F02A6A296A286A0A0E276E04DF03C087
:100A500022F002C021F001C020F000C01FF01D2EC6
:100A60008BD71200080E016EC250C30B0110C26E6C
:100A7000020E006E002EFED700D00000C2B2FED7DC
:100A8000C282C2B2FED7C3CF04F0C4CF05F005C006
:100A900017F004C016F0C4EC00F003C00DF002C063
:100AA0000CF001C00BF000C00AF00DC026F00CC025
:100AB00025F00BC024F00AC023F02A6A296A200E10
:100AC000286E820E276EDFEC00F003C019F002C022
:100AD00018F001C017F000C016F003C01DF002C0EE
:100AE0001CF001C01BF000C01AF09A0E216E990E86
:100AF000206E4C0E1F6E850E1E6E58EC01F003C06A
:100B00000DF002C00CF001C00BF000C00AF0D8924A
:100B10000DC019F00CC018F00BC017F00AC016F089
:100B2000CD0E1D6ECC0E1C6E4C0E1B6E7D0E1A6E05
:100B30006CDC03C019F002C018F001C017F000C04F
:100B400016F003C026F002C025F001C024F000C05A
:100B500023F02A6A296A286A800E276EDFEC00F0EB
:100B600003C019F002C018F001C017F000C016F061
:100B700081DD176A01C016F0C4EC00F003C019F063
:100B800002C018F001C017F000C016F003C026F034
:100B900002C025F001C024F000C023F02A6A296AAF
:100BA000286A7E0E276EDFEC00F003C00DF002C055
:100BB0000CF001C00BF000C00AF043EF06F0092A68
:100BC00082EC00F00950050801E1096A092C18D0EF
:100BD000040EF66E000EF76EB4EC00F0C00E166E4A
:100BE00061EC00F0120EF66E000EF76EB4EC00F041
:100BF000040E166EFA0E176E6EEC00F0162EFAD773
:100C0000092C3DD053D51E0EF66E000EF76EB4ECD7
:100C100000F0C00E166E61EC00F02C0EF66E000EA9
:100C2000F76E0A0E166EE8DD890EE96E0DC019F03A
:100C30000CC018F00BC017F00AC016F0010E1A6EA7
:100C400051DE3A0EF66E000EF76E070E166ED4DD0C
:100C5000020E166EC80E176E6EEC00F0162EFAD746
:100C600081B40CD082EC00F00DC011F00CC010F07B
:100C70000BC00FF00AC00EF0020E096EC1D709506A
:100C800002083DE1EFD6420EF66E000EF76EB4ECB0
:100C900000F0C00E166E61EC00F0500EF66E000E05
:100CA000F76E090E166EA8DD890EE96E0DC019F0FB
:100CB0000CC018F00BC017F00AC016F0010E1A6E27
:100CC00011DE5D0EF66E000EF76E060E166E94DDEA
:100CD000020E166EC80E176E6EEC00F0162EFAD7C6
:100CE00081B40CD082EC00F00DC015F00CC014F0F3
:100CF0000BC013F00AC012F0040E096EC0D70950E1
:100D00000408D8A48DD0800E166E61EC00F0640E3D
:100D1000F66E000EF76E0B0E166E6EDD890EE96E26
:100D200011C019F010C018F00FC017F00EC016F067
:100D3000010E1A6ED7DD730EF66E000EF76E080EFA
:100D4000166E5ADD080E166EFA0E176E6EEC00F077
:100D5000162EFAD7C00E166E61EC00F07C0EF66E01
:100D6000000EF76E0B0E166E47DD890EE96E15C08C
:100D700019F014C018F013C017F012C016F0010ECD
:100D80001A6EB0DD8B0EF66E000EF76E070E166E45
:100D900033DD080E166EFA0E176E6EEC00F0162E8E
:100DA000FAD7050E096E82EC00F0800E166E61EC2B
:100DB00000F0940EF66E000EF76EB4EC00F0C00E6C
:100DC000166E61EC00F09C0EF66E000EF76EB4EC41
:100DD00000F0040E166EFA0E176E6EEC00F0162E72
:100DE000FAD782EC00F0800E166E61EC00F0AA0ECD
:100DF000F66E000EF76EB4EC00F0C00E166E61ECED
:100E000000F0BA0EF66E000EF76EB4EC00F0040EB1
:100E1000166EFA0E176E6EEC00F0162EFAD76FD71C
:100E200053EF07F0F86AD09E010E076E900E066E23
:100E3000086A096A116A106A0F6A0E6A156A146AEA
:100E4000136A126AC150C00B0F09C16E070EB46E4F
:100E5000FF0E926E936E946E000E956E040E966E5B
:100E6000806A816A826A836A846AC150C00B0C09F5
:100E7000C16EC050C00B0209C06EC08EC280870E0A
:100E8000CD6EC00EF21289EF00F081B40DD008B023
:100E90000AD0065202E1075205E00650D8B4070610
:100EA000060601D08CD605D0010E076E900E066E98
:060EB0000890EBD70300DF
:020000040030CA
:0E0000003FCC381E0087A1000FC00FE00F405C
:00000001FF
;PIC18F4550
;CRC=1AF1  CREATED="28-jun-17 19:10"
