:10000000EBEF10F0434F4E46494755524143414FA5
:100010000000494E43554241444F52410000434F76
:100020004E46494755524143414F000053455420E5
:1000300054454D503A20252E316620202020202086
:100040002000434F4E46494755524143414F00001F
:1000500053455420554D493A20252E316620202005
:10006000202020005345542054454D503A2020254F
:100070002E316620202020202020200053455420AF
:10008000554D493A202020252E3166202020202061
:100090002020000046494D2044410000434F4E4679
:1000A000494755524143414F0000417065727465A4
:1000B000206F20626F74616F0000494E49434941CF
:1000C00052004D4558454E444F00849054C083FF24
:1000D000848200D000D000008492420E006E002E78
:1000E000FED700001200EA6A550EE96EEF500DE0EF
:1000F000060E016E006A002EFED7012EFBD77B0E86
:10010000006E002EFED7EF2EF3D71200010E546EB4
:10011000DCDF020E556EE7DF1200300E546ED5DFC5
:10012000040E556EE0DF300E546ECFDFA60E006E6B
:10013000002EFED70000300E546EC7DF380E546E0E
:10014000C4DFE4DF0C0E546EC0DF060E546EBDDF5C
:1001500061EF11F08E0E006E85C001F084C002F0D8
:10016000036A015209E102C001F0026A080E005E52
:10017000015202E1006A08D0D89001BE04D00236D4
:1001800001360006F9D7019E12008051D8B471D013
:10019000006E8451D8B46DD0002604E3810E002691
:1001A00068E204D07F0E005E64E363E081C088F003
:1001B0008551881B818F858F83518703F4CF8AF007
:1001C00082518603F4CF03F0F3CF89F08703F35015
:1001D0008A27F4508923000E032283518603F350AB
:1001E0008A27F4508923000E026A032202228151D9
:1001F0008703F3508927F4500322000E0222815115
:100200008603F3500326F4500222000E016A0122F5
:1002100083518503F3508927F4500322000E0222F4
:10022000012282518503F3500326F4500222000E6E
:10023000012281518503F3500226F4500122002A45
:1002400001BE05D089370336023601360006000E9E
:1002500089AF0AD0032A02220122015005E102508F
:1002600003E1035001E1002A88BF018E88AF019E9F
:1002700004D0006A016A026A036A12007951D8B494
:10028000A5D0856F7D51D8B4A1D0855F05E37F0EE1
:100290008527D8B09BD006D0810E855FD8A096D098
:1002A000D8B494D085C000F0016A026A036A846BF6
:1002B0007AC083F0838F7BC082F07CC081F0190EFE
:1002C000856F8051815F0DE2010E825F0AE2835FDC
:1002D00008E2845F06E2842B832B822B80518127E6
:1002E00028D07F51825F12E2010E835F0FE2845FAC
:1002F0000DE2842B832B7F5182278051812719E3C4
:10030000822B17E1832B15E1842B13D07E518009BA
:10031000835F0EE2010E845F0BE2842B7E51800925
:1003200083277F518227E9E3832BE7E1842BE5D7FD
:100330000380852F01D00BD0D89081378237833747
:100340008437D8900336023601368637BAD786A16D
:1003500006D0D890013202320332863302D0000632
:1003600035E086BF1ED0D8908137823783378437F7
:100370008051815F07E2010E825F04E2835F02E247
:10038000845F1AE37F51825F05E2010E835F02E220
:10039000845F12E37E518009835F03E2010E845F74
:1003A0000BE3032A09E1022A07E1012A05E1002AF9
:1003B0000DE00132023203327AC085F07E51851B96
:1003C00085AF02D0018E06D0019E04D0006A016A7A
:1003D000026A036A1200800ED8B2891B8E6B8F6B83
:1003E00085C08DF089518D1B8451D8B4DCD08C6FC1
:1003F000006E8851D8B4E0D08C5FD8B481D03DE392
:1004000089C092F0928F8AC091F08BC090F08F6B70
:10041000D8909233913390338F338C2FF8D78DAFA0
:1004200003D08E81DDD08E918C918E89EA6A870E01
:10043000E96EE9D08E998DBF0AD08CA113D092338A
:10044000913390338F33002AD8B4C5D00BD092BFEC
:100450000CD0D8908F379037913792370006D8B4A8
:10046000BAD0F5D78E8D6BD08E9D85C08DF085AFBF
:1004700002D0928FA9D0929FA7D088C08CF088C05C
:1004800000F084518C5F85C092F0928F86C091F00D
:1004900087C090F08F6BD8909233913390338F3325
:1004A0008C2FF8D78DAF03D08E839AD08E938C91FA
:1004B0008E8BEA6A8B0EE96EA6D08E9B8DBF0AD01A
:1004C0008CA113D09233913390338F33002AD8B458
:1004D00082D00BD092BF0CD0D8908F379037913705
:1004E00092370006D8B477D0F5D78E8F28D08E9F5C
:1004F00089C08DF089AF02D0928F66D0929F64D070
:1005000089C092F0928F8AC091F08BC090F08DAF2D
:1005100004D0929F8E8564D08E958F6B8C91EA6A01
:10052000870EE96E70D08DBF1CD085C08DF08CA178
:1005300006D09233913390338F33002A4CE08FAF43
:100540000BD0902B09E1912B07E1922B05E192331F
:1005500091339033002A3FE08EBD86D78EBFC7D738
:100560001CD0800E921B92AF04D03AD089C08DF07F
:100570000AD085C08DF0925306E1915304E1905367
:1005800002E1006A21D092BF08D0D8908F3790370F
:1005900091379237002EF7D71ED08DAF02D0928FB1
:1005A00013D0929F11D088C000F089C092F08AC009
:1005B00091F08BC090F008D084C000F085C092F01C
:1005C00086C091F087C090F092C001F091C002F017
:1005D00090C003F034D0006A016A026A036A2FD027
:1005E0008F6B901F911F921F8F1F8F2B05E1902BF8
:1005F00003E1912B01E1922B8EB115D78EB356D723
:100600008EB58AD7B3D7EF50902705E3912B03E13E
:10061000922BD8B48C81ED52EF50912703E3922BAB
:10062000D8B48C81ED52EF50EFBE01D0800A9227F2
:10063000D8B08C818EB9FED68EBB3FD774D712004E
:1006400081C088F08551881B88AF05D0D894D89098
:1006500081BFD8802FD081C088F084C089F08051BC
:10066000895F06E088AF26D0D850010AD86E22D024
:1006700085C089F08151895F06E088AF1BD0D850D2
:10068000010AD86E17D086C089F08251895F06E0D2
:1006900088AF10D0D850010AD86E0CD087C089F02E
:1006A0008351895F06E088AF05D0D850010AD86E23
:1006B00001D0D89012008E0E006E77C001F076C087
:1006C00002F0036A77AF05D0011E021E022A01E183
:1006D000012A015209E102C001F0026A080E005E1F
:1006E000015202E1006A0AD0D89001BE04D002365D
:1006F00001360006F9D777BF01D0019E120063C012
:1007000067F062C066F061C065F060C064F067C009
:1007100083F066C082F065C081F064C080F0876BB2
:10072000866B856B7F0E846F8BDFD8B47BD1766B45
:10073000640EE96E76C0EAFF7E0EEF6ED88267C067
:1007400087F066C086F065C085F064C084F08B6B6E
:100750008A6B896B7F0E886F3EDE03C078F002C023
:1007600077F001C076F000C075F0D89267C087F0CE
:1007700066C086F065C085F064C084F08B6B8A6BC0
:10078000896B7F0E886F27DE78C07CF077C07BF0A6
:1007900076C07AF075C079F003C080F002C07FF0B7
:1007A00001C07EF000C07DF069DD03C067F002C0CB
:1007B00066F001C065F000C064F067C083F066C0F9
:1007C00082F065C081F064C080F067C087F066C0C9
:1007D00086F065C085F064C084F0D7DC03C073F098
:1007E00002C072F001C071F000C070F0990E836F0A
:1007F000470E826F8A0E816F7F0E806F73C087F005
:1008000072C086F071C085F070C084F0BEDC03C099
:1008100078F002C077F001C076F000C075F0D89291
:1008200003C087F002C086F001C085F000C084F0EC
:100830008B6B8A6B896B800E886FCDDD03C06BF08C
:1008400002C06AF001C069F000C068F04C0E836F0E
:10085000F30E826F3A0E816F7B0E806F73C087F04C
:1008600072C086F071C085F070C084F08EDC03C069
:1008700078F002C077F001C076F000C075F0D89231
:1008800003C087F002C086F001C085F000C084F08C
:100890002B0E8B6F9D0E8A6FDF0E896F7E0E886F19
:1008A0009ADD03C06FF002C06EF001C06DF000C0B1
:1008B0006CF06FC083F06EC082F06DC081F06CC0D0
:1008C00080F073C087F072C086F071C085F070C090
:1008D00084F05BDC03C078F002C077F001C076F0F2
:1008E00000C075F0D89203C087F002C086F001C046
:1008F00085F000C084F08B6B8A6B896B7F0E886FEC
:100900006ADD03C06FF002C06EF001C06DF000C080
:100910006CF067C083F066C082F065C081F064C08F
:1009200080F06BC087F06AC086F069C085F068C04F
:1009300084F02BDC03C078F002C077F001C076F0C1
:1009400000C075F003C07CF002C07BF001C07AF0FB
:1009500000C079F06FC080F06EC07FF06DC07EF097
:100960006CC07DF08BDC03C06BF002C06AF001C08C
:1009700069F000C068F0766B600EE96E76C0EAFF41
:100980007E0EEF5C746F74AF12D0000ED880745579
:10099000776B766F76BF77078EDE00C06CF0015004
:1009A000800A6D6F02C06EF003C06FF00ED0776BDF
:1009B00074C076F076BF77077EDE03C06FF002C0AA
:1009C0006EF001C06DF000C06CF06FC083F06EC0BF
:1009D00082F06DC081F06CC080F0180E876F720ECF
:1009E000866F310E856F7E0E846FC5EC00F0D89255
:1009F0006BC087F06AC086F069C085F068C084F07B
:100A000003C08BF002C08AF001C089F000C088F0FA
:100A1000E2DC03C06BF002C06AF001C069F000C004
:100A200068F004D06B6B6A6B696B686B68C000F030
:100A300069C001F06AC002F06BC003F012008E0EB4
:100A4000006E8051005E81C002F082C001F0028E13
:100A5000005209E0D890025202E1015204E0023251
:100A60000132002EF7D781AF05D0011E021E012AE8
:100A7000D8B4022A12007F9173C078F072C077F068
:100A800071C076F070C075F073C083F072C082F0F0
:100A900071C081F070C080F0876B866B856B846B52
:100AA000CFDD04E37F817651800A766F78C083F0D2
:100AB00077C082F076C081F075C080F0876B866B5E
:100AC000856B8E0E846FBCDD01E218E178C083F087
:100AD00077C082F076C081F075C080F0B0DF02C0D0
:100AE00085F001C084F0AAEC00F003C07CF002C0E5
:100AF0007BF001C07AF000C079F0C5D078C083F0F7
:100B000077C082F076C081F075C080F0800E876F6C
:100B1000960E866F180E856F960E846F91DDD8A0A5
:100B2000AAD078C083F077C082F076C081F075C01B
:100B300080F0876B866B856B700E846FC5EC00F060
:100B400003C083F002C082F001C081F000C080F0D9
:100B500076DF02C07EF001C07DF078C083F077C000
:100B600082F076C081F075C080F0876B866B856BF4
:100B7000700E846FC5EC00F003C083F002C082F0F9
:100B800001C081F000C080F07EC085F07DC084F09F
:100B9000AAEC00F0D88283C087F082C086F081C0C2
:100BA00085F080C084F003C08BF002C08AF001C0E1
:100BB00089F000C088F00FDC836B826B816B8E0E36
:100BC000806F03C087F002C086F001C085F000C0CE
:100BD00084F0C5EC00F003C078F002C077F001C0EB
:100BE00076F000C075F07EC085F07DC084F0AAEC80
:100BF00000F0836B826B816B8E0E806F03C087F079
:100C000002C086F001C085F000C084F0C5EC00F0A1
:100C100003C07CF002C07BF001C07AF000C079F024
:100C200078C083F077C082F076C081F075C080F024
:100C300006DF02C085F001C084F0AAEC00F0D89273
:100C40007CC087F07BC086F07AC085F079C084F0E4
:100C500003C08BF002C08AF001C089F000C088F0A8
:100C6000EBEC01F003C07CF002C07BF001C07AF035
:100C700000C079F008D078C07CF077C07BF076C0F7
:100C80007AF075C079F078C083F077C082F076C0D2
:100C900081F075C080F0D3DE02C085F001C084F021
:100CA000AAEC00F0D88278C087F077C086F076C0D2
:100CB00085F075C084F003C08BF002C08AF001C0DB
:100CC00089F000C088F0EBEC01F003C078F002C0BE
:100CD00077F001C076F000C075F07FA103D07A51A3
:100CE000800A7A6F78C083F077C082F076C081F096
:100CF00075C080F0876B866B856B846BA1DC38E0F8
:100D00007FA11AD0745318E1D8827CC087F07BC0D1
:100D100086F07AC085F079C084F08B6B8A6B896B22
:100D20007F0E886FEBEC01F003C07CF002C07BF01B
:100D300001C07AF000C079F07FB11AD0742D18D0BC
:100D4000D8927CC087F07BC086F07AC085F079C0ED
:100D500084F08B6B8A6B896B7F0E886FEBEC01F0F4
:100D600003C07CF002C07BF001C07AF000C079F0D3
:100D700073C083F072C082F071C081F070C080F0E7
:100D8000876B866B856B846B5BDC04E17C6B7B6BB8
:100D90007A6B796B79C000F07AC001F07BC002F009
:100DA0007CC003F012006FC073F06EC072F06DC0B3
:100DB00071F06CC070F0010E746F5DDE47EF07F0EC
:100DC0006FC073F06EC072F06DC071F06CC070F0E7
:100DD000746B51DE6BEF07F063C083F062C082F08A
:100DE00061C081F060C080F0876B866B856B846B1F
:100DF00027DCD8B49ED05FC07CF05EC07BF05DC0C5
:100E00007AF05CC079F063C080F062C07FF061C0AE
:100E10007EF060C07DF03EEC01F003C06BF002C0DC
:100E20006AF001C069F000C068F003C083F002C03E
:100E300082F001C081F000C080F0876B866B856B0B
:100E4000846B20EC03F024E35FC07CF05EC07BF099
:100E50005DC07AF05CC079F063C080F062C07FF062
:100E600061C07EF060C07DF03EEC01F003C06BF02D
:100E700002C06AF001C069F000C068F003C06FF002
:100E800002C06EF001C06DF000C06CF08CD723D0B2
:100E90005FC07CF05EC07BF05DC07AF05CC079F032
:100EA00063C080F062C07FF061C07EF060C07DF002
:100EB0003EEC01F003C06BF002C06AF001C069F0C3
:100EC00000C068F003C06FF002C06EF001C06DF0AA
:100ED00000C06CF075D703C067F002C066F001C0B7
:100EE00065F000C064F067C083F066C082F065C042
:100EF00081F064C080F063C087F062C086F061C09A
:100F000085F060C084F0C5EC00F0D8825FC087F047
:100F10005EC086F05DC085F05CC084F003C08BF0DD
:100F200002C08AF001C089F000C088F0EBEC01F04B
:100F300000D0120063C083F062C082F061C081F013
:100F400060C080F03B0E876FAA0E866F380E856FEB
:100F50007F0E846FC5EC00F003C083F002C082F006
:100F600001C081F000C080F06ADD01C070F07191B5
:100F700063C067F062C066F061C065F060C064F095
:100F800063C083F062C082F061C081F060C080F015
:100F9000876B866B856B846B20EC03F005E37181B6
:100FA000706D6551800A656F6B6B6A6B696B686BFE
:100FB000736B680EE96E73C0EAFF7F0E7025EF6EEB
:100FC00067C083F066C082F065C081F064C080F0C5
:100FD0003B0E876FAA0E866F380E856F7F0E846F6B
:100FE000C5EC00F003C075F002C074F001C073F0EE
:100FF00000C072F0776B70C076F076BF77075BEC5D
:1010000003F0D88275C087F074C086F073C085F095
:1010100072C084F003C08BF002C08AF001C089F076
:1010200000C088F0EBEC01F003C067F002C066F08E
:1010300001C065F000C064F07C0E836F880E826F83
:10104000590E816F720E806F67C087F066C086F0A0
:1010500065C085F064C084F0C5EC00F003C075F095
:1010600002C074F001C073F000C072F0D89203C0E7
:1010700087F002C086F001C085F000C084F0E00E69
:101080008B6F970E8A6F260E896F750E886FEBEC4B
:1010900001F003C06FF002C06EF001C06DF000C03F
:1010A0006CF06FC083F06EC082F06DC081F06CC0D8
:1010B00080F067C087F066C086F065C085F064C0C8
:1010C00084F0C5EC00F003C075F002C074F001C0FC
:1010D00073F000C072F0D89203C087F002C086F0AF
:1010E00001C085F000C084F0C40E8B6F1D0E8A6FA6
:1010F0001E0E896F780E886FEBEC01F003C06FF065
:1011000002C06EF001C06DF000C06CF06FC083F0E3
:101110006EC082F06DC081F06CC080F067C087F057
:1011200066C086F065C085F064C084F0C5EC00F050
:1011300003C075F002C074F001C073F000C072F01B
:10114000D89203C087F002C086F001C085F000C0CD
:1011500084F05E0E8B6F500E8A6F630E896F7A0E6D
:10116000886FEBEC01F003C06FF002C06EF001C0BD
:101170006DF000C06CF06FC083F06EC082F06DC087
:1011800081F06CC080F067C087F066C086F065C0F3
:1011900085F064C084F0C5EC00F003C075F002C0B7
:1011A00074F001C073F000C072F0D89203C087F0F1
:1011B00002C086F001C085F000C084F01A0E8B6F6B
:1011C000FE0E8A6F750E896F7C0E886FEBEC01F056
:1011D00003C06FF002C06EF001C06DF000C06CF093
:1011E0006FC083F06EC082F06DC081F06CC080F083
:1011F00067C087F066C086F065C085F064C084F083
:10120000C5EC00F003C075F002C074F001C073F0CB
:1012100000C072F0D89203C087F002C086F001C00F
:1012200085F000C084F0180E8B6F720E8A6F310E3D
:10123000896F7E0E886FEBEC01F003C06FF002C087
:101240006EF001C06DF000C06CF067C083F066C046
:1012500082F065C081F064C080F06FC087F06EC01E
:1012600086F06DC085F06CC084F0C5EC00F0D892BB
:10127000876B866B856B7F0E846F03C08BF002C01B
:101280008AF001C089F000C088F0EBEC01F06BC07F
:1012900083F06AC082F069C081F068C080F003C04A
:1012A00087F002C086F001C085F000C084F0C5EC74
:1012B00000F003C06BF002C06AF001C069F000C02A
:1012C00068F071A117D07C6B7B6B7A6B7F0E796FA6
:1012D0006BC080F06AC07FF069C07EF068C07DF0AE
:1012E0003EEC01F003C06BF002C06AF001C069F08F
:1012F00000C068F068C000F069C001F06AC002F088
:101300006BC003F0120057C083F056C082F055C086
:1013100081F054C080F0876B866B856B846B20EC0A
:1013200003F0D8A0CBD05BC05FF05AC05EF059C0CC
:101330005DF058C05CF0636B626B616B7F0E606F39
:101340004BDD03C05FF002C05EF001C05DF000C085
:101350005CF003C083F002C082F001C081F000C0E5
:1013600080F0876B866B856B846B20EC03F0D8A4D0
:10137000A5D05BC05FF05AC05EF059C05DF058C0A8
:101380005CF0636B626B616B800E606F25DD03C088
:101390005FF002C05EF001C05DF000C05CF003C011
:1013A00083F002C082F001C081F000C080F0876B42
:1013B000866B856B846B20EC03F03FE154C05CF0DE
:1013C0005550800A5D6E56C05EF057C05FF057C042
:1013D00063F056C062F0616F54C060F07FEC03F0C0
:1013E00003C05FF002C05EF001C05DF000C05CF0C1
:1013F00003C083F002C082F001C081F000C080F021
:101400005BC087F05AC086F059C085F058C084F0A0
:10141000C5EC00F003C05FF002C05EF001C05DF0FB
:1014200000C05CF003C063F002C062F001C061F074
:1014300000C060F07FDDD0D040D054C05CF055508B
:10144000800A5D6E56C05EF057C05FF057C063F013
:1014500056C062F0616F54C060F07FEC03F003C0CF
:101460005FF002C05EF001C05DF000C05CF003C040
:1014700083F002C082F001C081F000C080F05BC048
:1014800087F05AC086F059C085F058C084F0C5EC8A
:1014900000F003C05FF002C05EF001C05DF000C06C
:1014A0005CF003C063F002C062F001C061F000C0F4
:1014B00060F040DD800E011A8FD08ED057C083F0CF
:1014C00056C082F055C081F054C080F0876B866BA7
:1014D000856B846B20EC03F02BE35BC05FF05AC09C
:1014E0005EF059C05DF058C05CF0636B626B616B7D
:1014F0007F0E606F71DC03C05FF002C05EF001C060
:101500005DF000C05CF003C083F002C082F001C057
:1015100081F000C080F0876B866B856B846B20EC5C
:1015200003F006E0006A016A026A036A55D054D0EB
:1015300057C083F056C082F055C081F054C080F08F
:10154000876B866B856B846B20EC03F010E15BC0CE
:1015500083F05AC082F059C081F058C080F0876B88
:10156000866B856B846B20EC03F001E235E157C09C
:1015700063F056C062F055C061F054C060F07FEC7B
:1015800003F003C05FF002C05EF001C05DF000C078
:101590005CF003C083F002C082F001C081F000C0A3
:1015A00080F05BC087F05AC086F059C085F058C003
:1015B00084F0C5EC00F003C05FF002C05EF001C033
:1015C0005DF000C05CF003C063F002C062F001C0D7
:1015D00061F000C060F0AEDCC0EF0BF0000E016EF9
:1015E000C250C30B0110C26E100E006E002EFED74B
:1015F0000000C282C2A201D0FDD7C2B2FED7C4CFC2
:1016000003F0C3CF84F0C4CF85F0AAEC00F003C090
:101610001FF002C01EF001C01DF000C01CF01FC072
:1016200083F01EC082F01DC081F01CC080F0876B6B
:10163000866B200E856F810E846FC5EC00F003C0B1
:101640001FF002C01EF001C01DF000C01CF01FC042
:101650007CF01EC07BF01DC07AF01CC079F0806B5E
:10166000C00E7F6F7F0E7E6F880E7D6F3EEC01F0A7
:1016700003C01FF002C01EF001C01DF000C01CF02E
:101680007C6B500E7B6F430E7A6F8E0E796F1FC08E
:1016900080F01EC07FF01DC07EF01CC07DF03EECCF
:1016A00001F003C023F002C022F001C021F000C00D
:1016B00020F0D88223C087F022C086F021C085F0B8
:1016C00020C084F08B6B400E8A6F1C0E896F8C0ECD
:1016D000886FEBEC01F003C023F002C022F001C0E0
:1016E00021F000C020F023C063F022C062F021C0CE
:1016F00061F020C060F07FEC03F003C027F002C06F
:1017000026F001C025F000C024F027C083F026C0D9
:1017100082F025C081F024C080F03CC087F03BC03F
:1017200086F03AC085F039C084F0C5EC00F003C003
:1017300027F002C026F001C025F000C024F023C02D
:1017400063F022C062F021C061F020C060F07FEC45
:1017500003F003C02BF002C02AF001C029F000C042
:1017600028F02BC057F02AC056F029C055F028C0E9
:1017700054F05B6A5A6A400E596E800E586EC3D59B
:1017800003C02BF002C02AF001C029F000C028F0ED
:101790002BC083F02AC082F029C081F028C080F0DD
:1017A00040C087F03FC086F03EC085F03DC084F069
:1017B000C5EC00F003C02BF002C02AF001C029F0F4
:1017C00000C028F0D89238C087F037C086F036C005
:1017D00085F035C084F027C08BF026C08AF025C084
:1017E00089F024C088F0EBEC01F003C057F002C090
:1017F00056F001C055F000C054F0D89203C087F0F5
:1018000002C086F001C085F000C084F02BC08BF0D0
:101810002AC08AF029C089F028C088F0EBEC01F0DA
:1018200003C02FF002C02EF001C02DF000C02CF03C
:101830007C6B7B6B7A6B7F0E796F2FC080F02EC034
:101840007FF02DC07EF02CC07DF03EEC01F003C097
:101850002FF002C02EF001C02DF000C02CF0D88275
:101860002FC087F02EC086F02DC085F02CC084F0EC
:10187000330E8B6F930E8A6F080E896F870E886FF9
:10188000EBEC01F003C02FF002C02EF001C02DF0F0
:1018900000C02CF02CC000F02DC001F02EC002F0D2
:1018A0002FC003F063EF11F0869F069E190E556E50
:1018B00073EC00F0068E310E006E002EFED700D0C5
:1018C000868FE6EF0CF0420E006E002EFED7000071
:1018D00006BE10D0840E006E002EFED700D0000091
:1018E00006AE08D0520E006E002EFED700D00000CB
:1018F000010E016EE7EF0CF0566A18A000D0546A92
:101900005450070842E3556A06BE0AD0552A55507E
:10191000640802E2188004D000D000D00000F4D7A0
:10192000310E006E002EFED700D006BE11D0070E7D
:10193000D8805454576E010E006E5750016E04E06B
:10194000D8900036012EFCD70050FF0A56161BD047
:10195000070ED8805454576E010E006E5750016E1A
:1019600004E0D8900036012EFCD70050561206AE87
:101970000AD0552A5550640802E2188004D000D0DD
:1019800000D00000F4D7542ABBD756C001F0120093
:101990005550016A545C03E254C000F00CD0006A58
:1019A000080E566E543600365550005CD8B0006EA6
:1019B0000136562EF7D71200040E546EFA0E556EED
:1019C00073EC00F0542EFAD718906ED77CD70152E2
:1019D00025E092DF01C019F08FDF01C01AF08CDF23
:1019E00001C01BF01A5019241B5C18E119C054F0F7
:1019F0000A0E556ECDDF300E0124116E19C054F061
:101A00000A0E556EC5DF300E0024126E1AC054F057
:101A10000A0E556EBDDF300E0124146E0A0E016EE3
:101A2000000E026E6DEF11F0848061C083FF84822E
:101A300000D000D000008492420E006E002EFED72F
:101A4000000012000900F5520CE0F6CF54F0F7CF79
:101A500055F0F5CF61F0E8DF54C0F6FF55C0F7FF51
:101A6000F1D71200080E016EC250C30B0110C26EF6
:101A7000100E006E002EFED70000C2B2FED7C2824A
:101A8000C2B2FED7C3CF42F0C4CF43F043C085F00B
:101A900042C084F0AAEC00F003C04BF002C04AF050
:101AA00001C049F000C048F04BC083F04AC082F04A
:101AB00049C081F048C080F0876B866B856B7E0ED5
:101AC000846FC5EC00F003C057F002C056F001C0AF
:101AD00055F000C054F003C07CF002C07BF001C0A0
:101AE0007AF000C079F0140E806FAE0E7F6F230E77
:101AF0007E6F820E7D6F3EEC01F003C04BF002C0A2
:101B00004AF001C049F000C048F0D8924BC087F0BD
:101B10004AC086F049C085F048C084F0CD0E8B6F76
:101B2000CC0E8A6F4C0E896F7D0E886FEBEC01F046
:101B300003C057F002C056F001C055F000C054F089
:101B400003C083F002C082F001C081F000C080F0C9
:101B5000876B866B856B800E846FC5EC00F003C0CD
:101B600083F002C082F001C081F000C080F01FEC61
:101B700005F0856B01C084F0AAEC00F003C057F0BB
:101B800002C056F001C055F000C054F003C083F00D
:101B900002C082F001C081F000C080F0876B866BCC
:101BA000856B7E0E846FC5EC00F003C04BF002C065
:101BB0004AF001C049F000C048F0E2EF0FF0090020
:101BC000F6CF55F0F7CF56F0F5CF61F02DDF55C0C9
:101BD000F6FF56C0F7FF542EF2D712006151B60837
:101BE000616F036A62C065F0628FD89062336333BD
:101BF00064330332023201320032612FF6D765AF0F
:101C00000BD0001E011E021E031E002AD8B4012A9A
:101C1000D8B4022AD8B4032A7DEF0EF0D8B203D08C
:101C2000EA6A690EE96E006A016A026A036A696B10
:101C30006A6B6B6B6C6B68516711661165112CE0F8
:101C4000200E6D6FD890613762376337643769371C
:101C50006A376B376C3768516C5D08E167516B5DB3
:101C600005E166516A5D02E16551695D0FE3655109
:101C7000695F6651D8A0663D6A5F6751D8A0673D2D
:101C80006B5F6851D8A0683D6C5FD8800036013624
:101C9000023603366D2FD6D769C0EFFF6AC0ECFF5E
:101CA0006BC0ECFF6CC0ECFF1200E950596E58504D
:101CB0005B6E1AE057C083F056C082F055C081F0C9
:101CC00054C080F0876B866B200E856F820E846F08
:101CD000C5EC00F003C057F002C056F001C055F04B
:101CE00000C054F05B2EE6D757C064F056C063F0D6
:101CF00055C062F054C061F071D703C057F002C004
:101D000056F001C055F000C054F057AE0DD0590642
:101D1000598A541E551E561E571E542AD8B4552A89
:101D2000D8B4562AD8B4572A3B0E606F9A0E5F6E0D
:101D3000CA0E5E6E5D6A0A0E5B6E5850D8B4592AA0
:101D4000D882EA6A540EE96E57C064F056C063F058
:101D500055C062F054C061F060C068F05FC067F0C9
:101D60005EC066F05DC065F059DF015000520FE1C2
:101D700058285B5C0CE059500CE00F0B5B5C01E0F9
:101D800037E259BE35D059BC04D0200E2DD0200EDC
:101D9000591659AA0CD0599A5850D8A4590600502F
:101DA000596E2D0E616F40DE5950006E596A5850C1
:101DB0005B5C0AE10050596E2E0E616F35DE5950A2
:101DC000006E200E5916000E300E59AA0DD0599AE9
:101DD0005850D8A459060050596E2D0E616F24DE5C
:101DE0005950006E596A300E002600C061F01CDEAA
:101DF000D89260C064F05FC063F05EC062F05DC006
:101E000061F0686B676B666B0A0E656F07DF03C076
:101E100060F002C05FF001C05EF000C05DF05B2EBC
:101E20008FD71200080E016EC250C30B0110C26E94
:101E3000100E006E002EFED70000C2B2FED7C28286
:101E4000C2B2FED7C3CF42F0C4CF43F043C085F047
:101E500042C084F0AAEC00F003C04BF002C04AF08C
:101E600001C049F000C048F04BC083F04AC082F086
:101E700049C081F048C080F0876B866B200E856F6B
:101E8000820E846FC5EC00F003C057F002C056F01C
:101E900001C055F000C054F003C07CF002C07BF0DC
:101EA00001C07AF000C079F09A0E806F990E7F6FB2
:101EB0004C0E7E6F850E7D6F3EEC01F003C04BF043
:101EC00002C04AF001C049F000C048F0D8924BC0AF
:101ED00087F04AC086F049C085F048C084F0CD0E36
:101EE0008B6FCC0E8A6F4C0E896F7D0E886FEBEC7A
:101EF00001F003C057F002C056F001C055F000C019
:101F000054F003C083F002C082F001C081F000C031
:101F100080F0876B866B856B800E846FC5EC00F05C
:101F200003C083F002C082F001C081F000C080F0E5
:101F30001FEC05F0856B01C084F0AAEC00F003C033
:101F400057F002C056F001C055F000C054F003C075
:101F500083F002C082F001C081F000C080F0876B86
:101F6000866B856B7E0E846FC5EC00F003C04BF072
:101F700002C04AF001C049F000C048F021EF10F063
:101F8000472A86EC00F04750050801E1476A472CD4
:101F900016D0040EF66E000EF76E54DDC00E546EB1
:101FA00065EC00F0120EF66E000EF76E4BDD040EBF
:101FB000546EFA0E556E73EC00F0542EFAD7472C7F
:101FC0003CD050D51E0EF66E000EF76E3BDDC00EF7
:101FD000546E65EC00F02C0EF66E000EF76E0A0ED5
:101FE000546EEDDD890EE96E4BC057F04AC056F0D5
:101FF00049C055F048C054F0010E586E56DE3A0EF6
:10200000F66E000EF76E070E546ED9DD020E546E9A
:10201000C80E556E73EC00F0542EFAD781B80CD070
:1020200086EC00F04BC04FF04AC04EF049C04DF076
:1020300048C04CF0020E476EC2D7475002083CE140
:10204000F1D6420EF66E000EF76EFCDCC00E546E3A
:1020500065EC00F0500EF66E000EF76E090E546E31
:10206000AEDD890EE96E4BC057F04AC056F049C04C
:1020700055F048C054F0010E586E17DE5D0EF66E36
:10208000000EF76E060E546E9ADD020E546EC80EE8
:10209000556E73EC00F0542EFAD781B80CD086EC54
:1020A00000F04BC053F04AC052F049C051F048C054
:1020B00050F0040E476EC1D747500408D8A489D009
:1020C000800E546E65EC00F0640EF66E000EF76E36
:1020D0000B0E546E74DD890EE96E4FC057F04EC082
:1020E00056F04DC055F04CC054F0010E586EDDDD79
:1020F000730EF66E000EF76E080E546E60DD080E5D
:10210000546EFA0E556E73EC00F0542EFAD7C00ED2
:10211000546E65EC00F07C0EF66E000EF76E0B0E42
:10212000546E4DDD890EE96E53C057F052C056F023
:1021300051C055F050C054F0010E586EB6DD8B0EF4
:10214000F66E000EF76E070E546E39DD080E546EF3
:10215000FA0E556E73EC00F0542EFAD7050E476E4A
:1021600086EC00F0800E546E65EC00F0940EF66E76
:10217000000EF76E67DCC00E546E65EC00F09C0E2E
:10218000F66E000EF76E5EDC040E546EFA0E556E9F
:1021900073EC00F0542EFAD786EC00F0800E546EEB
:1021A00065EC00F0AA0EF66E000EF76E4BDCC00E6A
:1021B000546E65EC00F0BA0EF66E000EF76E42DC5F
:1021C000040E546EFA0E556E73EC00F0542EFAD7CE
:1021D00073D77DEF11F0F86AD09E1F6A1E6A1D6AE0
:1021E0001C6A236A226A216A206A276A266A256A8B
:1021F000246A2B6A2A6A296A286A2F6A2E6A2D6A3B
:102200002C6A336A326A316A306A930E386E260E4F
:10221000376E140E366E750E356E0E0E3C6E430E16
:102220003B6E750E3A6E720E396EDC0E406E540EB9
:102230003F6E3E0E3E6E670E3D6E416A010E456E6C
:10224000900E446E466A476A4F6A4E6A4D6A4C6AFF
:10225000536A526A516A506AC150C00B0F09C16E6D
:10226000070EB46E046A056A520E0A6E480E0B6EB3
:10227000A00E0C6E0D6E0E6E3D0E0F6EA00E106E4B
:10228000300E116E126E2E0E136E300E146EA00EE6
:10229000156E250E166E176AC050C00B0209C06E6F
:1022A000C08EC280C150C00B0C09C16E0F0E926E61
:1022B000D00E936E000E946E956E040E966E8DEF9A
:1022C00000F0EEEF0AF003C033F002C032F001C0BC
:1022D00031F000C030F0DCEF0CF001C034F081B818
:1022E0000DD046B00AD0445202E1455205E04450B8
:1022F000D8B44506440601D043D605D0010E456E3C
:10230000900E446E469033C083F032C082F031C0EC
:1023100081F030C080F04FC087F04EC086F04DC0D5
:1023200085F04CC084F020EC03F001E202E18290E1
:1023300081844FC083F04EC082F04DC081F04CC00C
:1023400080F033C087F032C086F031C085F030C0F5
:1023500084F020EC03F002E382808194B2D7030082
:020000040030CA
:0E0000003FCC381E0087A1000FC00FE00F405C
:00000001FF
;PIC18F4550
;CRC=2CC0  CREATED="28-jun-17 19:55"
