:10000000E9EF0DF0849035C083FF848200D000D0EA
:1000100000008492420E006E002EFED700001200F7
:10002000EA6A360EE96EEF500DE0060E016E006AC8
:10003000002EFED7012EFBD77B0E006E002EFED7C2
:10004000EF2EF3D71200010E356EDCDF020E366E96
:10005000E7DF40EF00F0300E356ED4DF040E366E71
:10006000DFDF300E356ECEDFA60E006E002EFED71F
:100070000000300E356EC6DF380E356EC3DFE3D7B5
:100080000C0E356EBFDF060E356EBCDF38EF0EF09E
:100090008E0E006E66C001F065C002F0036A015268
:1000A00009E102C001F0026A080E005E015202E19D
:1000B000006A08D0D89001BE04D00236013600068E
:1000C000F9D7019E12006151D8B471D0006E65510C
:1000D000D8B46DD0002604E3810E002668E204D077
:1000E0007F0E005E64E363E062C069F06651691BE5
:1000F000628F668F64516803F4CF6BF063516703BE
:10010000F4CF03F0F3CF6AF06803F3506B27F45099
:100110006A23000E032264516703F3506B27F450E7
:100120006A23000E026A0322022262516803F3501E
:100130006A27F4500322000E022262516703F35033
:100140000326F4500222000E016A01226451660364
:10015000F3506A27F4500322000E02220122635159
:100160006603F3500326F4500222000E012262516E
:100170006603F3500226F4500122002A01BE05D086
:100180006A370336023601360006000E6AAF0AD01F
:10019000032A02220122015005E1025003E103502B
:1001A00001E1002A69BF018E69AF019E04D0006A97
:1001B000016A026A036A12005A50D8B4A5D0666F69
:1001C0005E50D8B4A1D0665F05E37F0E6627D8B035
:1001D0009BD006D0810E665FD8A096D0D8B494D0BC
:1001E00066C000F0016A026A036A656B5BC064F076
:1001F000648F5CC063F05DC062F0190E666F615180
:10020000625F0DE2010E635F0AE2645F08E2655F10
:1002100006E2652B642B632B6151622728D0605165
:10022000635F12E2010E645F0FE2655F0DE2652B12
:10023000642B605163276151622719E3632B17E137
:10024000642B15E1652B13D05F508009645F0EE2CB
:10025000010E655F0BE2652B5F50800964276051DA
:100260006327E9E3642BE7E1652BE5D70380662F7D
:1002700001D00BD0D8906237633764376537D89098
:100280000336023601366737BAD767A106D0D89051
:10029000013202320332673302D0000635E067BF15
:1002A0001ED0D89062376337643765376151625F1B
:1002B00007E2010E635F04E2645F02E2655F1AE336
:1002C0006051635F05E2010E645F02E2655F12E365
:1002D0005F508009645F03E2010E655F0BE3032A50
:1002E00009E1022A07E1012A05E1002A0DE00132B5
:1002F000023203325BC066F05F50661B66AF02D00D
:10030000018E06D0019E04D0006A016A026A036A67
:100310001200800ED8B26A1B6F6B706B66C06EF0F5
:100320006A516E1B6551D8B4DCD06D6F006E695197
:10033000D8B4E0D06D5FD8B481D03DE36AC073F02B
:10034000738F6BC072F06CC071F0706BD8907333A8
:100350007233713370336D2FF8D76EAF03D06F8166
:10036000DDD06F916D916F89EA6A680EE96EE9D010
:100370006F996EBF0AD06DA113D07333723371338E
:100380007033002AD8B4C5D00BD073BF0CD0D8902E
:1003900070377137723773370006D8B4BAD0F5D7D3
:1003A0006F8D6BD06F9D66C06EF066AF02D0738F9D
:1003B000A9D0739FA7D069C06DF069C000F06551E6
:1003C0006D5F66C073F0738F67C072F068C071F0C4
:1003D000706BD89073337233713370336D2FF8D7DD
:1003E0006EAF03D06F839AD06F936D916F8BEA6A73
:1003F0006C0EE96EA6D06F9B6EBF0AD06DA113D0B4
:100400007333723371337033002AD8B482D00BD077
:1004100073BF0CD0D89070377137723773370006BE
:10042000D8B477D0F5D76F8F28D06F9F6AC06EF0A1
:100430006AAF02D0738F66D0739F64D06AC073F0C6
:10044000738F6BC072F06CC071F06EAF04D0739F8D
:100450006F8564D06F95706B6D91EA6A680EE96E76
:1004600070D06EBF1CD066C06EF06DA106D0733325
:10047000723371337033002A4CE070AF0BD0712BA4
:1004800009E1722B07E1732B05E17333723371338A
:10049000002A3FE06FBD86D76FBFC7D71CD0800E44
:1004A000731B73AF04D03AD06AC06EF00AD066C036
:1004B0006EF0735306E1725304E1715302E1006A76
:1004C00021D073BF08D0D890703771377237733727
:1004D000002EF7D71ED06EAF02D0738F13D0739F4C
:1004E00011D069C000F06AC073F06BC072F06CC0CC
:1004F00071F008D065C000F066C073F067C072F09C
:1005000068C071F073C001F072C002F071C003F0F6
:1005100034D0006A016A026A036A2FD0706B711FBF
:10052000721F731F701F702B05E1712B03E1722B7B
:1005300001E1732B6FB115D76FB356D76FB58AD75B
:10054000B3D7EF50712705E3722B03E1732BD8B4B7
:100550006D81ED52EF50722703E3732BD8B46D8198
:10056000ED52EF50EFBE01D0800A7327D8B06D81F5
:100570006FB9FED66FBB3FD774D7120062C069F067
:100580006651691B69AF05D0D894D89062BFD880F6
:100590002FD062C069F065C06AF061516A5F06E001
:1005A00069AF26D0D850010AD86E22D066C06AF052
:1005B00062516A5F06E069AF1BD0D850010AD86E5D
:1005C00017D067C06AF063516A5F06E069AF10D068
:1005D000D850010AD86E0CD068C06AF064516A5FC6
:1005E00006E069AF05D0D850010AD86E01D0D89086
:1005F00012008E0E006E58C001F057C002F0036A60
:1006000058AE05D0011E021E022A01E1012A015244
:1006100009E102C001F0026A080E005E015202E127
:10062000006A0AD0D89001BE04D002360136000616
:10063000F9D758BE01D0019E120044C048F043C013
:1006400047F042C046F041C045F048C064F047C0A2
:1006500063F046C062F045C061F0686B676B666B23
:100660007F0E656F8BDFD8B47BD1576A450EE96E7C
:1006700057C0EAFF7E0EEF6ED88248C068F047C0D0
:1006800067F046C066F045C065F06C6B6B6B6A6BDB
:100690007F0E696F3EDE03C059F002C058F001C002
:1006A00057F000C056F0D89248C068F047C067F0D5
:1006B00046C066F045C065F06C6B6B6B6A6B7F0E75
:1006C000696F27DE59C05DF058C05CF057C05BF021
:1006D00056C05AF003C061F002C060F001C05FF084
:1006E00000C05EF069DD03C048F002C047F001C001
:1006F00046F000C045F048C064F047C063F046C013
:1007000062F045C061F048C068F047C067F046C07D
:1007100066F045C065F0D7DC03C054F002C053F06A
:1007200001C052F000C051F0990E646F470E636F24
:100730008A0E626F7F0E616F54C068F053C067F01D
:1007400052C066F051C065F0BEDC03C059F002C073
:1007500058F001C057F000C056F0D89203C068F0BE
:1007600002C067F001C066F000C065F06C6B6B6B97
:100770006A6B800E696FCDDD03C04CF002C04BF098
:1007800001C04AF000C049F04C0E646FF30E636F75
:100790003A0E626F7B0E616F54C068F053C067F011
:1007A00052C066F051C065F08EDC03C059F002C043
:1007B00058F001C057F000C056F0D89203C068F05E
:1007C00002C067F001C066F000C065F02B0E6C6FD0
:1007D0009D0E6B6FDF0E6A6F7E0E696F9ADD03C030
:1007E00050F002C04FF001C04EF000C04DF050C0BC
:1007F00064F04FC063F04EC062F04DC061F054C071
:1008000068F053C067F052C066F051C065F05BDC21
:1008100003C059F002C058F001C057F000C056F0B4
:10082000D89203C068F002C067F001C066F000C053
:1008300065F06C6B6B6B6A6B7F0E696F6ADD03C072
:1008400050F002C04FF001C04EF000C04DF048C063
:1008500064F047C063F046C062F045C061F04CC030
:1008600068F04BC067F04AC066F049C065F02BDC09
:1008700003C059F002C058F001C057F000C056F054
:1008800003C05DF002C05CF001C05BF000C05AF034
:1008900050C061F04FC060F04EC05FF04DC05EF0E0
:1008A0008BDC03C04CF002C04BF001C04AF000C02A
:1008B00049F0576A410EE96E57C0EAFF7E0EEF5CC1
:1008C000556E55AE12D0000ED8805554586A576EEA
:1008D00057BE58068EDE00C04DF00150800A4E6EA5
:1008E00002C04FF003C050F00ED0586A55C057F008
:1008F00057BE58067EDE03C050F002C04FF001C064
:100900004EF000C04DF050C064F04FC063F04EC0D8
:1009100062F04DC061F0180E686F720E676F310E95
:10092000666F7E0E656F63EC00F0D8924CC068F085
:100930004BC067F04AC066F049C065F003C06CF078
:1009400002C06BF001C06AF000C069F0E2DC03C0D5
:100950004CF002C04BF001C04AF000C049F004D096
:100960004C6A4B6A4A6A496A49C000F04AC001F0C1
:100970004BC002F04CC003F012008E0E006E6151AD
:10098000005E62C002F063C001F0028E005209E016
:10099000D890025202E1015204E002320132002EEC
:1009A000F7D762AF05D0011E021E012AD8B4022A71
:1009B0001200609154C059F053C058F052C057F023
:1009C00051C056F054C064F053C063F052C062F09E
:1009D00051C061F0686B676B666B656BCFDD04E3DC
:1009E00060815750800A576E59C064F058C063F058
:1009F00057C062F056C061F0686B676B666B8E0E15
:100A0000656FBCDD01E218E159C064F058C063F0C5
:100A100057C062F056C061F0B0DF02C066F001C09E
:100A200065F048EC00F003C05DF002C05CF001C06E
:100A30005BF000C05AF0C5D059C064F058C063F0F4
:100A400057C062F056C061F0800E686F960E676FF7
:100A5000180E666F960E656F91DDD8A0AAD059C0AA
:100A600064F058C063F057C062F056C061F0686B24
:100A7000676B666B700E656F63EC00F003C064F02B
:100A800002C063F001C062F000C061F076DF02C016
:100A90005FF001C05EF059C064F058C063F057C009
:100AA00062F056C061F0686B676B666B700E656FC5
:100AB00063EC00F003C064F002C063F001C062F0B8
:100AC00000C061F05FC066F05EC065F048EC00F009
:100AD000D88264C068F063C067F062C066F061C02D
:100AE00065F003C06CF002C06BF001C06AF000C09A
:100AF00069F00FDC646B636B626B8E0E616F03C019
:100B000068F002C067F001C066F000C065F063ECF9
:100B100000F003C059F002C058F001C057F000C007
:100B200056F05FC066F05EC065F048EC00F0646BA4
:100B3000636B626B8E0E616F03C068F002C067F07A
:100B400001C066F000C065F063EC00F003C05DF02A
:100B500002C05CF001C05BF000C05AF059C064F004
:100B600058C063F057C062F056C061F006DF02C0A3
:100B700066F001C065F048EC00F0D8925DC068F006
:100B80005CC067F05BC066F05AC065F003C06CF0F3
:100B900002C06BF001C06AF000C069F089EC01F09E
:100BA00003C05DF002C05CF001C05BF000C05AF011
:100BB00008D059C05DF058C05CF057C05BF056C01B
:100BC0005AF059C064F058C063F057C062F056C084
:100BD00061F0D3DE02C066F001C065F048EC00F0C1
:100BE000D88259C068F058C067F057C066F056C048
:100BF00065F003C06CF002C06BF001C06AF000C089
:100C000069F089EC01F003C059F002C058F001C04E
:100C100057F000C056F060A103D05B50800A5B6EB5
:100C200059C064F058C063F057C062F056C061F01C
:100C3000686B676B666B656BA1DC38E060A11AD0EE
:100C4000555218E1D8825DC068F05CC067F05BC0A7
:100C500066F05AC065F06C6B6B6B6A6B7F0E696FE8
:100C600089EC01F003C05DF002C05CF001C05BF0F4
:100C700000C05AF060B11AD0552C18D0D8925DC07F
:100C800068F05CC067F05BC066F05AC065F06C6BE2
:100C90006B6B6A6B7F0E696F89EC01F003C05DF0CE
:100CA00002C05CF001C05BF000C05AF054C064F0B8
:100CB00053C063F052C062F051C061F0686B676B63
:100CC000666B656B5BDC04E15D6A5C6A5B6A5A6A51
:100CD0005AC000F05BC001F05CC002F05DC003F0E0
:100CE000120050C054F04FC053F04EC052F04DC0EF
:100CF00051F0010E556E5DDEE5EF06F050C054F088
:100D00004FC053F04EC052F04DC051F0556A51DE05
:100D100009EF07F044C064F043C063F042C062F0E2
:100D200041C061F0686B676B666B656B27DCD8B49C
:100D30009ED040C05DF03FC05CF03EC05BF03DC067
:100D40005AF044C061F043C060F042C05FF041C05F
:100D50005EF0DCEC00F003C04CF002C04BF001C0D0
:100D60004AF000C049F003C064F002C063F001C063
:100D700062F000C061F0686B676B666B656BBEEC20
:100D800002F024E340C05DF03FC05CF03EC05BF089
:100D90003DC05AF044C061F043C060F042C05FF013
:100DA00041C05EF0DCEC00F003C04CF002C04BF040
:100DB00001C04AF000C049F003C050F002C04FF03B
:100DC00001C04EF000C04DF08CD723D040C05DF084
:100DD0003FC05CF03EC05BF03DC05AF044C061F0E3
:100DE00043C060F042C05FF041C05EF0DCEC00F058
:100DF00003C04CF002C04BF001C04AF000C049F003
:100E000003C050F002C04FF001C04EF000C04DF0E2
:100E100075D703C048F002C047F001C046F000C0DB
:100E200045F048C064F047C063F046C062F045C07A
:100E300061F044C068F043C067F042C066F041C052
:100E400065F063EC00F0D88240C068F03FC067F006
:100E50003EC066F03DC065F003C06CF002C06BF0B0
:100E600001C06AF000C069F089EC01F000D0120006
:100E700044C064F043C063F042C062F041C061F01E
:100E80003B0E686FAA0E676F380E666F7F0E656F38
:100E900063EC00F003C064F002C063F001C062F0D4
:100EA00000C061F06ADD01C051F0529044C048F0CA
:100EB00043C047F042C046F041C045F044C064F032
:100EC00043C063F042C062F041C061F0686B676B81
:100ED000666B656BBEEC02F005E35280516C4650C8
:100EE000800A466E4C6A4B6A4A6A496A546A490EDD
:100EF000E96E54C0EAFF7F0E5124EF6E48C064F0E3
:100F000047C063F046C062F045C061F03B0E686FB9
:100F1000AA0E676F380E666F7F0E656F63EC00F088
:100F200003C056F002C055F001C054F000C053F0A9
:100F3000586A51C057F057BE5806F9EC02F0D882F3
:100F400056C068F055C067F054C066F053C065F0F5
:100F500003C06CF002C06BF001C06AF000C069F021
:100F600089EC01F003C048F002C047F001C046F030
:100F700000C045F07C0E646F880E636F590E626F7F
:100F8000720E616F48C068F047C067F046C066F0F7
:100F900045C065F063EC00F003C056F002C055F0A8
:100FA00001C054F000C053F0D89203C068F002C0F2
:100FB00067F001C066F000C065F0E00E6C6F970E40
:100FC0006B6F260E6A6F750E696F89EC01F003C0B6
:100FD00050F002C04FF001C04EF000C04DF050C0C4
:100FE00064F04FC063F04EC062F04DC061F048C085
:100FF00068F047C067F046C066F045C065F063EC36
:1010000000F003C056F002C055F001C054F000C01B
:1010100053F0D89203C068F002C067F001C066F0D8
:1010200000C065F0C40E6C6F1D0E6B6F1E0E6A6FF4
:10103000780E696F89EC01F003C050F002C04FF0E8
:1010400001C04EF000C04DF050C064F04FC063F0DE
:101050004EC062F04DC061F048C068F047C067F014
:1010600046C066F045C065F063EC00F003C056F082
:1010700002C055F001C054F000C053F0D89203C034
:1010800068F002C067F001C066F000C065F05E0E57
:101090006C6F500E6B6F630E6A6F7A0E696F89EC1E
:1010A00001F003C050F002C04FF001C04EF000C08C
:1010B0004DF050C064F04FC063F04EC062F04DC0C0
:1010C00061F048C068F047C067F046C066F045C0B0
:1010D00065F063EC00F003C056F002C055F001C0AB
:1010E00054F000C053F0D89203C068F002C067F01B
:1010F00001C066F000C065F01A0E6C6FFE0E6B6FDB
:10110000750E6A6F7C0E696F89EC01F003C050F0B8
:1011100002C04FF001C04EF000C04DF050C064F06E
:101120004FC063F04EC062F04DC061F048C068F03F
:1011300047C067F046C066F045C065F063EC00F05C
:1011400003C056F002C055F001C054F000C053F087
:10115000D89203C068F002C067F001C066F000C01A
:1011600065F0180E6C6F720E6B6F310E6A6F7E0E2B
:10117000696F89EC01F003C050F002C04FF001C06C
:101180004EF000C04DF048C064F047C063F046C068
:1011900062F045C061F050C068F04FC067F04EC0CB
:1011A00066F04DC065F063EC00F0D892686B676B39
:1011B000666B7F0E656F03C06CF002C06BF001C000
:1011C0006AF000C069F089EC01F04CC064F04BC0DB
:1011D00063F04AC062F049C061F003C068F002C029
:1011E00067F001C066F000C065F063EC00F003C07A
:1011F0004CF002C04BF001C04AF000C049F052A0D0
:1012000017D05D6A5C6A5B6A7F0E5A6E4CC061F0F3
:101210004BC060F04AC05FF049C05EF0DCEC00F00B
:1012200003C04CF002C04BF001C04AF000C049F0CE
:1012300049C000F04AC001F04BC002F04CC003F0BE
:10124000120038C064F037C063F036C062F035C0B9
:1012500061F0686B676B666B656BBEEC02F0D8A0E3
:10126000CBD03CC040F03BC03FF03AC03EF039C06C
:101270003DF0446A436A426A7F0E416E4BDD03C013
:1012800040F002C03FF001C03EF000C03DF003C09E
:1012900064F002C063F001C062F000C061F0686BEE
:1012A000676B666B656BBEEC02F0D8A4A5D03CC042
:1012B00040F03BC03FF03AC03EF039C03DF0446AD8
:1012C000436A426A800E416E25DD03C040F002C0D1
:1012D0003FF001C03EF000C03DF003C064F002C02A
:1012E00063F001C062F000C061F0686B676B666B11
:1012F000656BBEEC02F03FE135C03DF03650800A30
:101300003E6E37C03FF038C040F038C044F037C0C0
:1013100043F0426E35C041F01DEC03F003C040F0D5
:1013200002C03FF001C03EF000C03DF003C064F0D9
:1013300002C063F001C062F000C061F03CC068F020
:101340003BC067F03AC066F039C065F063EC00F06E
:1013500003C040F002C03FF001C03EF000C03DF0CD
:1013600003C044F002C043F001C042F000C041F0AD
:101370007FDDD0D040D035C03DF03650800A3E6E83
:1013800037C03FF038C040F038C044F037C043F0B9
:10139000426E35C041F01DEC03F003C040F002C0C6
:1013A0003FF001C03EF000C03DF003C064F002C059
:1013B00063F001C062F000C061F03CC068F03BC067
:1013C00067F03AC066F039C065F063EC00F003C026
:1013D00040F002C03FF001C03EF000C03DF003C04D
:1013E00044F002C043F001C042F000C041F040DDD3
:1013F000800E011A8FD08ED038C064F037C063F0F1
:1014000036C062F035C061F0686B676B666B656B08
:10141000BEEC02F02BE33CC040F03BC03FF03AC0D2
:101420003EF039C03DF0446A436A426A7F0E416E25
:1014300071DC03C040F002C03FF001C03EF000C0CC
:101440003DF003C064F002C063F001C062F000C070
:1014500061F0686B676B666B656BBEEC02F006E073
:10146000006A016A026A036A55D054D038C064F039
:1014700037C063F036C062F035C061F0686B676BEF
:10148000666B656BBEEC02F010E13CC064F03BC0E3
:1014900063F03AC062F039C061F0686B676B666BED
:1014A000656BBEEC02F001E235E138C044F037C0B4
:1014B00043F036C042F035C041F01DEC03F003C0EC
:1014C00040F002C03FF001C03EF000C03DF003C05C
:1014D00064F002C063F001C062F000C061F03CC083
:1014E00068F03BC067F03AC066F039C065F063EC65
:1014F00000F003C040F002C03FF001C03EF000C069
:101500003DF003C044F002C043F001C042F000C00F
:1015100041F0AEDC5AEF0BF0000E016EC250C30B6F
:101520000110C26E100E006E002EFED70000C282A7
:10153000C2B2FED7C4CF03F0C3CF65F0C4CF66F00C
:1015400048EC00F003C01FF002C01EF001C01DF007
:1015500000C01CF01FC064F01EC063F01DC062F02C
:101560001CC061F0686B676B200E666F810E656F43
:1015700063EC00F003C01FF002C01EF001C01DF0BC
:1015800000C01CF01FC05DF01EC05CF01DC05BF011
:101590001CC05AF0616BC00E606F7F0E5F6E880ECC
:1015A0005E6EDCEC00F003C01FF002C01EF001C054
:1015B0001DF000C01CF05D6AE80E5C6E5B6A8E0E6A
:1015C0005A6E1FC061F01EC060F01DC05FF01CC0ED
:1015D0005EF0DCEC00F003C023F002C022F001C09A
:1015E00021F000C020F0D88223C068F022C067F04C
:1015F00021C066F020C065F06C6B400E6B6F1C0E56
:101600006A6F8C0E696F89EC01F003C023F002C091
:1016100022F001C021F000C020F023C044F022C01D
:1016200043F021C042F020C041F01DEC03F003C0A4
:1016300027F002C026F001C025F000C024F027C02A
:1016400064F026C063F025C062F024C061F00E0E85
:10165000686F430E676F750E666F720E656F63EC91
:1016600000F003C027F002C026F001C025F000C042
:1016700024F023C044F022C043F021C042F020C037
:1016800041F01DEC03F003C02BF002C02AF001C0B2
:1016900029F000C028F02BC038F02AC037F029C04C
:1016A00036F028C035F03C6A3B6A400E3A6E800E38
:1016B000396EC7D503C02BF002C02AF001C029F053
:1016C00000C028F02BC064F02AC063F029C062F08B
:1016D00028C061F0DC0E686F540E676F3E0E666FB7
:1016E000670E656F63EC00F003C02BF002C02AF0B8
:1016F00001C029F000C028F0D892930E686F260E22
:10170000676F140E666F750E656F27C06CF026C08C
:101710006BF025C06AF024C069F089EC01F003C0C9
:1017200038F002C037F001C036F000C035F0D89272
:1017300003C068F002C067F001C066F000C065F049
:101740002BC06CF02AC06BF029C06AF028C069F089
:1017500089EC01F003C02FF002C02EF001C02DF083
:1017600000C02CF05D6A5C6A5B6A7F0E5A6E2FC007
:1017700061F02EC060F02DC05FF02CC05EF0DCEC9C
:1017800000F003C02FF002C02EF001C02DF000C009
:101790002CF0D8822FC068F02EC067F02DC066F004
:1017A0002CC065F0330E6C6F930E6B6F080E6A6F72
:1017B000870E696F89EC01F003C02FF002C02EF094
:1017C00001C02DF000C02CF0020E356EFA0E366E00
:1017D00010EC00F0352EFAD72CC000F02DC001F02F
:1017E0002EC002F02FC003F039EF0EF0869F069E48
:1017F000190E366E10EC00F0068E310E006E002EC3
:10180000FED700D0868F88EF0CF0420E006E002EBF
:10181000FED7000006BE10D0840E006E002EFED74C
:1018200000D0000006AE08D0520E006E002EFED78B
:1018300000D00000010E016E89EF0CF0376A18A08D
:1018400000D0356A3550070842E3366A06BE0AD032
:10185000362A3650640802E2188004D000D000D046
:101860000000F4D7310E006E002EFED700D006BE69
:1018700011D0070ED8803554386E010E006E3850E6
:10188000016E04E0D8900036012EFCD70050FF0A0C
:1018900037161BD0070ED8803554386E010E006EF7
:1018A0003850016E04E0D8900036012EFCD700506D
:1018B000371206AE0AD0362A3650640802E2188083
:1018C00004D000D000D00000F4D7352ABBD737C0F1
:1018D00001F012003650016A355C03E235C000F0B9
:1018E0000CD0006A080E376E353600363650005C74
:1018F000D8B0006E0136372EF7D71200040E356EC1
:10190000FA0E366E10EC00F0352EFAD718906ED71E
:101910007CD7015225E092DF01C019F08FDF01C0B2
:101920001AF08CDF01C01BF01A5019241B5C18E15F
:1019300019C035F00A0E366ECDDF300E0124116E5F
:1019400019C035F00A0E366EC5DF300E0024126E57
:101950001AC035F00A0E366EBDDF300E0124146E4B
:101960000A0E016E000E026E42EF0EF04250B608F3
:10197000426E036A43C046F0438ED89043324432ED
:1019800045320332023201320032422EF6D746AEE1
:101990000BD0001E011E021E031E002AD8B4012A0D
:1019A000D8B4022AD8B4032A53EF0DF0D8B203D02A
:1019B000EA6A4A0EE96E006A016A026A036A4A6AC2
:1019C0004B6A4C6A4D6A49504810471046102CE04B
:1019D000200E4E6ED89042364336443645364A364F
:1019E0004B364C364D3649504D5C08E148504C5C06
:1019F00005E147504B5C02E146504A5C0FE346501C
:101A00004A5E4750D8A0473C4B5E4850D8A0483C5F
:101A10004C5E4950D8A0493C4D5ED8800036013616
:101A2000023603364E2ED6D74AC0EFFF4BC0ECFF2E
:101A30004CC0ECFF4DC0ECFF1200848042C083FF1D
:101A4000848200D000D000008492420E006E002EEE
:101A5000FED700001200E9503A6E39503C6E1AE091
:101A600038C064F037C063F036C062F035C061F052
:101A7000686B676B200E666F820E656F63EC00F01B
:101A800003C038F002C037F001C036F000C035F0B6
:101A90003C2EE6D738C045F037C044F036C043F09E
:101AA00035C042F063D703C038F002C037F001C040
:101AB00036F000C035F038AE0DD03A063A8A351E01
:101AC000361E371E381E352AD8B4362AD8B4372ADF
:101AD000D8B4382A3B0E416E9A0E406ECA0E3F6E45
:101AE0003E6A0A0E3C6E3950D8B43A2AD882EA6A65
:101AF000350EE96E38C045F037C044F036C043F0CB
:101B000035C042F041C049F040C048F03FC047F006
:101B10003EC046F04BDF015000520FE139283C5CDB
:101B20000CE03A500CE00F0B3C5C01E037E23ABEAF
:101B300035D03ABC04D0200E2DD0200E3A163AAA49
:101B40000CD03A9A3950D8A43A0600503A6E2D0E6D
:101B5000426E73DF3A50006E3A6A39503C5C0AE1DB
:101B600000503A6E2E0E426E68DF3A50006E200E24
:101B70003A16000E300E3AAA0DD03A9A3950D8A42F
:101B80003A0600503A6E2D0E426E57DF3A50006E04
:101B90003A6A300E002600C042F04FDFD89241C0B2
:101BA00045F040C044F03FC043F03EC042F0496AB7
:101BB000486A476A0A0E466EF9DE03C041F002C069
:101BC00040F001C03FF000C03EF03C2E8FD755EFF3
:101BD0000EF0F86AD09E1F6A1E6A1D6A1C6A236A8C
:101BE000226A216A206A276A266A256A246A2B6A81
:101BF0002A6A296A286A2F6A2E6A2D6A2C6A336A31
:101C0000326A316A306AC150C00B0F09C16E070ECB
:101C1000B46E046A056A520E0A6E480E0B6EA00E70
:101C20000C6E0D6E0E6E3D0E0F6EA00E106E300E11
:101C3000116E126E2E0E136E300E146EA00E156EF7
:101C4000250E166E176AC050C00B0109C06EC08EFB
:101C5000C280C150C00B0C09C16E0F0E926EC00E37
:101C6000936E000E946E956E040E966E2BEF00F040
:101C700053D403C033F002C032F001C031F000C0D1
:101C800030F03CD601C034F0830E356E02EC00F02B
:101C9000890EE96E33C038F032C037F031C036F00B
:101CA00030C035F0020E396ED6D60A0E426EC5DE51
:101CB00033C064F032C063F031C062F030C061F014
:101CC000686B676B180E666F840E656FBEEC02F072
:101CD00001E202E182908184646B636B180E626F93
:101CE000840E616F33C068F032C067F031C066F0B7
:101CF00030C065F0BEEC02F002E382808194B8D778
:021D00000300DE
:020000040030CA
:0E0000003FCC381E0087A1000FC00FE00F405C
:00000001FF
;PIC18F4550
;CRC=1E68  CREATED="24-jun-17 22:29"
