:04000000A0EF0DF070
:08000800046ED8CF05F0E0CF33
:1000100006F00001E9CF0CF0EACF07F0E1CF08F0DD
:10002000E2CF09F0D9CF0AF0DACF0BF0F3CF12F01C
:10003000F4CF13F0FACF14F000C00EF001C00FF0AF
:1000400002C010F003C011F0F2AA2AEF00F0F2B4DF
:100050004BEF00F00EC000F00FC001F010C002F036
:1000600011C003F00CC0E9FF07C0EAFF078E08C00B
:10007000E1FF09C0E2FF0AC0D9FF0BC0DAFF12C0DE
:10008000F3FF13C0F4FF14C0FAFF045006C0E0FFF2
:1000900005C0D8FF1000D650D7CF03F0830F976F5D
:1000A000000ED720D76E97C0D6FF542AD8B4552A51
:1000B000F2942AEF00F04D4558454E444F0084908D
:1000C00058C083FF848200D000D000008492420E8A
:1000D000006E002EFED700001200EA6A590EE96E8B
:1000E000EF500DE0060E016E006A002EFED7012EC5
:1000F000FBD77B0E006E002EFED7EF2EF3D712003B
:10010000010E586EDCDF020E596EE7DF1200300E72
:10011000586ED5DF040E596EE0DF300E586ECFDF1B
:10012000A60E006E002EFED70000300E586EC7DF00
:10013000380E586EC4DFE4DF0C0E586EC0DF060EBA
:10014000586EBDDF0CEF0EF08E0E006E88C001F011
:1001500087C002F0036A015209E102C001F0026A9D
:10016000080E005E015202E1006A08D0D89001BE7C
:1001700004D0023601360006F9D7019E12008351E1
:10018000D8B471D0006E8751D8B46DD0002604E386
:10019000810E002668E204D07F0E005E64E363E017
:1001A00084C08BF088518B1B848F888F86518A0383
:1001B000F4CF8DF085518903F4CF03F0F3CF8CF0A9
:1001C0008A03F3508D27F4508C23000E03228651AE
:1001D0008903F3508D27F4508C23000E026A03220A
:1001E000022284518A03F3508C27F4500322000E1C
:1001F000022284518903F3500326F4500222000E98
:10020000016A012286518803F3508C27F45003229F
:10021000000E0222012285518803F3500326F45078
:100220000222000E012284518803F3500226F4506A
:100230000122002A01BE05D08C3703360236013672
:100240000006000E8CAF0AD0032A022201220150C0
:1002500005E1025003E1035001E1002A8BBF018E4A
:100260008BAF019E04D0006A016A026A036A120021
:100270007C51D8B4A5D0886F8051D8B4A1D0885F04
:1002800005E37F0E8827D8B09BD006D0810E885F0B
:10029000D8A096D0D8B494D088C000F0016A026A81
:1002A000036A876B7DC086F0868F7EC085F07FC035
:1002B00084F0190E886F8351845F0DE2010E855F13
:1002C0000AE2865F08E2875F06E2872B862B852B92
:1002D0008351842728D08251855F12E2010E865F08
:1002E0000FE2875F0DE2872B862B82518527835192
:1002F000842719E3852B17E1862B15E1872B13D073
:1003000081518009865F0EE2010E875F0BE2872B29
:1003100081518009862782518527E9E3862BE7E111
:10032000872BE5D70380882F01D00BD0D890843756
:10033000853786378737D8900336023601368937B6
:10034000BAD789A106D0D89001320232033289335C
:1003500002D0000635E089BF1ED0D890843785379B
:10036000863787378351845F07E2010E855F04E299
:10037000865F02E2875F1AE38251855F05E2010E24
:10038000865F02E2875F12E381518009865F03E2A4
:10039000010E875F0BE3032A09E1022A07E1012A24
:1003A00005E1002A0DE00132023203327DC088F0FF
:1003B0008151881B88AF02D0018E06D0019E04D0E7
:1003C000006A016A026A036A1200800ED8B28C1BAE
:1003D000916B926B88C090F08C51901B8751D8B470
:1003E000DCD08F6F006E8B51D8B4E0D08F5FD8B463
:1003F00081D03DE38CC095F0958F8DC094F08EC078
:1004000093F0926BD89095339433933392338F2F2C
:10041000F8D790AF03D09181DDD091918F919189E0
:10042000EA6A8A0EE96EE9D0919990BF0AD08FA14D
:1004300013D09533943393339233002AD8B4C5D074
:100440000BD095BF0CD0D89092379337943795370F
:100450000006D8B4BAD0F5D7918D6BD0919D88C0E5
:1004600090F088AF02D0958FA9D0959FA7D08BC070
:100470008FF08BC000F087518F5F88C095F0958F0B
:1004800089C094F08AC093F0926BD89095339433DE
:10049000933392338F2FF8D790AF03D091839AD0B4
:1004A00091938F91918BEA6A8E0EE96EA6D0919B03
:1004B00090BF0AD08FA113D09533943393339233E6
:1004C000002AD8B482D00BD095BF0CD0D8909237E8
:1004D0009337943795370006D8B477D0F5D7918FF6
:1004E00028D0919F8CC090F08CAF02D0958F66D0B1
:1004F000959F64D08CC095F0958F8DC094F08EC080
:1005000093F090AF04D0959F918564D09195926BB4
:100510008F91EA6A8A0EE96E70D090BF1CD088C0B5
:1005200090F08FA106D09533943393339233002A01
:100530004CE092AF0BD0932B09E1942B07E1952B64
:1005400005E1953394339333002A3FE091BD86D77C
:1005500091BFC7D71CD0800E951B95AF04D03AD061
:100560008CC090F00AD088C090F0955306E1945367
:1005700004E1935302E1006A21D095BF08D0D890DE
:100580009237933794379537002EF7D71ED090AF18
:1005900002D0958F13D0959F11D08BC000F08CC0E6
:1005A00095F08DC094F08EC093F008D087C000F015
:1005B00088C095F089C094F08AC093F095C001F08E
:1005C00094C002F093C003F034D0006A016A026A5A
:1005D000036A2FD0926B931F941F951F921F922B2B
:1005E00005E1932B03E1942B01E1952B91B115D7F4
:1005F00091B356D791B58AD7B3D7EF50932705E378
:10060000942B03E1952BD8B48F81ED52EF509427B2
:1006100003E3952BD8B48F81ED52EF50EFBE01D09C
:10062000800A9527D8B08F8191B9FED691BB3FD76C
:1006300074D7120084C08BF088518B1B8BAF05D010
:10064000D894D89084BFD8802FD084C08BF087C036
:100650008CF083518C5F06E08BAF26D0D850010A16
:10066000D86E22D088C08CF084518C5F06E08BAFAE
:100670001BD0D850010AD86E17D089C08CF0855194
:100680008C5F06E08BAF10D0D850010AD86E0CD02A
:100690008AC08CF086518C5F06E08BAF05D0D850B5
:1006A000010AD86E01D0D89012008E0E006E7AC06A
:1006B00001F079C002F0036A7AAF05D0011E021E74
:1006C000022A01E1012A015209E102C001F0026A95
:1006D000080E005E015202E1006A0AD0D89001BE05
:1006E00004D0023601360006F9D77ABF01D0019E48
:1006F000120066C06AF065C069F064C068F063C04B
:1007000067F06AC086F069C085F068C084F067C091
:1007100083F08A6B896B886B7F0E876F8BDFD8B411
:100720007BD1796B670EE96E79C0EAFF7E0EEF6EC2
:10073000D8826AC08AF069C089F068C088F067C052
:1007400087F08E6B8D6B8C6B7F0E8B6F3EDE03C0E4
:100750007BF002C07AF001C079F000C078F0D89246
:100760006AC08AF069C089F068C088F067C087F005
:100770008E6B8D6B8C6B7F0E8B6F27DE7BC07FF05B
:100780007AC07EF079C07DF078C07CF003C083F041
:1007900002C082F001C081F000C080F069DD03C0BA
:1007A0006AF002C069F001C068F000C067F06AC07A
:1007B00086F069C085F068C084F067C083F06AC0C5
:1007C0008AF069C089F068C088F067C087F0D7DC1C
:1007D00003C076F002C075F001C074F000C073F081
:1007E000990E866F470E856F8A0E846F7F0E836F1A
:1007F00076C08AF075C089F074C088F073C087F045
:10080000BEDC03C07BF002C07AF001C079F000C00A
:1008100078F0D89203C08AF002C089F001C088F055
:1008200000C087F08E6B8D6B8C6B800E8B6FCDDD77
:1008300003C06EF002C06DF001C06CF000C06BF040
:100840004C0E866FF30E856F3A0E846F7B0E836FAE
:1008500076C08AF075C089F074C088F073C087F0E4
:100860008EDC03C07BF002C07AF001C079F000C0DA
:1008700078F0D89203C08AF002C089F001C088F0F5
:1008800000C087F02B0E8E6F9D0E8D6FDF0E8C6F6C
:100890007E0E8B6F9ADD03C072F002C071F001C052
:1008A00070F000C06FF072C086F071C085F070C04B
:1008B00084F06FC083F076C08AF075C089F074C090
:1008C00088F073C087F05BDC03C07BF002C07AF075
:1008D00001C079F000C078F0D89203C08AF002C05D
:1008E00089F001C088F000C087F08E6B8D6B8C6B37
:1008F0007F0E8B6F6ADD03C072F002C071F001C021
:1009000070F000C06FF06AC086F069C085F068C002
:1009100084F067C083F06EC08AF06DC089F06CC04F
:1009200088F06BC087F02BDC03C07BF002C07AF04C
:1009300001C079F000C078F003C07FF002C07EF003
:1009400001C07DF000C07CF072C083F071C082F005
:1009500070C081F06FC080F08BDC03C06EF002C00D
:100960006DF001C06CF000C06BF0796B630EE96E46
:1009700079C0EAFF7E0EEF5C776F77AF12D0000E82
:10098000D88077557A6B796F79BF7A078EDE00C091
:100990006FF00150800A706F02C071F003C072F0F6
:1009A0000ED07A6B77C079F079BF7A077EDE03C00C
:1009B00072F002C071F001C070F000C06FF072C040
:1009C00086F071C085F070C084F06FC083F0180E9F
:1009D0008A6F720E896F310E886F7E0E876FBFEC43
:1009E00000F0D8926EC08AF06DC089F06CC088F0BB
:1009F0006BC087F003C08EF002C08DF001C08CF098
:100A000000C08BF0E2DC03C06EF002C06DF001C0EC
:100A10006CF000C06BF004D06E6B6D6B6C6B6B6B2D
:100A20006BC000F06CC001F06DC002F06EC003F04E
:100A300012008E0E006E8351005E84C002F085C0ED
:100A400001F0028E005209E0D890025202E10152F8
:100A500004E002320132002EF7D784AF05D0011E28
:100A6000021E012AD8B4022A1200829176C07BF0BD
:100A700075C07AF074C079F073C078F076C086F0F3
:100A800075C085F074C084F073C083F08A6B896B85
:100A9000886B876BCFDD04E382817951800A796F9F
:100AA0007BC086F07AC085F079C084F078C083F08E
:100AB0008A6B896B886B8E0E876FBCDD01E218E153
:100AC0007BC086F07AC085F079C084F078C083F06E
:100AD000B0DF02C088F001C087F0A4EC00F003C0D2
:100AE0007FF002C07EF001C07DF000C07CF0C5D078
:100AF0007BC086F07AC085F079C084F078C083F03E
:100B0000800E8A6F960E896F180E886F960E876F0B
:100B100091DDD8A0AAD07BC086F07AC085F079C0DC
:100B200084F078C083F08A6B896B886B700E876F56
:100B3000BFEC00F003C086F002C085F001C084F075
:100B400000C083F076DF02C081F001C080F07BC07E
:100B500086F07AC085F079C084F078C083F08A6B23
:100B6000896B886B700E876FBFEC00F003C086F056
:100B700002C085F001C084F000C083F081C088F01D
:100B800080C087F0A4EC00F0D88286C08AF085C0CF
:100B900089F084C088F083C087F003C08EF002C063
:100BA0008DF001C08CF000C08BF00FDC866B856B84
:100BB000846B8E0E836F03C08AF002C089F001C07F
:100BC00088F000C087F0BFEC00F003C07BF002C0EB
:100BD0007AF001C079F000C078F081C088F080C060
:100BE00087F0A4EC00F0866B856B846B8E0E836FB0
:100BF00003C08AF002C089F001C088F000C087F00D
:100C0000BFEC00F003C07FF002C07EF001C07DF0B9
:100C100000C07CF07BC086F07AC085F079C084F09B
:100C200078C083F006DF02C088F001C087F0A4EC32
:100C300000F0D8927FC08AF07EC089F07DC088F035
:100C40007CC087F003C08EF002C08DF001C08CF034
:100C500000C08BF0E5EC01F003C07FF002C07EF035
:100C600001C07DF000C07CF008D07BC07FF07AC06E
:100C70007EF079C07DF078C07CF07BC086F07AC0D1
:100C800085F079C084F078C083F0D3DE02C088F0AC
:100C900001C087F0A4EC00F0D8827BC08AF07AC053
:100CA00089F079C088F078C087F003C08EF002C068
:100CB0008DF001C08CF000C08BF0E5EC01F003C0BA
:100CC0007BF002C07AF001C079F000C078F082A118
:100CD00003D07D51800A7D6F7BC086F07AC085F09D
:100CE00079C084F078C083F08A6B896B886B876BDE
:100CF000A1DC38E082A11AD0775318E1D8827FC0F6
:100D00008AF07EC089F07DC088F07CC087F08E6B51
:100D10008D6B8C6B7F0E8B6FE5EC01F003C07FF069
:100D200002C07EF001C07DF000C07CF082B11AD01C
:100D3000772D18D0D8927FC08AF07EC089F07DC010
:100D400088F07CC087F08E6B8D6B8C6B7F0E8B6F09
:100D5000E5EC01F003C07FF002C07EF001C07DF041
:100D600000C07CF076C086F075C085F074C084F059
:100D700073C083F08A6B896B886B876B5BDC04E1E3
:100D80007F6B7E6B7D6B7C6B7CC000F07DC001F067
:100D90007EC002F07FC003F0120072C076F071C016
:100DA00075F070C074F06FC073F0010E776F5DDE88
:100DB00041EF07F072C076F071C075F070C074F04A
:100DC0006FC073F0776B51DE65EF07F066C086F099
:100DD00065C085F064C084F063C083F08A6B896B62
:100DE000886B876B27DCD8B49ED062C07FF061C06F
:100DF0007EF060C07DF05FC07CF066C083F065C0AF
:100E000082F064C081F063C080F038EC01F003C070
:100E10006EF002C06DF001C06CF000C06BF003C05A
:100E200086F002C085F001C084F000C083F08A6BB8
:100E3000896B886B876B1AEC03F024E362C07FF048
:100E400061C07EF060C07DF05FC07CF066C083F062
:100E500065C082F064C081F063C080F038EC01F0BE
:100E600003C06EF002C06DF001C06CF000C06BF00A
:100E700003C072F002C071F001C070F000C06FF0EA
:100E80008CD723D062C07FF061C07EF060C07DF05F
:100E90005FC07CF066C083F065C082F064C081F002
:100EA00063C080F038EC01F003C06EF002C06DF05A
:100EB00001C06CF000C06BF003C072F002C071F0B2
:100EC00001C070F000C06FF075D703C06AF002C0B7
:100ED00069F001C068F000C067F06AC086F069C0C0
:100EE00085F068C084F067C083F066C08AF065C092
:100EF00089F064C088F063C087F0BFEC00F0D8824E
:100F000062C08AF061C089F060C088F05FC087F07D
:100F100003C08EF002C08DF001C08CF000C08BF0D9
:100F2000E5EC01F000D0120066C086F065C085F0E7
:100F300064C084F063C083F03B0E8A6FAA0E896F91
:100F4000380E886F7F0E876FBFEC00F003C086F00D
:100F500002C085F001C084F000C083F06ADD01C0EA
:100F600073F0749166C06AF065C069F064C068F09F
:100F700063C067F066C086F065C085F064C084F029
:100F800063C083F08A6B896B886B876B1AEC03F004
:100F900005E37481736D6851800A686F6E6B6D6BC9
:100FA0006C6B6B6B766B6B0EE96E76C0EAFF7F0E37
:100FB0007325EF6E6AC086F069C085F068C084F062
:100FC00067C083F03B0E8A6FAA0E896F380E886F58
:100FD0007F0E876FBFEC00F003C078F002C077F09F
:100FE00001C076F000C075F07A6B73C079F079BFFC
:100FF0007A0755EC03F0D88278C08AF077C089F080
:1010000076C088F075C087F003C08EF002C08DF006
:1010100001C08CF000C08BF0E5EC01F003C06AF079
:1010200002C069F001C068F000C067F07C0E866FF6
:10103000880E856F590E846F720E836F6AC08AF0B6
:1010400069C089F068C088F067C087F0BFEC00F025
:1010500003C078F002C077F001C076F000C075F0F0
:10106000D89203C08AF002C089F001C088F000C0A5
:1010700087F0E00E8E6F970E8D6F260E8C6F750EBB
:101080008B6FE5EC01F003C072F002C071F001C09B
:1010900070F000C06FF072C086F071C085F070C053
:1010A00084F06FC083F06AC08AF069C089F068C0BC
:1010B00088F067C087F0BFEC00F003C078F002C092
:1010C00077F001C076F000C075F0D89203C08AF0C6
:1010D00002C089F001C088F000C087F0C40E8E6F96
:1010E0001D0E8D6F1E0E8C6F780E8B6FE5EC01F070
:1010F00003C072F002C071F001C070F000C06FF068
:1011000072C086F071C085F070C084F06FC083F04B
:101110006AC08AF069C089F068C088F067C087F04B
:10112000BFEC00F003C078F002C077F001C076F0A9
:1011300000C075F0D89203C08AF002C089F001C0E7
:1011400088F000C087F05E0E8E6F500E8D6F630EBC
:101150008C6F7A0E8B6FE5EC01F003C072F002C069
:1011600071F001C070F000C06FF072C086F071C005
:1011700085F070C084F06FC083F06AC08AF069C0E7
:1011800089F068C088F067C087F0BFEC00F003C04A
:1011900078F002C077F001C076F000C075F0D89208
:1011A00003C08AF002C089F001C088F000C087F057
:1011B0001A0E8E6FFE0E8D6F750E8C6F7C0E8B6F00
:1011C000E5EC01F003C072F002C071F001C070F0F4
:1011D00000C06FF072C086F071C085F070C084F0FE
:1011E0006FC083F06AC08AF069C089F068C088F077
:1011F00067C087F0BFEC00F003C078F002C077F062
:1012000001C076F000C075F0D89203C08AF002C029
:1012100089F001C088F000C087F0180E8E6F720E42
:101220008D6F310E8C6F7E0E8B6FE5EC01F003C07D
:1012300072F002C071F001C070F000C06FF06AC0BF
:1012400086F069C085F068C084F067C083F072C022
:101250008AF071C089F070C088F06FC087F0BFEC71
:1012600000F0D8928A6B896B886B7F0E876F03C002
:101270008EF002C08DF001C08CF000C08BF0E5EC68
:1012800001F06EC086F06DC085F06CC084F06BC05C
:1012900083F003C08AF002C089F001C088F000C06A
:1012A00087F0BFEC00F003C06EF002C06DF001C02B
:1012B0006CF000C06BF074A117D07F6B7E6B7D6B00
:1012C0007F0E7C6F6EC083F06DC082F06CC081F0C9
:1012D0006BC080F038EC01F003C06EF002C06DF01E
:1012E00001C06CF000C06BF06BC000F06CC001F08E
:1012F0006DC002F06EC003F012005AC086F059C0F3
:1013000085F058C084F057C083F08A6B896B886B76
:10131000876B1AEC03F0D8A0CBD05EC062F05DC042
:1013200061F05CC060F05BC05FF0666B656B646B26
:101330007F0E636F4BDD03C062F002C061F001C03D
:1013400060F000C05FF003C086F002C085F001C00D
:1013500084F000C083F08A6B896B886B876B1AEC12
:1013600003F0D8A4A5D05EC062F05DC061F05CC09F
:1013700060F05BC05FF0666B656B646B800E636FE3
:1013800025DD03C062F002C061F001C060F000C062
:101390005FF003C086F002C085F001C084F000C099
:1013A00083F08A6B896B886B876B1AEC03F03FE1E3
:1013B00057C05FF05850800A606F59C061F05AC042
:1013C00062F05AC066F059C065F0646F57C063F0B0
:1013D00079EC03F003C062F002C061F001C060F07C
:1013E00000C05FF003C086F002C085F001C084F049
:1013F00000C083F05EC08AF05DC089F05CC088F0F8
:101400005BC087F0BFEC00F003C062F002C061F087
:1014100001C060F000C05FF003C066F002C065F07C
:1014200001C064F000C063F07FDDD0D040D057C071
:101430005FF05850800A606F59C061F05AC062F086
:101440005AC066F059C065F0646F57C063F079EC1C
:1014500003F003C062F002C061F001C060F000C0A0
:101460005FF003C086F002C085F001C084F000C0C8
:1014700083F05EC08AF05DC089F05CC088F05BC01C
:1014800087F0BFEC00F003C062F002C061F001C061
:1014900060F000C05FF003C066F002C065F001C0FC
:1014A00064F000C063F040DD800E011A8FD08ED052
:1014B0005AC086F059C085F058C084F057C083F0F8
:1014C0008A6B896B886B876B1AEC03F02BE35EC029
:1014D00062F05DC061F05CC060F05BC05FF0666BA5
:1014E000656B646B7F0E636F71DC03C062F002C0DA
:1014F00061F001C060F000C05FF003C086F002C080
:1015000085F001C084F000C083F08A6B896B886B22
:10151000876B1AEC03F006E0006A016A026A036A4C
:1015200055D054D05AC086F059C085F058C084F0C8
:1015300057C083F08A6B896B886B876B1AEC03F05A
:1015400010E15EC086F05DC085F05CC084F05BC0D9
:1015500083F08A6B896B886B876B1AEC03F001E26E
:1015600035E15AC066F059C065F058C064F057C004
:1015700063F079EC03F003C062F002C061F001C0D7
:1015800060F000C05FF003C086F002C085F001C0CB
:1015900084F000C083F05EC08AF05DC089F05CC05A
:1015A00088F05BC087F0BFEC00F003C062F002C0BF
:1015B00061F001C060F000C05FF003C066F002C0DF
:1015C00065F001C064F000C063F0AEDCBAEF0BF070
:1015D000000E016EC250C30B0110C26E100E006EE1
:1015E000002EFED70000C282C2A201D0FDD7C2B237
:1015F000FED7C4CF03F0C3CF87F0C4CF88F0A4ECEC
:1016000000F003C031F002C030F001C02FF000C084
:101610002EF031C086F030C085F02FC084F02EC08F
:1016200083F08A6B896B200E886F810E876FBFEC09
:1016300000F003C031F002C030F001C02FF000C054
:101640002EF031C07FF030C07EF02FC07DF02EC074
:101650007CF0836BC00E826F7F0E816F880E806F6F
:1016600038EC01F003C031F002C030F001C02FF0BF
:1016700000C02EF07F6B500E7E6F430E7D6F8E0E7E
:101680007C6F31C083F030C082F02FC081F02EC05B
:1016900080F038EC01F003C035F002C034F001C036
:1016A00033F000C032F0D88235C08AF034C089F0FF
:1016B00033C088F032C087F08E6B400E8D6F1C0EE9
:1016C0008C6F8C0E8B6FE5EC01F003C035F002C01F
:1016D00034F001C033F000C032F035C066F034C0E1
:1016E00065F033C064F032C063F079EC03F003C0FE
:1016F00039F002C038F001C037F000C036F039C010
:1017000086F038C085F037C084F036C083F04EC014
:101710008AF04DC089F04CC088F04BC087F0BFEC18
:1017200000F003C039F002C038F001C037F000C04B
:1017300036F035C066F034C065F033C064F032C0B6
:1017400063F079EC03F003C03DF002C03CF001C04F
:101750003BF000C03AF03DC05AF03CC059F03BC0ED
:1017600058F03AC057F05E6A5D6A400E5C6E800EBB
:101770005B6EC3D503C03DF002C03CF001C03BF03E
:1017800000C03AF03DC086F03CC085F03BC084F01C
:101790003AC083F052C08AF051C089F050C088F03E
:1017A0004FC087F0BFEC00F003C03DF002C03CF03A
:1017B00001C03BF000C03AF0D8924AC08AF049C05C
:1017C00089F048C088F047C087F039C08EF038C033
:1017D0008DF037C08CF036C08BF0E5EC01F003C023
:1017E0005AF002C059F001C058F000C057F0D8922A
:1017F00003C08AF002C089F001C088F000C087F001
:101800003DC08EF03CC08DF03BC08CF03AC08BF0F8
:10181000E5EC01F003C041F002C040F001C03FF030
:1018200000C03EF07F6B7E6B7D6B7F0E7C6F41C096
:1018300083F040C082F03FC081F03EC080F038ECC1
:1018400001F003C041F002C040F001C03FF000C011
:101850003EF0D88241C08AF040C089F03FC088F095
:101860003EC087F0330E8E6F930E8D6F080E8C6F17
:10187000870E8B6FE5EC01F003C041F002C040F031
:1018800001C03FF000C03EF03EC000F03FC001F09C
:1018900040C002F041C003F015EF0EF0400E936E11
:1018A000819E190E596E6DEC00F0818E310E006E26
:1018B000002EFED700D0C00E936EE2EF0CF0420E69
:1018C000006E002EFED7000081BE10D0840E006E88
:1018D000002EFED700D0000081AE08D0520E006E60
:1018E000002EFED700D00000010E016EE3EF0CF0D9
:1018F000596A2AA000D0576A5750070842E3586A2D
:1019000081BE0AD0582A5850640802E22A8004D0C6
:1019100000D000D00000F4D7310E006E002EFED7AC
:1019200000D081BE11D0070ED88057545A6E010ED8
:10193000006E5A50016E04E0D8900036012EFCD79C
:101940000050FF0A59161BD0070ED88057545A6E04
:10195000010E006E5A50016E04E0D8900036012E40
:10196000FCD70050591281AE0AD0582A585064084A
:1019700002E22A8004D000D000D00000F4D7572A19
:10198000BBD759C001F012005850016A575C03E2FE
:1019900057C000F00CD0006A080E596E573600365A
:1019A0005850005CD8B0006E0136592EF7D712009F
:1019B000040E576EFA0E596E6DEC00F0572EFAD7E2
:1019C0002A906CD77CD7015225E092DF01C02BF022
:1019D0008FDF01C02CF08CDF01C02DF02C502B24A8
:1019E0002D5C18E12BC057F00A0E586ECDDF300E7B
:1019F0000124236E2BC057F00A0E586EC5DF300E3F
:101A00000024246E2CC057F00A0E586EBDDF300E35
:101A10000124266E1C0E016E000E026E1EEF0EF0EB
:101A200084805AC083FF848200D000D0000084925A
:101A3000420E006E002EFED700001200EF520FE0A3
:101A4000EACF58F0E9CF57F0EFCF5AF0E9DF58C0AE
:101A5000EAFF57C0E9FFE92AD8B4EA2AEFD72AEF0C
:101A60000EF00900F5520CE0F6CF58F0F7CF59F020
:101A7000F5CF5AF0D5DF58C0F6FF59C0F7FFF1D7C0
:101A80005AEF0DF0030E595E09E3EA6A590EE96E4A
:101A9000EF5004E001D000D0EF2EFDD7120080EC13
:101AA00000F0830E586E5FEC00F0B60EF66E000E7E
:101AB000F76ED7D7576A5750310812E38186040E64
:101AC000586EC70E596EDEDF582EFBD78196130E67
:101AD000596E6DEC00F0C80E596ED4DF572AEBD763
:101AE000080E586EFA0E596E6DEC00F0582EFAD7AB
:101AF000576A575031081AE38186010E596E6DEC12
:101B000000F0020E586EF90E596EBCDF582EFBD74E
:101B10008196120E596E6DEC00F0020E586EF90EA1
:101B2000596EB0DF582EFBD7572AE3D7080E586EF0
:101B3000FA0E596E6DEC00F0582EFAD72EEF0EF01B
:101B4000F86AD09E078E316A306A2F6A2E6A356A2B
:101B5000346A336A326A396A386A376A366A3D6A81
:101B60003C6A3B6A3A6A416A406A3F6A3E6A456A31
:101B7000446A436A426A930E4A6E260E496E140EF8
:101B8000486E750E476E0E0E4E6E430E4D6E750E00
:101B90004C6E720E4B6EDC0E526E540E516E3E0E3B
:101BA000506E670E4F6E536A556A546A566AC1503A
:101BB000C00B0F09C16E070EB46E166A176A520E7B
:101BC0001C6E480E1D6EA00E1E6E1F6E206E3D0E0A
:101BD000216EA00E226E300E236E246E2E0E256E08
:101BE000300E266EA00E276E250E286E296AC05074
:101BF000C00B0209C06EC08EC280C150C00B0C0960
:101C0000C16E0F0E926EC00E936E000E946E956EA6
:101C1000040E966E87EF00F0C50ED56ED76A830E60
:101C2000D66EC00EF212F28AD3D403C045F002C0C1
:101C300044F001C043F000C042F0BAD601C046F003
:101C400080EC00F0830E586E5FEC00F0EA6A1C0E28
:101C5000E96EF4D65650030802E121D7566A45C012
:101C600086F044C085F043C084F042C083F08A6BA4
:101C7000896B180E886F840E876F1AEC03F001E2EF
:101C800002E182908184866B856B180E846F840ECE
:101C9000836F45C08AF044C089F043C088F042C0D9
:101CA00087F01AEC03F002E382808194BDD7030031
:020000040030CA
:0E0000003FCC381E0087A1000FC00FE00F405C
:00000001FF
;PIC18F4550
;CRC=DBC6  CREATED="28-jun-17 22:18"
