:10000000E9EF0DF04D4558454E444F00849042C0F5
:1000100083FF848200D000D000008492420E006EE4
:10002000002EFED700001200EA6A430EE96EEF5080
:100030000DE0060E016E006A002EFED7012EFBD7E2
:100040007B0E006E002EFED7EF2EF3D71200010EAE
:10005000426EDCDF020E436EE7DF44EF00F0300E4D
:10006000426ED4DF040E436EDFDF300E426ECEDF11
:10007000A60E006E002EFED70000300E426EC6DFC8
:10008000380E426EC3DFE3D70C0E426EBFDF060EA2
:10009000426EBCDF51EF0EF08E0E006E73C001F0A9
:1000A00072C002F0036A015209E102C001F0026A63
:1000B000080E005E015202E1006A08D0D89001BE2D
:1000C00004D0023601360006F9D7019E12006E51A7
:1000D000D8B471D0006E7251D8B46DD0002604E34C
:1000E000810E002668E204D07F0E005E64E363E0C8
:1000F0006FC076F07351761B6F8F738F71517503DC
:10010000F4CF78F070517403F4CF03F0F3CF77F0AD
:100110007503F3507827F4507723000E03227151B2
:100120007403F3507827F4507723000E026A0322F9
:1001300002226F517503F3507727F4500322000E0B
:1001400002226F517403F3500326F4500222000E72
:10015000016A012271517303F3507727F45003228F
:10016000000E0222012270517303F3500326F45053
:100170000222000E01226F517303F3500226F45045
:100180000122002A01BE05D0773703360236013638
:100190000006000E77AF0AD0032A02220122015086
:1001A00005E1025003E1035001E1002A76BF018E10
:1001B00076AF019E04D0006A016A026A036A1200E7
:1001C0006751D8B4A5D0736F6B51D8B4A1D0735F09
:1001D00005E37F0E7327D8B09BD006D0810E735FE6
:1001E000D8A096D0D8B494D073C000F0016A026A47
:1001F000036A726B68C071F0718F69C070F06AC079
:100200006FF0190E736F6E516F5F0DE2010E705F2C
:100210000AE2715F08E2725F06E2722B712B702BAB
:100220006E516F2728D06D51705F12E2010E715F21
:100230000FE2725F0DE2722B712B6D5170276E51C0
:100240006F2719E3702B17E1712B15E1722B13D077
:100250006C518009715F0EE2010E725F0BE2722B2E
:100260006C51800971276D517027E9E3712BE7E12B
:10027000722BE5D70380732F01D00BD0D8906F3746
:10028000703771377237D8900336023601367437BB
:10029000BAD774A106D0D890013202320332743337
:1002A00002D0000635E074BF1ED0D8906F3770378B
:1002B000713772376E516F5F07E2010E705F04E2B3
:1002C000715F02E2725F1AE36D51705F05E2010E29
:1002D000715F02E2725F12E36C518009715F03E2A9
:1002E000010E725F0BE3032A09E1022A07E1012AEA
:1002F00005E1002A0DE001320232033268C073F0DA
:100300006C51731B73AF02D0018E06D0019E04D0D6
:10031000006A016A026A036A1200800ED8B2771B73
:100320007C6B7D6B73C07BF077517B1B7251D8B4B3
:10033000DCD07A6F006E7651D8B4E0D07A5FD8B452
:1003400081D03DE377C080F0808F78C07FF079C0A6
:100350007EF07D6BD89080337F337E337D337A2F70
:10036000F8D77BAF03D07C81DDD07C917A917C89FA
:10037000EA6A750EE96EE9D07C997BBF0AD07AA152
:1003800013D080337F337E337D33002AD8B4C5D079
:100390000BD080BF0CD0D8907D377E377F37803729
:1003A0000006D8B4BAD0F5D77C8D6BD07C9D73C0D5
:1003B0007BF073AF02D0808FA9D0809FA7D076C08A
:1003C0007AF076C000F072517A5F73C080F0808F4F
:1003D00074C07FF075C07EF07D6BD89080337F3322
:1003E0007E337D337A2FF8D77BAF03D07C839AD0CE
:1003F0007C937A917C8BEA6A790EE96EA6D07C9B1D
:100400007BBF0AD07AA113D080337F337E337D3314
:10041000002AD8B482D00BD080BF0CD0D8907D37C2
:100420007E377F3780370006D8B477D0F5D77C8FFA
:1004300028D07C9F77C07BF077AF02D0808F66D0CA
:10044000809F64D077C080F0808F78C07FF079C0C3
:100450007EF07BAF04D0809F7C8564D07C957D6BE3
:100460007A91EA6A750EE96E70D07BBF1CD073C0BA
:100470007BF07AA106D080337F337E337D33002A30
:100480004CE07DAF0BD07E2B09E17F2B07E1802B69
:1004900005E180337F337E33002A3FE07CBD86D781
:1004A0007CBFC7D71CD0800E801B80AF04D03AD051
:1004B00077C07BF00AD073C07BF0805306E17F5396
:1004C00004E17E5302E1006A21D080BF08D0D890B9
:1004D0007D377E377F378037002EF7D71ED07BAF32
:1004E00002D0808F13D0809F11D076C000F077C0EB
:1004F00080F078C07FF079C07EF008D072C000F044
:1005000073C080F074C07FF075C07EF080C001F0D1
:100510007FC002F07EC003F034D0006A016A026A34
:10052000036A2FD07D6B7E1F7F1F801F7D1F7D2B59
:1005300005E17E2B03E17F2B01E1802B7CB115D7F8
:100540007CB356D77CB58AD7B3D7EF507E2705E367
:100550007F2B03E1802BD8B47A81ED52EF507F27B7
:1005600003E3802BD8B47A81ED52EF50EFBE01D077
:10057000800A8027D8B07A817CB9FED67CBB3FD771
:1005800074D712006FC076F07351761B76AF05D02A
:10059000D894D8906FBFD8802FD06FC076F072C03B
:1005A00077F06E51775F06E076AF26D0D850010A1B
:1005B000D86E22D073C077F06F51775F06E076AFC8
:1005C0001BD0D850010AD86E17D074C077F0705184
:1005D000775F06E076AF10D0D850010AD86E0CD005
:1005E00075C077F07151775F06E076AF05D0D850CF
:1005F000010AD86E01D0D89012008E0E006E65C030
:1006000001F064C002F0036A65AF05D0011E021E4E
:10061000022A01E1012A015209E102C001F0026A45
:10062000080E005E015202E1006A0AD0D89001BEB5
:1006300004D0023601360006F9D765BF01D0019E0D
:10064000120051C055F050C054F04FC053F04EC08E
:1006500052F055C071F054C070F053C06FF052C0EA
:100660006EF0756B746B736B7F0E726F8BDFD8B42B
:100670007BD1646B520EE96E64C0EAFF7E0EEF6EB2
:10068000D88255C075F054C074F053C073F052C096
:1006900072F0796B786B776B7F0E766F3EDE03C0FE
:1006A00066F002C065F001C064F000C063F0D8924B
:1006B00055C075F054C074F053C073F052C072F05E
:1006C000796B786B776B7F0E766F27DE66C06AF08A
:1006D00065C069F064C068F063C067F003C06EF085
:1006E00002C06DF001C06CF000C06BF069DD03C0AA
:1006F00055F002C054F001C053F000C052F055C094
:1007000071F054C070F053C06FF052C06EF055C01D
:1007100075F054C074F053C073F052C072F0D7DC5F
:1007200003C061F002C060F001C05FF000C05EF085
:10073000990E716F470E706F8A0E6F6F7F0E6E6F1E
:1007400061C075F060C074F05FC073F05EC072F09D
:10075000BEDC03C066F002C065F001C064F000C0FA
:1007600063F0D89203C075F002C074F001C073F05A
:1007700000C072F0796B786B776B800E766FCDDD91
:1007800003C059F002C058F001C057F000C056F045
:100790004C0E716FF30E706F3A0E6F6F7B0E6E6FB3
:1007A00061C075F060C074F05FC073F05EC072F03D
:1007B0008EDC03C066F002C065F001C064F000C0CA
:1007C00063F0D89203C075F002C074F001C073F0FA
:1007D00000C072F02B0E796F9D0E786FDF0E776F71
:1007E0007E0E766F9ADD03C05DF002C05CF001C042
:1007F0005BF000C05AF05DC071F05CC070F05BC08F
:100800006FF05AC06EF061C075F060C074F05FC0E8
:1008100073F05EC072F05BDC03C066F002C065F08E
:1008200001C064F000C063F0D89203C075F002C04C
:1008300074F001C073F000C072F0796B786B776B65
:100840007F0E766F6ADD03C05DF002C05CF001C010
:100850005BF000C05AF055C071F054C070F053C046
:100860006FF052C06EF059C075F058C074F057C0A8
:1008700073F056C072F02BDC03C066F002C065F066
:1008800001C064F000C063F003C06AF002C069F008
:1008900001C068F000C067F05DC06EF05CC06DF034
:1008A0005BC06CF05AC06BF08BDC03C059F002C027
:1008B00058F001C057F000C056F0646B4E0EE96E60
:1008C00064C0EAFF7E0EEF5C626F62AF12D0000E72
:1008D000D8806255656B646F64BF65078EDE00C0AB
:1008E0005AF00150800A5B6E02C05CF003C05DF0FC
:1008F0000ED0656B62C064F064BF65077EDE03C026
:100900005DF002C05CF001C05BF000C05AF05DC059
:1009100071F05CC070F05BC06FF05AC06EF0180EE2
:10092000756F720E746F310E736F7E0E726F67EC9F
:1009300000F0D89259C075F058C074F057C073F0E9
:1009400056C072F003C079F002C078F001C077F0B1
:1009500000C076F0E2DC03C059F002C058F001C0DC
:1009600057F000C056F004D0596A586A576A566A60
:1009700056C000F057C001F058C002F059C003F053
:1009800012008E0E006E6E51005E6FC002F070C0DD
:1009900001F0028E005209E0D890025202E10152A9
:1009A00004E002320132002EF7D76FAF05D0011EEE
:1009B000021E012AD8B4022A12006D9161C066F0AD
:1009C00060C065F05FC064F05EC063F061C071F04C
:1009D00060C070F05FC06FF05EC06EF0756B746BDE
:1009E000736B726BCFDD04E36D816451800A646FB9
:1009F00066C071F065C070F064C06FF063C06EF0E7
:100A0000756B746B736B8E0E726FBCDD01E218E157
:100A100066C071F065C070F064C06FF063C06EF0C6
:100A2000B0DF02C073F001C072F04CEC00F003C004
:100A30006AF002C069F001C068F000C067F0C5D07C
:100A400066C071F065C070F064C06FF063C06EF096
:100A5000800E756F960E746F180E736F960E726F10
:100A600091DDD8A0AAD066C071F065C070F064C0F6
:100A70006FF063C06EF0756B746B736B700E726F9A
:100A800067EC00F003C071F002C070F001C06FF0BD
:100A900000C06EF076DF02C06CF001C06BF066C083
:100AA00071F065C070F064C06FF063C06EF0756B7C
:100AB000746B736B700E726F67EC00F003C071F0B3
:100AC00002C070F001C06FF000C06EF06CC073F037
:100AD0006BC072F04CEC00F0D88271C075F070C041
:100AE00074F06FC073F06EC072F003C079F002C092
:100AF00078F001C077F000C076F00FDC716B706B9E
:100B00006F6B8E0E6E6F03C075F002C074F001C083
:100B100073F000C072F067EC00F003C066F002C032
:100B200065F001C064F000C063F06CC073F06BC08E
:100B300072F04CEC00F0716B706B6F6B8E0E6E6F21
:100B400003C075F002C074F001C073F000C072F011
:100B500067EC00F003C06AF002C069F001C068F001
:100B600000C067F066C071F065C070F064C06FF0DF
:100B700063C06EF006DF02C073F001C072F04CEC8F
:100B800000F0D8926AC075F069C074F068C073F064
:100B900067C072F003C079F002C078F001C077F04E
:100BA00000C076F08DEC01F003C06AF002C069F07D
:100BB00001C068F000C067F008D066C06AF065C088
:100BC00069F064C068F063C067F066C071F065C02A
:100BD00070F064C06FF063C06EF0D3DE02C073F0DB
:100BE00001C072F04CEC00F0D88266C075F065C0B0
:100BF00074F064C073F063C072F003C079F002C097
:100C000078F001C077F000C076F08DEC01F003C001
:100C100066F002C065F001C064F000C063F06DA131
:100C200003D06851800A686F66C071F065C070F0CB
:100C300064C06FF063C06EF0756B746B736B726B36
:100C4000A1DC38E06DA11AD0625318E1D8826AC0E5
:100C500075F069C074F068C073F067C072F0796BAA
:100C6000786B776B7F0E766F8DEC01F003C06AF0C6
:100C700002C069F001C068F000C067F06DB11AD021
:100C8000622D18D0D8926AC075F069C074F068C03F
:100C900073F067C072F0796B786B776B7F0E766F4D
:100CA0008DEC01F003C06AF002C069F001C068F089
:100CB00000C067F061C071F060C070F05FC06FF09D
:100CC0005EC06EF0756B746B736B726B5BDC04E112
:100CD0006A6B696B686B676B67C000F068C001F096
:100CE00069C002F06AC003F012005DC061F05CC030
:100CF00060F05BC05FF05AC05EF0010E626F5DDEB7
:100D0000E9EF06F05DC061F05CC060F05BC05FF0D1
:100D10005AC05EF0626B51DE0DEF07F051C071F00A
:100D200050C070F04FC06FF04EC06EF0756B746BBA
:100D3000736B726B27DCD8B49ED04DC06AF04CC088
:100D400069F04BC068F04AC067F051C06EF050C007
:100D50006DF04FC06CF04EC06BF0E0EC00F003C0E3
:100D600059F002C058F001C057F000C056F003C05F
:100D700071F002C070F001C06FF000C06EF0756BD2
:100D8000746B736B726BC2EC02F024E34DC06AF0BB
:100D90004CC069F04BC068F04AC067F051C06EF0BB
:100DA00050C06DF04FC06CF04EC06BF0E0EC00F046
:100DB00003C059F002C058F001C057F000C056F00F
:100DC00003C05DF002C05CF001C05BF000C05AF0EF
:100DD0008CD723D04DC06AF04CC069F04BC068F08E
:100DE0004AC067F051C06EF050C06DF04FC06CF05B
:100DF0004EC06BF0E0EC00F003C059F002C058F0B8
:100E000001C057F000C056F003C05DF002C05CF0B6
:100E100001C05BF000C05AF075D703C055F002C0A6
:100E200054F001C053F000C052F055C071F054C0EE
:100E300070F053C06FF052C06EF051C075F050C0EA
:100E400074F04FC073F04EC072F067EC00F0D882BF
:100E50004DC075F04CC074F04BC073F04AC072F0D6
:100E600003C079F002C078F001C077F000C076F0DE
:100E70008DEC01F000D0120051C071F050C070F044
:100E80004FC06FF04EC06EF03B0E756FAA0E746FC0
:100E9000380E736F7F0E726F67EC00F003C071F055
:100EA00002C070F001C06FF000C06EF06ADD01C0DA
:100EB0005EF05F9051C055F050C054F04FC053F0F9
:100EC0004EC052F051C071F050C070F04FC06FF082
:100ED0004EC06EF0756B746B736B726BC2EC02F08C
:100EE00005E35F805E6C5350800A536E596A586AFE
:100EF000576A566A616B560EE96E61C0EAFF7F0E53
:100F00005E24EF6E55C071F054C070F053C06FF0A6
:100F100052C06EF03B0E756FAA0E746F380E736F71
:100F20007F0E726F67EC00F003C063F002C062F0E6
:100F300001C061F000C060F0656B5EC064F064BF2A
:100F40006507FDEC02F0D88263C075F062C074F0F2
:100F500061C073F060C072F003C079F002C078F035
:100F600001C077F000C076F08DEC01F003C055F0C1
:100F700002C054F001C053F000C052F07C0E716FFB
:100F8000880E706F590E6F6F720E6E6F55C075F0D0
:100F900054C074F053C073F052C072F067EC00F0AC
:100FA00003C063F002C062F001C061F000C060F0F5
:100FB000D89203C075F002C074F001C073F000C095
:100FC00072F0E00E796F970E786F260E776F750EC0
:100FD000766F8DEC01F003C05DF002C05CF001C0E3
:100FE0005BF000C05AF05DC071F05CC070F05BC097
:100FF0006FF05AC06EF055C075F054C074F053C015
:1010000073F052C072F067EC00F003C063F002C0EE
:1010100062F001C061F000C060F0D89203C075F0CA
:1010200002C074F001C073F000C072F0C40E796F9A
:101030001D0E786F1E0E776F780E766F8DEC01F0B7
:1010400003C05DF002C05CF001C05BF000C05AF06C
:101050005DC071F05CC070F05BC06FF05AC06EF0A4
:1010600055C075F054C074F053C073F052C072F0A4
:1010700067EC00F003C063F002C062F001C061F0F1
:1010800000C060F0D89203C075F002C074F001C0D7
:1010900073F000C072F05E0E796F500E786F630EC1
:1010A000776F7A0E766F8DEC01F003C05DF002C0B1
:1010B0005CF001C05BF000C05AF05DC071F05CC034
:1010C00070F05BC06FF05AC06EF055C075F054C040
:1010D00074F053C073F052C072F067EC00F003C0BC
:1010E00063F002C062F001C061F000C060F0D8920D
:1010F00003C075F002C074F001C073F000C072F05C
:101100001A0E796FFE0E786F750E776F7C0E766F04
:101110008DEC01F003C05DF002C05CF001C05BF03B
:1011200000C05AF05DC071F05CC070F05BC06FF041
:101130005AC06EF055C075F054C074F053C073F0CF
:1011400052C072F067EC00F003C063F002C062F0BE
:1011500001C061F000C060F0D89203C075F002C019
:1011600074F001C073F000C072F0180E796F720E47
:10117000786F310E776F7E0E766F8DEC01F003C0C5
:101180005DF002C05CF001C05BF000C05AF055C0D9
:1011900071F054C070F053C06FF052C06EF05DC07B
:1011A00075F05CC074F05BC073F05AC072F067EC0D
:1011B00000F0D892756B746B736B7F0E726F03C007
:1011C00079F002C078F001C077F000C076F08DECC5
:1011D00001F059C071F058C070F057C06FF056C0A0
:1011E0006EF003C075F002C074F001C073F000C06F
:1011F00072F067EC00F003C059F002C058F001C073
:1012000057F000C056F05FA017D06A6B696B686B2F
:101210007F0E676F59C06EF058C06DF057C06CF00C
:1012200056C06BF0E0EC00F003C059F002C058F07B
:1012300001C057F000C056F056C000F057C001F092
:1012400058C002F059C003F0120045C071F044C00C
:1012500070F043C06FF042C06EF0756B746B736BCF
:10126000726BC2EC02F0D8A0CBD049C04DF048C0A0
:101270004CF047C04BF046C04AF0516A506A4F6A82
:101280007F0E4E6E4BDD03C04DF002C04CF001C02E
:101290004BF000C04AF003C071F002C070F001C012
:1012A0006FF000C06EF0756B746B736B726BC2EC99
:1012B00002F0D8A4A5D049C04DF048C04CF047C0BA
:1012C0004BF046C04AF0516A506A4F6A800E4E6E2B
:1012D00025DD03C04DF002C04CF001C04BF000C052
:1012E0004AF003C071F002C070F001C06FF000C09E
:1012F0006EF0756B746B736B726BC2EC02F03FE156
:1013000042C04AF04350800A4B6E44C04CF045C086
:101310004DF045C051F044C050F04F6E42C04EF009
:1013200021EC03F003C04DF002C04CF001C04BF0C3
:1013300000C04AF003C071F002C070F001C06FF04D
:1013400000C06EF049C075F048C074F047C073F03B
:1013500046C072F067EC00F003C04DF002C04CF0E4
:1013600001C04BF000C04AF003C051F002C050F081
:1013700001C04FF000C04EF07FDDD0D040D042C061
:101380004AF04350800A4B6E44C04CF045C04DF0CB
:1013900045C051F044C050F04F6E42C04EF021ECB9
:1013A00003F003C04DF002C04CF001C04BF000C090
:1013B0004AF003C071F002C070F001C06FF000C0CD
:1013C0006EF049C075F048C074F047C073F046C075
:1013D00072F067EC00F003C04DF002C04CF001C0A9
:1013E0004BF000C04AF003C051F002C050F001C001
:1013F0004FF000C04EF040DD800E011A8FD08ED02D
:1014000045C071F044C070F043C06FF042C06EF050
:10141000756B746B736B726BC2EC02F02BE349C09B
:101420004DF048C04CF047C04BF046C04AF0516AFE
:10143000506A4F6A7F0E4E6E71DC03C04DF002C0E1
:101440004CF001C04BF000C04AF003C071F002C084
:1014500070F001C06FF000C06EF0756B746B736B51
:10146000726BC2EC02F006E0006A016A026A036A6B
:1014700055D054D045C071F044C070F043C06FF0F7
:1014800042C06EF0756B746B736B726BC2EC02F0E2
:1014900010E149C071F048C070F047C06FF046C01D
:1014A0006EF0756B746B736B726BC2EC02F001E2E1
:1014B00035E145C051F044C050F043C04FF042C048
:1014C0004EF021EC03F003C04DF002C04CF001C01F
:1014D0004BF000C04AF003C071F002C070F001C0D0
:1014E0006FF000C06EF049C075F048C074F047C09E
:1014F00073F046C072F067EC00F003C04DF002C01C
:101500004CF001C04BF000C04AF003C051F002C0E3
:1015100050F001C04FF000C04EF0AEDC62EF0BF0B7
:10152000000E016EC250C30B0110C26E100E006E91
:10153000002EFED70000C282C2A201D0FDD7C2B2E7
:10154000FED7C4CF03F0C3CF72F0C4CF73F04CEC1E
:1015500000F003C01FF002C01EF001C01DF000C06B
:101560001CF01FC071F01EC070F01DC06FF01CC0D9
:101570006EF0756B746B200E736F810E726F67EC7B
:1015800000F003C01FF002C01EF001C01DF000C03B
:101590001CF01FC06AF01EC069F01DC068F01CC0BE
:1015A00067F06E6BC00E6D6F7F0E6C6F880E6B6F89
:1015B000E0EC00F003C01FF002C01EF001C01DF0FF
:1015C00000C01CF06A6B500E696F430E686F8E0E80
:1015D000676F1FC06EF01EC06DF01DC06CF01CC0A8
:1015E0006BF0E0EC00F003C023F002C022F001C079
:1015F00021F000C020F0D88223C075F022C074F022
:1016000021C073F020C072F0796B400E786F1C0E11
:10161000776F8C0E766F8DEC01F003C023F002C063
:1016200022F001C021F000C020F023C051F022C000
:1016300050F021C04FF020C04EF021EC03F003C069
:1016400027F002C026F001C025F000C024F027C01A
:1016500071F026C070F025C06FF024C06EF03CC061
:1016600075F03BC074F03AC073F039C072F067ECAB
:1016700000F003C027F002C026F001C025F000C032
:1016800024F023C051F022C050F021C04FF020C000
:101690004EF021EC03F003C02BF002C02AF001C091
:1016A00029F000C028F02BC045F02AC044F029C022
:1016B00043F028C042F0496A486A400E476E800EE7
:1016C000466EC3D503C02BF002C02AF001C029F03A
:1016D00000C028F02BC071F02AC070F029C06FF054
:1016E00028C06EF040C075F03FC074F03EC073F08B
:1016F0003DC072F067EC00F003C02BF002C02AF08E
:1017000001C029F000C028F0D89238C075F037C069
:1017100074F036C073F035C072F027C079F026C07F
:1017200078F025C077F024C076F08DEC01F003C08E
:1017300045F002C044F001C043F000C042F0D8922E
:1017400003C075F002C074F001C073F000C072F005
:101750002BC079F02AC078F029C077F028C076F045
:101760008DEC01F003C02FF002C02EF001C02DF06F
:1017700000C02CF06A6B696B686B7F0E676F2FC0BF
:101780006EF02EC06DF02DC06CF02CC06BF0E0EC54
:1017900000F003C02FF002C02EF001C02DF000C0F9
:1017A0002CF0D8822FC075F02EC074F02DC073F0CD
:1017B0002CC072F0330E796F930E786F080E776F2E
:1017C000870E766F8DEC01F003C02FF002C02EF073
:1017D00001C02DF000C02CF02CC000F02DC001F095
:1017E0002EC002F02FC003F052EF0EF0869F069E2F
:1017F000190E436E14EC00F0068E310E006E002EB2
:10180000FED700D0868F88EF0CF0420E006E002EBF
:10181000FED7000006BE10D0840E006E002EFED74C
:1018200000D0000006AE08D0520E006E002EFED78B
:1018300000D00000010E016E89EF0CF0446A18A080
:1018400000D0426A4250070842E3436A06BE0AD00B
:10185000432A4350640802E2188004D000D000D02C
:101860000000F4D7310E006E002EFED700D006BE69
:1018700011D0070ED8804254456E010E006E4550BF
:10188000016E04E0D8900036012EFCD70050FF0A0C
:1018900044161BD0070ED8804254456E010E006ED0
:1018A0004550016E04E0D8900036012EFCD7005060
:1018B000441206AE0AD0432A4350640802E218805C
:1018C00004D000D000D00000F4D7422ABBD744C0D7
:1018D00001F012004350016A425C03E242C000F092
:1018E0000CD0006A080E446E423600364350005C4D
:1018F000D8B0006E0136442EF7D71200040E426EA7
:10190000FA0E436E14EC00F0422EFAD718906ED700
:101910007CD7015225E092DF01C019F08FDF01C0B2
:101920001AF08CDF01C01BF01A5019241B5C18E15F
:1019300019C042F00A0E436ECDDF300E0124116E45
:1019400019C042F00A0E436EC5DF300E0024126E3D
:101950001AC042F00A0E436EBDDF300E0124146E31
:101960000A0E016E000E026E5BEF0EF04F50B608CD
:101970004F6E036A50C053F0508ED890503251329F
:10198000523203320232013200324F2EF6D753AEBA
:101990000BD0001E011E021E031E002AD8B4012A0D
:1019A000D8B4022AD8B4032A53EF0DF0D8B203D02A
:1019B000EA6A570EE96E006A016A026A036A576AA8
:1019C000586A596A5A6A56505510541053102CE0F0
:1019D000200E5B6ED8904F36503651365236573601
:1019E000583659365A3656505A5C08E15550595CAB
:1019F00005E15450585C02E15350575C0FE35350DB
:101A0000575E5450D8A0543C585E5550D8A0553C11
:101A1000595E5650D8A0563C5A5ED88000360136E2
:101A2000023603365B2ED6D757C0EFFF58C0ECFF07
:101A300059C0ECFF5AC0ECFF120084804FC083FFF6
:101A4000848200D000D000008492420E006E002EEE
:101A5000FED700001200E950476E4650496E1AE06A
:101A600045C071F044C070F043C06FF042C06EF0EA
:101A7000756B746B200E736F820E726F67EC00F0E3
:101A800003C045F002C044F001C043F000C042F082
:101A9000492EE6D745C052F044C051F043C050F043
:101AA00042C04FF063D703C045F002C044F001C00C
:101AB00043F000C042F045AE0DD04706478A421EB3
:101AC000431E441E451E422AD8B4432AD8B4442A91
:101AD000D8B4452A3B0E4E6E9A0E4D6ECA0E4C6E11
:101AE0004B6A0A0E496E4650D8B4472AD882EA6A31
:101AF000420EE96E45C052F044C051F043C050F070
:101B000042C04FF04EC056F04DC055F04CC054F09E
:101B10004BC053F04BDF015000520FE14628495CA7
:101B20000CE047500CE00F0B495C01E037E247BE88
:101B300035D047BC04D0200E2DD0200E471647AA22
:101B40000CD0479A4650D8A447060050476E2D0E39
:101B50004F6E73DF4750006E476A4650495C0AE19A
:101B60000050476E2E0E4F6E68DF4750006E200EFD
:101B70004716000E300E47AA0DD0479A4650D8A4FB
:101B800047060050476E2D0E4F6E57DF4750006ED0
:101B9000476A300E002600C04FF04FDFD8924EC08B
:101BA00052F04DC051F04CC050F04BC04FF0566A4F
:101BB000556A546A0A0E536EF9DE03C04EF002C035
:101BC0004DF001C04CF000C04BF0492E8FD76EEFA6
:101BD0000EF0F86AD09E1F6A1E6A1D6A1C6A236A8C
:101BE000226A216A206A276A266A256A246A2B6A81
:101BF0002A6A296A286A2F6A2E6A2D6A2C6A336A31
:101C0000326A316A306A930E386E260E376E140EC1
:101C1000366E750E356E0E0E3C6E430E3B6E750EB7
:101C20003A6E720E396EDC0E406E540E3F6E3E0EF2
:101C30003E6E670E3D6E416AC150C00B0F09C16E0A
:101C4000070EB46E046A056A520E0A6E480E0B6ED9
:101C5000A00E0C6E0D6E0E6E3D0E0F6EA00E106E71
:101C6000300E116E126E2E0E136E300E146EA00E0C
:101C7000156E250E166E176AC050C00B0209C06E95
:101C8000C08EC280C150C00B0C09C16E0F0E926E87
:101C9000C00E936E000E946E956E040E966E2FEF2E
:101CA00000F03ED403C033F002C032F001C031F086
:101CB00000C030F023D601C034F0830E426E06EC33
:101CC00000F0890EE96E33C045F032C044F031C0F7
:101CD00043F030C042F0020E466EBDD633C071F004
:101CE00032C070F031C06FF030C06EF0756B746B45
:101CF000180E736F840E726FC2EC02F001E202E103
:101D000082908184716B706B180E6F6F840E6E6F92
:101D100033C075F032C074F031C073F030C072F06F
:0E1D2000C2EC02F002E382808194BBD7030084
:020000040030CA
:0E0000003FCC381E0087A1000FC00FE00F405C
:00000001FF
;PIC18F4550
;CRC=FBCB  CREATED="28-jun-17 16:37"
