:1000000068EF0EF04D4558454E444F00849038C07F
:1000100083FF848200D000D000008492420E006EE4
:10002000002EFED700001200EA6A390EE96EEF508A
:100030000DE0060E016E006A002EFED7012EFBD7E2
:100040007B0E006E002EFED7EF2EF3D71200010EAE
:10005000386EDCDF020E396EE7DF1200300E386ECC
:10006000D5DF040E396EE0DF300E386ECFDFA60E1E
:10007000006E002EFED70000300E386EC7DF380E3F
:10008000386EC4DFE4DF0C0E386EC0DF060E386E4B
:10009000BDDFB8EF0EF0848043C083FF848200D0C0
:1000A00000D000008492420E006E002EFED70000A9
:1000B00012000900F5520CE0F6CF38F0F7CF39F016
:1000C000F5CF43F0E8DF38C0F6FF39C0F7FFF1D7CE
:1000D00084EF00F0030E395E09E3EA6A390EE96E37
:1000E000EF5004E001D000D0EF2EFDD71200366AA9
:1000F00036500A0854E3ABDF830E386E87DF040EF8
:10010000F66E000EF76ED5D73650010B02E18184F2
:1001100082903650010B02E081948280376A37501A
:10012000310811E38186040E386EC70E396ED2DFB6
:10013000382EFBD78196130E396E76DFC80E396ED6
:10014000C9DF372AECD7080E386EFA0E396E6CDF2D
:10015000382EFBD7376A3750310818E38186010EF5
:10016000396E62DF020E386EF90E396EB3DF382E4B
:10017000FBD78196120E396E57DF020E386EF90EDC
:10018000396EA8DF382EFBD7372AE5D7080E386E30
:10019000FA0E396E49DF382EFBD7362AA9D7BAEFC7
:1001A0000EF08E0E006E67C001F066C002F0036AAA
:1001B000015209E102C001F0026A080E005E01521C
:1001C00002E1006A08D0D89001BE04D002360136A0
:1001D0000006F9D7019E12006251D8B471D0006EAA
:1001E0006651D8B46DD0002604E3810E002668E283
:1001F00004D07F0E005E64E363E063C06AF0675181
:100200006A1B638F678F65516903F4CF6CF064518B
:100210006803F4CF03F0F3CF6BF06903F3506C275E
:10022000F4506B23000E032265516803F3506C27D2
:10023000F4506B23000E026A032202226351690309
:10024000F3506B27F4500322000E0222635168031F
:10025000F3500326F4500222000E016A0122655178
:100260006703F3506B27F4500322000E0222012291
:1002700064516703F3500326F4500222000E01225A
:1002800063516703F3500226F4500122002A01BE95
:1002900005D06B370336023601360006000E6BAF11
:1002A0000AD0032A02220122015005E1025003E193
:1002B000035001E1002A6ABF018E6AAF019E04D09B
:1002C000006A016A026A036A12005B50D8B4A5D0C2
:1002D000676F5F50D8B4A1D0675F05E37F0E6727D3
:1002E000D8B09BD006D0810E675FD8A096D0D8B486
:1002F00094D067C000F0016A026A036A666B5CC052
:1003000065F0658F5DC064F05EC063F0190E676FC5
:100310006251635F0DE2010E645F0AE2655F08E20D
:10032000665F06E2662B652B642B6251632728D03B
:100330006151645F12E2010E655F0FE2665F0DE2DC
:10034000662B652B615164276251632719E3642B87
:1003500017E1652B15E1662B13D060518009655FAD
:100360000EE2010E665F0BE2662B60518009652785
:1003700061516427E9E3652BE7E1662BE5D703804C
:10038000672F01D00BD0D890633764376537663755
:10039000D8900336023601366837BAD768A106D03E
:1003A000D890013202320332683302D0000635E0C1
:1003B00068BF1ED0D890633764376537663762519F
:1003C000635F07E2010E645F04E2655F02E2665F5D
:1003D0001AE36151645F05E2010E655F02E2665F48
:1003E00012E360518009655F03E2010E665F0BE373
:1003F000032A09E1022A07E1012A05E1002A0DE0AA
:100400000132023203325CC067F06051671B67AF94
:1004100002D0018E06D0019E04D0006A016A026AF1
:10042000036A1200800ED8B26B1B706B716B67C0D1
:100430006FF06B516F1B6651D8B4DCD06E6F006EDD
:100440006A51D8B4E0D06E5FD8B481D03DE36BC0C0
:1004500074F0748F6CC073F06DC072F0716BD890D3
:1004600074337333723371336E2FF8D76FAF03D099
:100470007081DDD070916E917089EA6A690EE96EC3
:10048000E9D070996FBF0AD06EA113D07433733363
:1004900072337133002AD8B4C5D00BD074BF0CD0DE
:1004A000D89071377237733774370006D8B4BAD022
:1004B000F5D7708D6BD0709D67C06FF067AF02D0BD
:1004C000748FA9D0749FA7D06AC06EF06AC000F084
:1004D00066516E5F67C074F0748F68C073F069C056
:1004E00072F0716BD89074337333723371336E2F33
:1004F000F8D76FAF03D070839AD070936E91708BE2
:10050000EA6A6D0EE96EA6D0709B6FBF0AD06EA12D
:1005100013D07433733372337133002AD8B482D05A
:100520000BD074BF0CD0D8907137723773377437D3
:100530000006D8B477D0F5D7708F28D0709F6BC0E5
:100540006FF06BAF02D0748F66D0749F64D06BC0B5
:1005500074F0748F6CC073F06DC072F06FAF04D024
:10056000749F708564D07095716B6E91EA6A690EA4
:10057000E96E70D06FBF1CD067C06FF06EA106D05F
:100580007433733372337133002A4CE071AF0BD084
:10059000722B09E1732B07E1742B05E1743373337C
:1005A0007233002A3FE070BD86D770BFC7D71CD01A
:1005B000800E741B74AF04D03AD06BC06FF00AD0B9
:1005C00067C06FF0745306E1735304E1725302E1A4
:1005D000006A21D074BF08D0D89071377237733752
:1005E0007437002EF7D71ED06FAF02D0748F13D0A0
:1005F000749F11D06AC000F06BC074F06CC073F0CF
:100600006DC072F008D066C000F067C074F068C0BA
:1006100073F069C072F074C001F073C002F072C070
:1006200003F034D0006A016A026A036A2FD0716B4A
:10063000721F731F741F711F712B05E1722B03E171
:10064000732B01E1742B70B115D770B356D770B509
:100650008AD7B3D7EF50722705E3732B03E1742BCE
:10066000D8B46E81ED52EF50732703E3742BD8B4E6
:100670006E81ED52EF50EFBE01D0800A7427D8B0E2
:100680006E8170B9FED670BB3FD774D7120063C0BD
:100690006AF067516A1B6AAF05D0D894D89063BFDF
:1006A000D8802FD063C06AF066C06BF062516B5F78
:1006B00006E06AAF26D0D850010AD86E22D067C0B3
:1006C0006BF063516B5F06E06AAF1BD0D850010A34
:1006D000D86E17D068C06BF064516B5F06E06AAFEC
:1006E00010D0D850010AD86E0CD069C06BF065519B
:1006F0006B5F06E06AAF05D0D850010AD86E01D012
:10070000D89012008E0E006E59C001F058C002F051
:10071000036A59AE05D0011E021E022A01E1012A18
:10072000015209E102C001F0026A080E005E0152A6
:1007300002E1006A0AD0D89001BE04D00236013628
:100740000006F9D759BE01D0019E120045C049F0FC
:1007500044C048F043C047F042C046F049C065F08D
:1007600048C064F047C063F046C062F0696B686BD4
:10077000676B7F0E666F8BDFD8B47BD1586A460EED
:10078000E96E58C0EAFF7E0EEF6ED88249C069F06C
:1007900048C068F047C067F046C066F06D6B6C6B90
:1007A0006B6B7F0E6A6F3EDE03C05AF002C059F0D9
:1007B00001C058F000C057F0D89249C069F048C055
:1007C00068F047C067F046C066F06D6B6C6B6B6B92
:1007D0007F0E6A6F27DE5AC05EF059C05DF058C0C8
:1007E0005CF057C05BF003C062F002C061F001C072
:1007F00060F000C05FF069DD03C049F002C048F05E
:1008000001C047F000C046F049C065F048C064F040
:1008100047C063F046C062F049C069F048C068F064
:1008200047C067F046C066F0D7DC03C055F002C091
:1008300054F001C053F000C052F0990E656F470E9E
:10084000646F8A0E636F7F0E626F55C069F054C08B
:1008500068F053C067F052C066F0BEDC03C05AF0C7
:1008600002C059F001C058F000C057F0D89203C040
:1008700069F002C068F001C067F000C066F06D6BFF
:100880006C6B6B6B800E6A6FCDDD03C04DF002C0E8
:100890004CF001C04BF000C04AF04C0E656FF30EF7
:1008A000646F3A0E636F7B0E626F55C069F054C07F
:1008B00068F053C067F052C066F08EDC03C05AF097
:1008C00002C059F001C058F000C057F0D89203C0E0
:1008D00069F002C068F001C067F000C066F02B0E3E
:1008E0006D6F9D0E6C6FDF0E6B6F7E0E6A6F9ADD03
:1008F00003C051F002C050F001C04FF000C04EF0F4
:1009000051C065F050C064F04FC063F04EC062F05B
:1009100055C069F054C068F053C067F052C066F02B
:100920005BDC03C05AF002C059F001C058F000C0AF
:1009300057F0D89203C069F002C068F001C067F0B8
:1009400000C066F06D6B6C6B6B6B7F0E6A6F6ADD5F
:1009500003C051F002C050F001C04FF000C04EF093
:1009600049C065F048C064F047C063F046C062F01B
:100970004DC069F04CC068F04BC067F04AC066F0EB
:100980002BDC03C05AF002C059F001C058F000C07F
:1009900057F003C05EF002C05DF001C05CF000C023
:1009A0005BF051C062F050C061F04FC060F04EC0CB
:1009B0005FF08BDC03C04DF002C04CF001C04BF087
:1009C00000C04AF0586A420EE96E58C0EAFF7E0E37
:1009D000EF5C566E56AE12D0000ED8805654596A4F
:1009E000586E58BE59068EDE00C04EF00150800A87
:1009F0004F6E02C050F003C051F00ED0596A56C07D
:100A000058F058BE59067EDE03C051F002C050F0C7
:100A100001C04FF000C04EF051C065F050C064F00E
:100A20004FC063F04EC062F0180E696F720E686FAF
:100A3000310E676F7E0E666FECEC00F0D8924DC001
:100A400069F04CC068F04BC067F04AC066F003C064
:100A50006DF002C06CF001C06BF000C06AF0E2DC27
:100A600003C04DF002C04CF001C04BF000C04AF092
:100A700004D04D6A4C6A4B6A4A6A4AC000F04BC0C7
:100A800001F04CC002F04DC003F012008E0E006E5B
:100A90006251005E63C002F064C001F0028E005239
:100AA00009E0D890025202E1015204E00232013220
:100AB000002EF7D763AF05D0011E021E012AD8B45D
:100AC000022A1200619155C05AF054C059F053C027
:100AD00058F052C057F055C065F054C064F053C090
:100AE00063F052C062F0696B686B676B666BCFDD59
:100AF00004E361815850800A586E5AC065F059C0AD
:100B000064F058C063F057C062F0696B686B676B44
:100B10008E0E666FBCDD01E218E15AC065F059C067
:100B200064F058C063F057C062F0B0DF02C067F0F5
:100B300001C066F0D1EC00F003C05EF002C05DF0D1
:100B400001C05CF000C05BF0C5D05AC065F059C070
:100B500064F058C063F057C062F0800E696F960E63
:100B6000686F180E676F960E666F91DDD8A0AAD0D9
:100B70005AC065F059C064F058C063F057C062F0C5
:100B8000696B686B676B700E666FECEC00F003C00E
:100B900065F002C064F001C063F000C062F076DF6F
:100BA00002C060F001C05FF05AC065F059C064F047
:100BB00058C063F057C062F0696B686B676B700E6A
:100BC000666FECEC00F003C065F002C064F001C099
:100BD00063F000C062F060C067F05FC066F0D1EC07
:100BE00000F0D88265C069F064C068F063C067F047
:100BF00062C066F003C06DF002C06CF001C06BF023
:100C000000C06AF00FDC656B646B636B8E0E626F05
:100C100003C069F002C068F001C067F000C066F070
:100C2000ECEC00F003C05AF002C059F001C058F0DB
:100C300000C057F060C067F05FC066F0D1EC00F014
:100C4000656B646B636B8E0E626F03C069F002C0EC
:100C500068F001C067F000C066F0ECEC00F003C083
:100C60005EF002C05DF001C05CF000C05BF05AC0F5
:100C700065F059C064F058C063F057C062F006DFF9
:100C800002C067F001C066F0D1EC00F0D8925EC0FF
:100C900069F05DC068F05CC067F05BC066F003C0DF
:100CA0006DF002C06CF001C06BF000C06AF012EC95
:100CB00002F003C05EF002C05DF001C05CF000C055
:100CC0005BF008D05AC05EF059C05DF058C05CF0CF
:100CD00057C05BF05AC065F059C064F058C063F06B
:100CE00057C062F0D3DE02C067F001C066F0D1ECFD
:100CF00000F0D8825AC069F059C068F058C067F057
:100D000057C066F003C06DF002C06CF001C06BF01C
:100D100000C06AF012EC02F003C05AF002C059F0B1
:100D200001C058F000C057F061A103D05C50800AA8
:100D30005C6E5AC065F059C064F058C063F057C08B
:100D400062F0696B686B676B666BA1DC38E061A170
:100D50001AD0565218E1D8825EC069F05DC068F0C2
:100D60005CC067F05BC066F06D6B6C6B6B6B7F0E8D
:100D70006A6F12EC02F003C05EF002C05DF001C0C9
:100D80005CF000C05BF061B11AD0562C18D0D8923C
:100D90005EC069F05DC068F05CC067F05BC066F083
:100DA0006D6B6C6B6B6B7F0E6A6F12EC02F003C0A5
:100DB0005EF002C05DF001C05CF000C05BF055C0A9
:100DC00065F054C064F053C063F052C062F0696BC8
:100DD000686B676B666B5BDC04E15E6A5D6A5C6A2C
:100DE0005B6A5BC000F05CC001F05DC002F05EC0F9
:100DF00003F0120051C055F050C054F04FC053F0F2
:100E00004EC052F0010E566E5DDE6EEF07F051C01F
:100E100055F050C054F04FC053F04EC052F0566AD7
:100E200051DE92EF07F045C065F044C064F043C066
:100E300063F042C062F0696B686B676B666B27DCBE
:100E4000D8B49ED041C05EF040C05DF03FC05CF0C1
:100E50003EC05BF045C062F044C061F043C060F04A
:100E600042C05FF065EC01F003C04DF002C04CF0F1
:100E700001C04BF000C04AF003C065F002C064F04E
:100E800001C063F000C062F0696B686B676B666BF2
:100E900047EC03F024E341C05EF040C05DF03FC08A
:100EA0005CF03EC05BF045C062F044C061F043C0FE
:100EB00060F042C05FF065EC01F003C04DF002C08D
:100EC0004CF001C04BF000C04AF003C051F002C02A
:100ED00050F001C04FF000C04EF08CD723D041C07D
:100EE0005EF040C05DF03FC05CF03EC05BF045C0CE
:100EF00062F044C061F043C060F042C05FF065EC56
:100F000001F003C04DF002C04CF001C04BF000C036
:100F10004AF003C051F002C050F001C04FF000C0D1
:100F20004EF075D703C049F002C048F001C047F049
:100F300000C046F049C065F048C064F047C063F0A7
:100F400046C062F045C069F044C068F043C067F035
:100F500042C066F0ECEC00F0D88241C069F040C0BD
:100F600068F03FC067F03EC066F003C06DF002C09D
:100F70006CF001C06BF000C06AF012EC02F000D01F
:100F8000120045C065F044C064F043C063F042C045
:100F900062F03B0E696FAA0E686F380E676F7F0EA6
:100FA000666FECEC00F003C065F002C064F001C0B5
:100FB00063F000C062F06ADD01C052F0539045C09A
:100FC00049F044C048F043C047F042C046F045C035
:100FD00065F044C064F043C063F042C062F0696BE6
:100FE000686B676B666B47EC03F005E35380526CEC
:100FF0004750800A476E4D6A4C6A4B6A4A6A556A86
:101000004A0EE96E55C0EAFF7F0E5224EF6E49C0CA
:1010100065F048C064F047C063F046C062F03B0E24
:10102000696FAA0E686F380E676F7F0E666FECEC03
:1010300000F003C057F002C056F001C055F000C0E8
:1010400054F0596A52C058F058BE590682EC03F069
:10105000D88257C069F056C068F055C067F054C0D8
:1010600066F003C06DF002C06CF001C06BF000C010
:101070006AF012EC02F003C049F002C048F001C06F
:1010800047F000C046F07C0E656F880E646F590E05
:10109000636F720E626F49C069F048C068F047C064
:1010A00067F046C066F0ECEC00F003C057F002C0F9
:1010B00056F001C055F000C054F0D89203C069F05A
:1010C00002C068F001C067F000C066F0E00E6D6F0E
:1010D000970E6C6F260E6B6F750E6A6F12EC02F036
:1010E00003C051F002C050F001C04FF000C04EF0FC
:1010F00051C065F050C064F04FC063F04EC062F064
:1011000049C069F048C068F047C067F046C066F063
:10111000ECEC00F003C057F002C056F001C055F0EF
:1011200000C054F0D89203C069F002C068F001C05A
:1011300067F000C066F0C40E6D6F1D0E6C6F1E0E62
:101140006B6F780E6A6F12EC02F003C051F002C0B0
:1011500050F001C04FF000C04EF051C065F050C0DB
:1011600064F04FC063F04EC062F049C069F048C0FF
:1011700068F047C067F046C066F0ECEC00F003C0D2
:1011800057F002C056F001C055F000C054F0D8929C
:1011900003C069F002C068F001C067F000C066F0EB
:1011A0005E0E6D6F500E6C6F630E6B6F7A0E6A6F12
:1011B00012EC02F003C051F002C050F001C04FF039
:1011C00000C04EF051C065F050C064F04FC063F0F5
:1011D0004EC062F049C069F048C068F047C067F08F
:1011E00046C066F0ECEC00F003C057F002C056F0C9
:1011F00001C055F000C054F0D89203C069F002C09D
:1012000068F001C067F000C066F01A0E6D6FFE0E48
:101210006C6F750E6B6F7C0E6A6F12EC02F003C080
:1012200051F002C050F001C04FF000C04EF051C06C
:1012300065F050C064F04FC063F04EC062F049C02A
:1012400069F048C068F047C067F046C066F0ECEC53
:1012500000F003C057F002C056F001C055F000C0C6
:1012600054F0D89203C069F002C068F001C067F082
:1012700000C066F0180E6D6F720E6C6F310E6B6FE2
:101280007E0E6A6F12EC02F003C051F002C050F003
:1012900001C04FF000C04EF049C065F048C064F096
:1012A00047C063F046C062F051C069F050C068F0BA
:1012B0004FC067F04EC066F0ECEC00F0D892696B5E
:1012C000686B676B7F0E666F03C06DF002C06CF0D9
:1012D00001C06BF000C06AF012EC02F04DC065F086
:1012E0004CC064F04BC063F04AC062F003C069F0C8
:1012F00002C068F001C067F000C066F0ECEC00F0DE
:1013000003C04DF002C04CF001C04BF000C04AF0E9
:1013100053A017D05E6A5D6A5C6A7F0E5B6E4DC03B
:1013200062F04CC061F04BC060F04AC05FF065EC09
:1013300001F003C04DF002C04CF001C04BF000C002
:101340004AF04AC000F04BC001F04CC002F04DC062
:1013500003F0120039C065F038C064F037C063F0A4
:1013600036C062F0696B686B676B666B47EC03F0C5
:10137000D8A0CBD03DC041F03CC040F03BC03FF0D6
:101380003AC03EF0456A446A436A7F0E426E4BDDC6
:1013900003C041F002C040F001C03FF000C03EF089
:1013A00003C065F002C064F001C063F000C062F0E9
:1013B000696B686B676B666B47EC03F0D8A4A5D0CC
:1013C0003DC041F03CC040F03BC03FF03AC03EF071
:1013D000456A446A436A800E426E25DD03C041F0CF
:1013E00002C040F001C03FF000C03EF003C065F015
:1013F00002C064F001C063F000C062F0696B686B0A
:10140000676B666B47EC03F03FE136C03EF0375048
:10141000800A3F6E38C040F039C041F039C045F015
:1014200038C044F0436E36C042F0A6EC03F003C06F
:1014300041F002C040F001C03FF000C03EF003C0E8
:1014400065F002C064F001C063F000C062F03DC00E
:1014500069F03CC068F03BC067F03AC066F0ECEC65
:1014600000F003C041F002C040F001C03FF000C0F6
:101470003EF003C045F002C044F001C043F000C09C
:1014800042F07FDDD0D040D036C03EF03750800AE9
:101490003F6E38C040F039C041F039C045F038C027
:1014A00044F0436E36C042F0A6EC03F003C041F0B6
:1014B00002C040F001C03FF000C03EF003C065F044
:1014C00002C064F001C063F000C062F03DC069F08A
:1014D0003CC068F03BC067F03AC066F0ECEC00F04E
:1014E00003C041F002C040F001C03FF000C03EF038
:1014F00003C045F002C044F001C043F000C042F018
:1015000040DD800E011A8FD08ED039C065F038C012
:1015100064F037C063F036C062F0696B686B676B6C
:10152000666B47EC03F02BE33DC041F03CC040F05C
:101530003BC03FF03AC03EF0456A446A436A7F0EC2
:10154000426E71DC03C041F002C040F001C03FF0C8
:1015500000C03EF003C065F002C064F001C063F05B
:1015600000C062F0696B686B676B666B47EC03F0F9
:1015700006E0006A016A026A036A55D054D039C095
:1015800065F038C064F037C063F036C062F0696B54
:10159000686B676B666B47EC03F010E13DC065F06C
:1015A0003CC064F03BC063F03AC062F0696B686BAA
:1015B000676B666B47EC03F001E235E139C045F03B
:1015C00038C044F037C043F036C042F0A6EC03F018
:1015D00003C041F002C040F001C03FF000C03EF047
:1015E00003C065F002C064F001C063F000C062F0A7
:1015F0003DC069F03CC068F03BC067F03AC066F09F
:10160000ECEC00F003C041F002C040F001C03FF03C
:1016100000C03EF003C045F002C044F001C043F0FA
:1016200000C042F0AEDCE3EF0BF0000E016EC250E2
:10163000C30B0110C26E100E006E002EFED700000C
:10164000C282C2B2FED7C4CF03F0C3CF66F0C4CF0C
:1016500067F0D1EC00F003C01FF002C01EF001C023
:101660001DF000C01CF01FC065F01EC064F01DC05E
:1016700063F01CC062F0696B686B200E676F810EAF
:10168000666FECEC00F003C01FF002C01EF001C05A
:101690001DF000C01CF01FC05EF01EC05DF01DC03C
:1016A0005CF01CC05BF0626BC00E616F7F0E606F00
:1016B000880E5F6E65EC01F003C01FF002C01EF0E3
:1016C00001C01DF000C01CF05E6AE80E5D6E5C6A31
:1016D0008E0E5B6E1FC062F01EC061F01DC060F018
:1016E0001CC05FF065EC01F003C023F002C022F0E3
:1016F00001C021F000C020F0D88223C069F022C0D0
:1017000068F021C067F020C066F06D6B400E6C6F12
:101710001C0E6B6F8C0E6A6F12EC02F003C023F08C
:1017200002C022F001C021F000C020F023C045F02B
:1017300022C044F021C043F020C042F0A6EC03F0E8
:1017400003C027F002C026F001C025F000C024F03D
:1017500027C065F026C064F025C063F024C062F0A5
:101760000E0E696F430E686F750E676F720E666FAF
:10177000ECEC00F003C027F002C026F001C025F019
:1017800000C024F023C045F022C044F021C043F043
:1017900020C042F0A6EC03F003C02BF002C02AF0F8
:1017A00001C029F000C028F02BC039F02AC038F061
:1017B00029C037F028C036F03D6A3C6A400E3B6EC7
:1017C000800E3A6EC7D503C02BF002C02AF001C0CC
:1017D00029F000C028F02BC065F02AC064F029C0B1
:1017E00063F028C062F0DC0E696F540E686F3E0E25
:1017F000676F670E666FECEC00F003C02BF002C061
:101800002AF001C029F000C028F0D892930E696F29
:10181000260E686F140E676F750E666F27C06DF029
:1018200026C06CF025C06BF024C06AF012EC02F008
:1018300003C039F002C038F001C037F000C036F004
:10184000D89203C069F002C068F001C067F000C020
:1018500066F02BC06DF02AC06CF029C06BF028C078
:101860006AF012EC02F003C02FF002C02EF001C0AB
:101870002DF000C02CF05E6A5D6A5C6A7F0E5B6EC4
:101880002FC062F02EC061F02DC060F02CC05FF060
:1018900065EC01F003C02FF002C02EF001C02DF066
:1018A00000C02CF0D8822FC069F02EC068F02DC087
:1018B00067F02CC066F0330E6D6F930E6C6F080EE0
:1018C0006B6F870E6A6F12EC02F003C02FF002C03C
:1018D0002EF001C02DF000C02CF0020E366EFA0E74
:1018E000396E14EC00F0362EFAD72CC000F02DC063
:1018F00001F02EC002F02FC003F0BBEF0EF0869F68
:10190000069E190E396E14EC00F0068E310E006E34
:10191000002EFED700D0868F11EF0DF0420E006E24
:10192000002EFED7000006BE10D0840E006E002EE2
:10193000FED700D0000006AE08D0520E006E002E7A
:10194000FED700D00000010E016E12EF0DF0386AD4
:1019500018A000D0366A3650070842E3376A06BE40
:101960000AD0372A3750640802E2188004D000D029
:1019700000D00000F4D7310E006E002EFED700D04C
:1019800006BE11D0070ED8803654396E010E006E97
:101990003950016E04E0D8900036012EFCD700507B
:1019A000FF0A38161BD0070ED8803654396E010E48
:1019B000006E3950016E04E0D8900036012EFCD73D
:1019C0000050381206AE0AD0372A3750640802E2B7
:1019D000188004D000D000D00000F4D7362ABBD73E
:1019E00038C001F012003750016A365C03E236C09D
:1019F00000F00CD0006A080E386E363600363750CC
:101A0000005CD8B0006E0136382EF7D71200040EF5
:101A1000366EFA0E396E14EC00F0362EFAD71890A6
:101A20006ED77CD7015225E092DF01C019F08FDF1D
:101A300001C01AF08CDF01C01BF01A5019241B5C86
:101A400018E119C036F00A0E376ECDDF300E0124D2
:101A5000116E19C036F00A0E376EC5DF300E002445
:101A6000126E1AC036F00A0E376EBDDF300E01243A
:101A7000146E0A0E016E000E026EC4EF0EF043509B
:101A8000B608436E036A44C047F0448ED89044328F
:101A9000453246320332023201320032432EF6D74B
:101AA00047AE0BD0001E011E021E031E002AD8B432
:101AB000012AD8B4022AD8B4032ACEEF0DF0D8B246
:101AC00003D0EA6A4B0EE96E006A016A026A036A91
:101AD0004B6A4C6A4D6A4E6A4A504910481047108A
:101AE0002CE0200E4F6ED8904336443645364636AD
:101AF0004B364C364D364E364A504E5C08E1495016
:101B00004D5C05E148504C5C02E147504B5C0FE3F3
:101B100047504B5E4850D8A0483C4C5E4950D8A036
:101B2000493C4D5E4A50D8A04A3C4E5ED8800036B3
:101B30000136023603364F2ED6D74BC0EFFF4CC0CE
:101B4000ECFF4DC0ECFF4EC0ECFF1200E9503B6EC5
:101B50003A503D6E1AE039C065F038C064F037C0C5
:101B600063F036C062F0696B686B200E676F820E9F
:101B7000666FECEC00F003C039F002C038F001C031
:101B800037F000C036F03D2EE6D739C046F038C0F9
:101B900045F037C044F036C043F071D703C039F088
:101BA00002C038F001C037F000C036F039AE0DD0B9
:101BB0003B063B8A361E371E381E391E362AD8B4DD
:101BC000372AD8B4382AD8B4392A3B0E426E9A0E36
:101BD000416ECA0E406E3F6A0A0E3D6E3A50D8B44E
:101BE0003B2AD882EA6A360EE96E39C046F038C020
:101BF00045F037C044F036C043F042C04AF041C01F
:101C000049F040C048F03FC047F059DF0150005252
:101C10000FE13A283D5C0CE03B500CE00F0B3D5CC3
:101C200001E03BE23BBE39D03BBC04D0200E30D0BB
:101C3000200E3B163BAA0DD03B9A3A50D8A43B0647
:101C400000503B6E2D0E436E4BEC00F03B50006E8F
:101C50003B6A3A503D5C0BE100503B6E2E0E436EEA
:101C60004BEC00F03B50006E200E3B16000E300E89
:101C70003BAA0ED03B9A3A50D8A43B0600503B6E8C
:101C80002D0E436E4BEC00F03B50006E3B6A300E65
:101C9000002600C043F04BEC00F0D89242C046F062
:101CA00041C045F040C044F03FC043F04A6A496A31
:101CB000486A0A0E476E03DF03C042F002C041F0DB
:101CC00001C040F000C03FF03D2E8BD7D7EF0EF0A3
:101CD000F86AD09E1F6A1E6A1D6A1C6A236A226AFD
:101CE000216A206A276A266A256A246A2B6A2A6A78
:101CF000296A286A2F6A2E6A2D6A2C6A336A326A28
:101D0000316A306A356AC150C00B0F09C16E070EC7
:101D1000B46E046A056A520E0A6E480E0B6EA00E6F
:101D20000C6E0D6E0E6E3D0E0F6EA00E106E300E10
:101D3000116E126E2E0E136E300E146EA00E156EF6
:101D4000250E166E176AC050C00B0109C06EC08EFA
:101D5000C280C150C00B0C09C16E0F0E926EC00E36
:101D6000936E000E946E956E040E966E2EEF00F03C
:101D700077EF00F05AD403C033F002C032F001C054
:101D800031F000C030F043D601C034F0830E386E1D
:101D900006EC00F0890EE96E33C039F032C038F03D
:101DA00031C037F030C036F0020E3A6ECFD60A0E90
:101DB000436E4BEC00F033C065F032C064F031C0CC
:101DC00063F030C062F0696B686B180E676F840E49
:101DD000666F47EC03F001E202E182908184656B5B
:101DE000646B180E636F840E626F33C069F032C08B
:101DF00068F031C067F030C066F047EC03F002E3F2
:081E000082808194B7D7030032
:020000040030CA
:0E0000003FCC381E0087A1000FC00FE00F405C
:00000001FF
;PIC18F4550
;CRC=8736  CREATED="26-jun-17 18:20"
