:10000000A5EF0BF08E0E006E7CC001F07BC002F0FD
:10001000036A015209E102C001F0026A080E005EA3
:10002000015202E1006A08D0D89001BE04D0023625
:1000300001360006F9D7019E12007751D8B471D06D
:10004000006E7B51D8B46DD0002604E3810E0026EB
:1000500068E204D07F0E005E64E363E078C07FF066
:100060007C517F1B788F7C8F7A517E03F4CF81F097
:1000700079517D03F4CF03F0F3CF80F07E03F3508A
:100080008127F4508023000E03227A517D03F35020
:100090008127F4508023000E026A03220222785145
:1000A0007E03F3508027F4500322000E0222785181
:1000B0007D03F3500326F4500222000E016A012250
:1000C0007A517C03F3508027F4500322000E022261
:1000D000012279517C03F3500326F4500222000ED2
:1000E000012278517C03F3500226F4500122002AA9
:1000F00001BE05D080370336023601360006000EF9
:1001000080AF0AD0032A02220122015005E10250E9
:1001100003E1035001E1002A7FBF018E7FAF019E02
:1001200004D0006A016A026A036A12007051D8B4EE
:10013000A5D07C6F7451D8B4A1D07C5F05E37F0E4D
:100140007C27D8B09BD006D0810E7C5FD8A096D0FB
:10015000D8B494D07CC000F0016A026A036A7B6B59
:1001600071C07AF07A8F72C079F073C078F0190E8E
:100170007C6F7751785F0DE2010E795F0AE27A5F5A
:1001800008E27B5F06E27B2B7A2B792B775178276D
:1001900028D07651795F12E2010E7A5F0FE27B5F21
:1001A0000DE27B2B7A2B765179277751782719E34B
:1001B000792B17E17A2B15E17B2B13D07551800930
:1001C0007A5F0EE2010E7B5F0BE27B2B755180099B
:1001D0007A2776517927E9E37A2BE7E17B2BE5D77C
:1001E00003807C2F01D00BD0D890783779377A37BD
:1001F0007B37D8900336023601367D37BAD77DA1DA
:1002000006D0D8900132023203327D3302D000068C
:1002100035E07DBF1ED0D890783779377A377B3775
:100220007751785F07E2010E795F04E27A5F02E2BC
:100230007B5F1AE37651795F05E2010E7A5F02E295
:100240007B5F12E3755180097A5F03E2010E7B5FE9
:100250000BE3032A09E1022A07E1012A05E1002A4A
:100260000DE001320232033271C07CF075517C1B0B
:100270007CAF02D0018E06D0019E04D0006A016AD4
:10028000026A036A1200800ED8B2801B856B866BEF
:100290007CC084F08051841B7B51D8B4DCD0836F48
:1002A000006E7F51D8B4E0D0835FD8B481D03DE3F5
:1002B00080C089F0898F81C088F082C087F0866B0A
:1002C000D8908933883387338633832FF8D784AF28
:1002D00003D08581DDD0859183918589EA6A7E0E80
:1002E000E96EE9D0859984BF0AD083A113D0893300
:1002F000883387338633002AD8B4C5D00BD089BF62
:100300000CD0D89086378737883789370006D8B41D
:10031000BAD0F5D7858D6BD0859D7CC084F07CAF3D
:1003200002D0898FA9D0899FA7D07FC083F07FC0DA
:1003300000F07B51835F7CC089F0898F7DC088F09D
:100340007EC087F0866BD8908933883387338633B5
:10035000832FF8D784AF03D085839AD08593839178
:10036000858BEA6A820EE96EA6D0859B84BF0AD08F
:1003700083A113D08933883387338633002AD8B4D6
:1003800082D00BD089BF0CD0D8908637873788377A
:1003900089370006D8B477D0F5D7858F28D0859FC8
:1003A00080C084F080AF02D0898F66D0899F64D0EE
:1003B00080C089F0898F81C088F082C087F084AFC7
:1003C00004D0899F858564D08595866B8391EA6A80
:1003D0007E0EE96E70D084BF1CD07CC084F083A1F7
:1003E00006D08933883387338633002A4CE086AFC2
:1003F0000BD0872B09E1882B07E1892B05E1893395
:1004000088338733002A3FE085BD86D785BFC7D7AD
:100410001CD0800E891B89AF04D03AD080C084F0F4
:100420000AD07CC084F0895306E1885304E18753E5
:1004300002E1006A21D089BF08D0D890863787377B
:1004400088378937002EF7D71ED084AF02D0898F26
:1004500013D0899F11D07FC000F080C089F081C087
:1004600088F082C087F008D07BC000F07CC089F0A3
:100470007DC088F07EC087F089C001F088C002F09E
:1004800087C003F034D0006A016A026A036A2FD081
:10049000866B871F881F891F861F862B05E1872B88
:1004A00003E1882B01E1892B85B115D785B356D798
:1004B00085B58AD7B3D7EF50872705E3882B03E1AB
:1004C000892BD8B48381ED52EF50882703E3892B21
:1004D000D8B48381ED52EF50EFBE01D0800A892756
:1004E000D8B0838185B9FED685BB3FD774D71200BB
:1004F00078C07FF07C517F1B7FAF05D0D894D89017
:1005000078BFD8802FD078C07FF07BC080F0775143
:10051000805F06E07FAF26D0D850010AD86E22D087
:100520007CC080F07851805F06E07FAF1BD0D85050
:10053000010AD86E17D07DC080F07951805F06E047
:100540007FAF10D0D850010AD86E0CD07EC080F09A
:100550007A51805F06E07FAF05D0D850010AD86E8F
:1005600001D0D89012008E0E006E6EC001F06DC0EA
:1005700002F0036A6EAF05D0011E021E022A01E1DD
:10058000012A015209E102C001F0026A080E005E70
:10059000015202E1006A0AD0D89001BE04D00236AE
:1005A00001360006F9D76EBF01D0019E12005AC075
:1005B0005EF059C05DF058C05CF057C05BF05EC0A3
:1005C0007AF05DC079F05CC078F05BC077F07E6B4C
:1005D0007D6B7C6B7F0E7B6F8BDFD8B47BD16D6BBB
:1005E0005B0EE96E6DC0EAFF7E0EEF6ED8825EC0D4
:1005F0007EF05DC07DF05CC07CF05BC07BF0826B08
:10060000816B806B7F0E7F6F3EDE03C06FF002C098
:100610006EF001C06DF000C06CF0D8925EC07EF04C
:100620005DC07DF05CC07CF05BC07BF0826B816B59
:10063000806B7F0E7F6F27DE6FC073F06EC072F02D
:100640006DC071F06CC070F003C077F002C076F03E
:1006500001C075F000C074F069DD03C05EF002C037
:100660005DF001C05CF000C05BF05EC07AF05DC080
:1006700079F05CC078F05BC077F05EC07EF05DC062
:100680007DF05CC07CF05BC07BF0D7DC03C06AF01F
:1006900002C069F001C068F000C067F0990E7A6F7F
:1006A000470E796F8A0E786F7F0E776F6AC07EF083
:1006B00069C07DF068C07CF067C07BF0BEDC03C021
:1006C0006FF002C06EF001C06DF000C06CF0D89207
:1006D00003C07EF002C07DF001C07CF000C07BF062
:1006E000826B816B806B800E7F6FCDDD03C062F00B
:1006F00002C061F001C060F000C05FF04C0E7A6F84
:10070000F30E796F3A0E786F7B0E776F6AC07EF0CA
:1007100069C07DF068C07CF067C07BF08EDC03C0F0
:100720006FF002C06EF001C06DF000C06CF0D892A6
:1007300003C07EF002C07DF001C07CF000C07BF001
:100740002B0E826F9D0E816FDF0E806F7E0E7F6F8E
:100750009ADD03C066F002C065F001C064F000C01D
:1007600063F066C07AF065C079F064C078F063C069
:1007700077F06AC07EF069C07DF068C07CF067C029
:100780007BF05BDC03C06FF002C06EF001C06DF067
:1007900000C06CF0D89203C07EF002C07DF001C0B2
:1007A0007CF000C07BF0826B816B806B7F0E7F6F73
:1007B0006ADD03C066F002C065F001C064F000C0ED
:1007C00063F05EC07AF05DC079F05CC078F05BC029
:1007D00077F062C07EF061C07DF060C07CF05FC0E9
:1007E0007BF02BDC03C06FF002C06EF001C06DF037
:1007F00000C06CF003C073F002C072F001C071F071
:1008000000C070F066C077F065C076F064C075F027
:1008100063C074F08BDC03C062F002C061F001C001
:1008200060F000C05FF06D6B570EE96E6DC0EAFFBF
:100830007E0EEF5C6B6F6BAF12D0000ED8806B55E5
:100840006E6B6D6F6DBF6E078EDE00C063F0015082
:10085000800A646F02C065F003C066F00ED06E6B54
:100860006BC06DF06DBF6E077EDE03C066F002C028
:1008700065F001C064F000C063F066C07AF065C046
:1008800079F064C078F063C077F0180E7E6F720E56
:100890007D6F310E7C6F7E0E7B6F1DEC00F0D89269
:1008A00062C07EF061C07DF060C07CF05FC07BF014
:1008B00003C082F002C081F001C080F000C07FF070
:1008C000E2DC03C062F002C061F001C060F000C071
:1008D0005FF004D0626B616B606B5F6A5FC000F0B9
:1008E00060C001F061C002F062C003F012008E0E21
:1008F000006E7751005E78C002F079C001F0028E80
:10090000005209E0D890025202E1015204E00232A2
:100910000132002EF7D778AF05D0011E021E012A42
:10092000D8B4022A120076916AC06FF069C06EF0E6
:1009300068C06DF067C06CF06AC07AF069C079F089
:1009400068C078F067C077F07E6B7D6B7C6B7B6BEB
:10095000CFDD04E376816D51800A6D6F6FC07AF050
:100960006EC079F06DC078F06CC077F07E6B7D6BF7
:100970007C6B8E0E7B6FBCDD01E218E16FC07AF0FC
:100980006EC079F06DC078F06CC077F0B0DF02C057
:100990007CF001C07BF002EC00F003C073F002C0F9
:1009A00072F001C071F000C070F0C5D06FC07AF075
:1009B0006EC079F06DC078F06CC077F0800E7E6FFD
:1009C000960E7D6F180E7C6F960E7B6F91DDD8A012
:1009D000AAD06FC07AF06EC079F06DC078F06CC0AC
:1009E00077F07E6B7D6B7C6B700E7B6F1DEC00F087
:1009F00003C07AF002C079F001C078F000C077F04F
:100A000076DF02C075F001C074F06FC07AF06EC07E
:100A100079F06DC078F06CC077F07E6B7D6B7C6B8D
:100A2000700E7B6F1DEC00F003C07AF002C079F00D
:100A300001C078F000C077F075C07CF074C07BF026
:100A400002EC00F0D8827AC07EF079C07DF078C0E8
:100A50007CF077C07BF003C082F002C081F001C05F
:100A600080F000C07FF00FDC7A6B796B786B8E0EB4
:100A7000776F03C07EF002C07DF001C07CF000C043
:100A80007BF01DEC00F003C06FF002C06EF001C0FF
:100A90006DF000C06CF075C07CF074C07BF002ECAF
:100AA00000F07A6B796B786B8E0E776F03C07EF0F7
:100AB00002C07DF001C07CF000C07BF01DEC00F0B6
:100AC00003C073F002C072F001C071F000C070F09A
:100AD0006FC07AF06EC079F06DC078F06CC077F0BE
:100AE00006DF02C07CF001C07BF002EC00F0D8927F
:100AF00073C07EF072C07DF071C07CF070C07BF07E
:100B000003C082F002C081F001C080F000C07FF01D
:100B100043EC01F003C073F002C072F001C071F049
:100B200000C070F008D06FC073F06EC072F06DC07E
:100B300071F06CC070F06FC07AF06EC079F06DC06B
:100B400078F06CC077F0D3DE02C07CF001C07BF09F
:100B500002EC00F0D8826FC07EF06EC07DF06DC0F8
:100B60007CF06CC07BF003C082F002C081F001C059
:100B700080F000C07FF043EC01F003C06FF002C0D2
:100B80006EF001C06DF000C06CF076A103D0715121
:100B9000800A716F6FC07AF06EC079F06DC078F026
:100BA0006CC077F07E6B7D6B7C6B7B6BA1DC38E07F
:100BB00076A11AD06B5318E1D88273C07EF072C050
:100BC0007DF071C07CF070C07BF0826B816B806BBC
:100BD0007F0E7F6F43EC01F003C073F002C072F030
:100BE00001C071F000C070F076B11AD06B2D18D032
:100BF000D89273C07EF072C07DF071C07CF070C07E
:100C00007BF0826B816B806B7F0E7F6F43EC01F01A
:100C100003C073F002C072F001C071F000C070F048
:100C20006AC07AF069C079F068C078F067C077F080
:100C30007E6B7D6B7C6B7B6B5BDC04E1736B726B3F
:100C4000716B706B70C000F071C001F072C002F087
:100C500073C003F0120066C06AF065C069F064C03A
:100C600068F063C067F0010E6B6F5DDE9FEF06F00A
:100C700066C06AF065C069F064C068F063C067F080
:100C80006B6B51DEC3EF06F05AC07AF059C079F0B1
:100C900058C078F057C077F07E6B7D6B7C6B7B6BB8
:100CA00027DCD8B49ED056C073F055C072F054C043
:100CB00071F053C070F05AC077F059C076F058C048
:100CC00075F057C074F096EC00F003C062F002C0FB
:100CD00061F001C060F000C05FF003C07AF002C0B4
:100CE00079F001C078F000C077F07E6B7D6B7C6B93
:100CF0007B6B78EC02F024E356C073F055C072F0C1
:100D000054C071F053C070F05AC077F059C076F0FB
:100D100058C075F057C074F096EC00F003C062F054
:100D200002C061F001C060F000C05FF003C066F077
:100D300002C065F001C064F000C063F08CD723D01E
:100D400056C073F055C072F054C071F053C070F0CB
:100D50005AC077F059C076F058C075F057C074F09B
:100D600096EC00F003C062F002C061F001C060F0D8
:100D700000C05FF003C066F002C065F001C064F01F
:100D800000C063F075D703C05EF002C05DF001C023
:100D90005CF000C05BF05EC07AF05DC079F05CC0D2
:100DA00078F05BC077F05AC07EF059C07DF058C033
:100DB0007CF057C07BF01DEC00F0D88256C07EF06E
:100DC00055C07DF054C07CF053C07BF003C082F06E
:100DD00002C081F001C080F000C07FF043EC01F060
:100DE00000D012005AC07AF059C079F058C078F09B
:100DF00057C077F03B0E7E6FAA0E7D6F380E7C6F6A
:100E00007F0E7B6F1DEC00F003C07AF002C079F01A
:100E100001C078F000C077F06ADD01C067F068912A
:100E20005AC05EF059C05DF058C05CF057C05BF02E
:100E30005AC07AF059C079F058C078F057C077F0AE
:100E40007E6B7D6B7C6B7B6B78EC02F005E36881DD
:100E5000676D5C50800A5C6E626B616B606B5F6A91
:100E60006A6B5F0EE96E6AC0EAFF7F0E6725EF6E60
:100E70005EC07AF05DC079F05CC078F05BC077F05E
:100E80003B0E7E6FAA0E7D6F380E7C6F7F0E7B6FE0
:100E90001DEC00F003C06CF002C06BF001C06AF002
:100EA00000C069F06E6B67C06DF06DBF6E07B3EC8C
:100EB00002F0D8826CC07EF06BC07DF06AC07CF01E
:100EC00069C07BF003C082F002C081F001C080F0F5
:100ED00000C07FF043EC01F003C05EF002C05DF0A3
:100EE00001C05CF000C05BF07C0E7A6F880E796FF9
:100EF000590E786F720E776F5EC07EF05DC07DF028
:100F00005CC07CF05BC07BF01DEC00F003C06CF0BB
:100F100002C06BF001C06AF000C069F0D89203C053
:100F20007EF002C07DF001C07CF000C07BF0E00EDE
:100F3000826F970E816F260E806F750E7F6F43EC68
:100F400001F003C066F002C065F001C064F000C0AB
:100F500063F066C07AF065C079F064C078F063C071
:100F600077F05EC07EF05DC07DF05CC07CF05BC061
:100F70007BF01DEC00F003C06CF002C06BF001C010
:100F80006AF000C069F0D89203C07EF002C07DF024
:100F900001C07CF000C07BF0C40E826F1D0E816F1B
:100FA0001E0E806F780E7F6F43EC01F003C066F079
:100FB00002C065F001C064F000C063F066C07AF062
:100FC00065C079F064C078F063C077F05EC07EF0F1
:100FD0005DC07DF05CC07CF05BC07BF01DEC00F080
:100FE00003C06CF002C06BF001C06AF000C069F091
:100FF000D89203C07EF002C07DF001C07CF000C03A
:101000007BF05E0E826F500E816F630E806F7A0EE2
:101010007F6F43EC01F003C066F002C065F001C0D1
:1010200064F000C063F066C07AF065C079F064C017
:1010300078F063C077F05EC07EF05DC07DF05CC08C
:101040007CF05BC07BF01DEC00F003C06CF002C0D4
:101050006BF001C06AF000C069F0D89203C07EF066
:1010600002C07DF001C07CF000C07BF01A0E826FE0
:10107000FE0E816F750E806F7C0E7F6F43EC01F06A
:1010800003C066F002C065F001C064F000C063F008
:1010900066C07AF065C079F064C078F063C077F01C
:1010A0005EC07EF05DC07DF05CC07CF05BC07BF01C
:1010B0001DEC00F003C06CF002C06BF001C06AF0E0
:1010C00000C069F0D89203C07EF002C07DF001C07C
:1010D0007CF000C07BF0180E826F720E816F310EB3
:1010E000806F7E0E7F6F43EC01F003C066F002C09C
:1010F00065F001C064F000C063F05EC07AF05DC0CE
:1011000079F05CC078F05BC077F066C07EF065C0B7
:101110007DF064C07CF063C07BF01DEC00F0D892E1
:101120007E6B7D6B7C6B7F0E7B6F03C082F002C099
:1011300081F001C080F000C07FF043EC01F062C09C
:101140007AF061C079F060C078F05FC077F003C0DA
:101150007EF002C07DF001C07CF000C07BF01DEC91
:1011600000F003C062F002C061F001C060F000C096
:101170005FF068A117D0736B726B716B7F0E706F2D
:1011800062C077F061C076F060C075F05FC074F047
:1011900096EC00F003C062F002C061F001C060F0A4
:1011A00000C05FF05FC000F060C001F061C002F0FD
:1011B00062C003F012004EC07AF04DC079F04CC00E
:1011C00078F04BC077F07E6B7D6B7C6B7B6B78EC43
:1011D00002F0D8A0CBD052C056F051C055F050C04C
:1011E00054F04FC053F05A6A596A586A7F0E576ECE
:1011F0004BDD03C056F002C055F001C054F000C0F2
:1012000053F003C07AF002C079F001C078F000C05A
:1012100077F07E6B7D6B7C6B7B6B78EC02F0D8A4F7
:10122000A5D052C056F051C055F050C054F04FC038
:1012300053F05A6A596A586A800E576E25DD03C00A
:1012400056F002C055F001C054F000C053F003C086
:101250007AF002C079F001C078F000C077F07E6BC0
:101260007D6B7C6B7B6B78EC02F03FE14BC053F005
:101270004C50800A546E4DC055F04EC056F04EC0D2
:101280005AF04DC059F0586E4BC057F0D7EC02F0F1
:1012900003C056F002C055F001C054F000C053F036
:1012A00003C07AF002C079F001C078F000C077F096
:1012B00052C07EF051C07DF050C07CF04FC07BF03A
:1012C0001DEC00F003C056F002C055F001C054F010
:1012D00000C053F003C05AF002C059F001C058F0EA
:1012E00000C057F07FDDD0D040D04BC053F04C5001
:1012F000800A546E4DC055F04EC056F04EC05AF0A4
:101300004DC059F0586E4BC057F0D7EC02F003C0F7
:1013100056F002C055F001C054F000C053F003C0B5
:101320007AF002C079F001C078F000C077F052C0C6
:101330007EF051C07DF050C07CF04FC07BF01DECC2
:1013400000F003C056F002C055F001C054F000C0D8
:1013500053F003C05AF002C059F001C058F000C069
:1013600057F040DD800E011A8FD08ED04EC07AF03B
:101370004DC079F04CC078F04BC077F07E6B7D6B40
:101380007C6B7B6B78EC02F02BE352C056F051C0C3
:1013900055F050C054F04FC053F05A6A596A586A19
:1013A0007F0E576E71DC03C056F002C055F001C0CD
:1013B00054F000C053F003C07AF002C079F001C0CD
:1013C00078F000C077F07E6B7D6B7C6B7B6B78EC8C
:1013D00002F006E0006A016A026A036A55D054D03E
:1013E0004EC07AF04DC079F04CC078F04BC077F029
:1013F0007E6B7D6B7C6B7B6B78EC02F010E152C0F6
:101400007AF051C079F050C078F04FC077F07E6B21
:101410007D6B7C6B7B6B78EC02F001E235E14EC0BA
:101420005AF04DC059F04CC058F04BC057F0D7ECB3
:1014300002F003C056F002C055F001C054F000C0E5
:1014400053F003C07AF002C079F001C078F000C018
:1014500077F052C07EF051C07DF050C07CF04FC09C
:101460007BF01DEC00F003C056F002C055F001C047
:1014700054F000C053F003C05AF002C059F001C04C
:1014800058F000C057F0AEDC11EF0BF0000E016E0B
:10149000C250C30B0110C26E100E006E002EFED79C
:1014A0000000C282C2B2FED7C4507C6B7B6F02ECDC
:1014B00000F003C01FF002C01EF001C01DF000C00C
:1014C0001CF01FC07AF01EC079F01DC078F01CC05F
:1014D00077F07E6B7D6B200E7C6F810E7B6F1DEC39
:1014E00000F003C01FF002C01EF001C01DF000C0DC
:1014F0001CF01FC073F01EC072F01DC071F01CC044
:1015000070F0776BC00E766F7F0E756F880E746FFC
:1015100096EC00F003C01FF002C01EF001C01DF0E9
:1015200000C01CF0736BE80E726F716B8E0E706FE3
:101530001FC077F01EC076F01DC075F01CC074F09F
:1015400096EC00F003C023F002C022F001C021F0AD
:1015500000C020F0D88223C07EF022C07DF021C0E0
:101560007CF020C07BF0826B400E816F1C0E806F80
:101570008C0E7F6F43EC01F003C023F002C022F019
:1015800001C021F000C020F023C05AF022C059F061
:1015900021C058F020C057F0D7EC02F003C027F06C
:1015A00002C026F001C025F000C024F027C07AF068
:1015B00026C079F025C078F024C077F00E0E7E6F3B
:1015C000430E7D6F750E7C6F720E7B6F1DEC00F00D
:1015D00003C027F002C026F001C025F000C024F0AF
:1015E00023C05AF022C059F021C058F020C057F053
:1015F000D7EC02F003C02BF002C02AF001C029F0A2
:1016000000C028F02BC04EF02AC04DF029C04CF08D
:1016100028C04BF0526A516A400E506E800E4F6ED9
:10162000CAD503C02BF002C02AF001C029F000C0C7
:1016300028F02BC07AF02AC079F029C078F028C0B1
:1016400077F0DC0E7E6F540E7D6F3E0E7C6F670E62
:101650007B6F1DEC00F003C02BF002C02AF001C02C
:1016600029F000C028F0D892930E7E6F260E7D6F71
:10167000140E7C6F750E7B6F27C082F026C081F040
:1016800025C080F024C07FF043EC01F003C04EF091
:1016900002C04DF001C04CF000C04BF0D89203C026
:1016A0007EF002C07DF001C07CF000C07BF02BC05A
:1016B00082F02AC081F029C080F028C07FF043EC7E
:1016C00001F003C02FF002C02EF001C02DF000C0C9
:1016D0002CF0736B726B716B7F0E706F2FC077F095
:1016E0002EC076F02DC075F02CC074F096EC00F092
:1016F00003C02FF002C02EF001C02DF000C02CF06E
:10170000D8822FC07EF02EC07DF02DC07CF02CC082
:101710007BF0330E826F930E816F080E806F870E01
:101720007F6F43EC01F003C02FF002C02EF001C028
:101730002DF000C02CF02CC000F02DC001F02EC008
:1017400002F02FC003F009EF0CF0F86AD09E1F6A78
:101750001E6A1D6A1C6A236A226A216A206A276A35
:10176000266A256A246A2B6A2A6A296A286A2F6AE5
:101770002E6A2D6A2C6AC150C00B0F09C16E070E6C
:10178000B46E17D002000400000E000A5248A0A058
:10179000A03DA030302E30A02500130038040102F7
:1017A00004080403060C090801030206040C0809D6
:1017B0000000000EF86E170EF76E840EF66E09002C
:1017C000F550006E000A13E00900F550016EE8BE06
:1017D00005D00F0BEA6E0900F5CFE9FF01BC090047
:1017E00001AC0900F5CFEEFF004EE9D7F9D7F86A52
:1017F000C050C00B0709C06EC09EC280C150C00B54
:101800000B09C16EC00E936E000E956E040E966E9F
:101810003DD603C033F002C032F001C031F000C049
:1018200030F07A6B796B180E786F840E776F33C057
:101830007EF032C07DF031C07CF030C07BF078ECBF
:0A18400002F001E3818EE4D70300FB
:020000040030CA
:0E0000003FC0381E0087A1000FC00FE00F4068
:00000001FF
;PIC18F4550
;CRC=C86F  CREATED="20-jun-17 20:32"
